{"abi":[{"inputs":[{"internalType":"uint256","name":"minimum","type":"uint256"}],"name":"createCampaign","outputs":[],"stateMutability":"nonpayable","type":"function"},{"inputs":[{"internalType":"uint256","name":"","type":"uint256"}],"name":"deployedCampains","outputs":[{"internalType":"contract Campaign","name":"","type":"address"}],"stateMutability":"view","type":"function"},{"inputs":[],"name":"getDeployedCampaign","outputs":[{"internalType":"contract Campaign[]","name":"","type":"address[]"}],"stateMutability":"view","type":"function"}],"devdoc":{"kind":"dev","methods":{},"version":1},"evm":{"assembly":"    /* \"Campaign.sol\":74:441  contract CampaignFactory {... */\n  mstore(0x40, 0x80)\n  callvalue\n  dup1\n  iszero\n  tag_1\n  jumpi\n  revert(0x00, 0x00)\ntag_1:\n  pop\n  dataSize(sub_0)\n  dup1\n  dataOffset(sub_0)\n  0x00\n  codecopy\n  0x00\n  return\nstop\n\nsub_0: assembly {\n        /* \"Campaign.sol\":74:441  contract CampaignFactory {... */\n      mstore(0x40, 0x80)\n      callvalue\n      dup1\n      iszero\n      tag_1\n      jumpi\n      revert(0x00, 0x00)\n    tag_1:\n      pop\n      jumpi(tag_2, lt(calldatasize, 0x04))\n      shr(0xe0, calldataload(0x00))\n      dup1\n      0x4af9edfe\n      eq\n      tag_3\n      jumpi\n      dup1\n      0x5eac0007\n      eq\n      tag_4\n      jumpi\n      dup1\n      0xa3303a75\n      eq\n      tag_5\n      jumpi\n    tag_2:\n      revert(0x00, 0x00)\n        /* \"Campaign.sol\":106:140  Campaign[] public deployedCampains */\n    tag_3:\n      tag_6\n      0x04\n      dup1\n      calldatasize\n      sub\n      dup2\n      add\n      swap1\n      tag_7\n      swap2\n      swap1\n      tag_8\n      jump\t// in\n    tag_7:\n      tag_9\n      jump\t// in\n    tag_6:\n      mload(0x40)\n      tag_10\n      swap2\n      swap1\n      tag_11\n      jump\t// in\n    tag_10:\n      mload(0x40)\n      dup1\n      swap2\n      sub\n      swap1\n      return\n        /* \"Campaign.sol\":322:435  function getDeployedCampaign() public view returns (Campaign[] memory) {... */\n    tag_4:\n      tag_12\n      tag_13\n      jump\t// in\n    tag_12:\n      mload(0x40)\n      tag_14\n      swap2\n      swap1\n      tag_15\n      jump\t// in\n    tag_14:\n      mload(0x40)\n      dup1\n      swap2\n      sub\n      swap1\n      return\n        /* \"Campaign.sol\":149:314  function createCampaign(uint minimum) public {... */\n    tag_5:\n      tag_16\n      0x04\n      dup1\n      calldatasize\n      sub\n      dup2\n      add\n      swap1\n      tag_17\n      swap2\n      swap1\n      tag_8\n      jump\t// in\n    tag_17:\n      tag_18\n      jump\t// in\n    tag_16:\n      stop\n        /* \"Campaign.sol\":106:140  Campaign[] public deployedCampains */\n    tag_9:\n      0x00\n      dup2\n      dup2\n      sload\n      dup2\n      lt\n      tag_19\n      jumpi\n      0x00\n      dup1\n      revert\n    tag_19:\n      swap1\n      0x00\n      mstore\n      keccak256(0x00, 0x20)\n      add\n      0x00\n      swap2\n      pop\n      sload\n      swap1\n      0x0100\n      exp\n      swap1\n      div\n      0xffffffffffffffffffffffffffffffffffffffff\n      and\n      dup2\n      jump\t// out\n        /* \"Campaign.sol\":322:435  function getDeployedCampaign() public view returns (Campaign[] memory) {... */\n    tag_13:\n        /* \"Campaign.sol\":374:391  Campaign[] memory */\n      0x60\n        /* \"Campaign.sol\":411:427  deployedCampains */\n      0x00\n        /* \"Campaign.sol\":404:427  return deployedCampains */\n      dup1\n      sload\n      dup1\n      0x20\n      mul\n      0x20\n      add\n      mload(0x40)\n      swap1\n      dup2\n      add\n      0x40\n      mstore\n      dup1\n      swap3\n      swap2\n      swap1\n      dup2\n      dup2\n      mstore\n      0x20\n      add\n      dup3\n      dup1\n      sload\n      dup1\n      iszero\n      tag_22\n      jumpi\n      0x20\n      mul\n      dup3\n      add\n      swap2\n      swap1\n      0x00\n      mstore\n      keccak256(0x00, 0x20)\n      swap1\n    tag_23:\n      dup2\n      0x00\n      swap1\n      sload\n      swap1\n      0x0100\n      exp\n      swap1\n      div\n      0xffffffffffffffffffffffffffffffffffffffff\n      and\n      0xffffffffffffffffffffffffffffffffffffffff\n      and\n      dup2\n      mstore\n      0x20\n      add\n      swap1\n      0x01\n      add\n      swap1\n      dup1\n      dup4\n      gt\n      tag_23\n      jumpi\n    tag_22:\n      pop\n      pop\n      pop\n      pop\n      pop\n      swap1\n      pop\n        /* \"Campaign.sol\":322:435  function getDeployedCampaign() public view returns (Campaign[] memory) {... */\n      swap1\n      jump\t// out\n        /* \"Campaign.sol\":149:314  function createCampaign(uint minimum) public {... */\n    tag_18:\n        /* \"Campaign.sol\":205:225  Campaign newCampaign */\n      0x00\n        /* \"Campaign.sol\":241:248  minimum */\n      dup2\n        /* \"Campaign.sol\":250:260  msg.sender */\n      caller\n        /* \"Campaign.sol\":228:261  new Campaign(minimum, msg.sender) */\n      mload(0x40)\n      tag_25\n      swap1\n      tag_26\n      jump\t// in\n    tag_25:\n      tag_27\n      swap3\n      swap2\n      swap1\n      tag_28\n      jump\t// in\n    tag_27:\n      mload(0x40)\n      dup1\n      swap2\n      sub\n      swap1\n      0x00\n      create\n      dup1\n      iszero\n      dup1\n      iszero\n      tag_29\n      jumpi\n      returndatacopy(0x00, 0x00, returndatasize)\n      revert(0x00, returndatasize)\n    tag_29:\n      pop\n        /* \"Campaign.sol\":205:261  Campaign newCampaign = new Campaign(minimum, msg.sender) */\n      swap1\n      pop\n        /* \"Campaign.sol\":272:288  deployedCampains */\n      0x00\n        /* \"Campaign.sol\":294:305  newCampaign */\n      dup2\n        /* \"Campaign.sol\":272:306  deployedCampains.push(newCampaign) */\n      swap1\n      dup1\n      0x01\n      dup2\n      sload\n      add\n      dup1\n      dup3\n      sstore\n      dup1\n      swap2\n      pop\n      pop\n      0x01\n      swap1\n      sub\n      swap1\n      0x00\n      mstore\n      keccak256(0x00, 0x20)\n      add\n      0x00\n      swap1\n      swap2\n      swap1\n      swap2\n      swap1\n      swap2\n      0x0100\n      exp\n      dup2\n      sload\n      dup2\n      0xffffffffffffffffffffffffffffffffffffffff\n      mul\n      not\n      and\n      swap1\n      dup4\n      0xffffffffffffffffffffffffffffffffffffffff\n      and\n      mul\n      or\n      swap1\n      sstore\n      pop\n        /* \"Campaign.sol\":194:314  {... */\n      pop\n        /* \"Campaign.sol\":149:314  function createCampaign(uint minimum) public {... */\n      pop\n      jump\t// out\n    tag_26:\n      dataSize(sub_0)\n      dup1\n      dataOffset(sub_0)\n      dup4\n      codecopy\n      add\n      swap1\n      jump\t// out\n        /* \"#utility.yul\":88:205   */\n    tag_32:\n        /* \"#utility.yul\":197:198   */\n      0x00\n        /* \"#utility.yul\":194:195   */\n      0x00\n        /* \"#utility.yul\":187:199   */\n      revert\n        /* \"#utility.yul\":334:411   */\n    tag_34:\n        /* \"#utility.yul\":371:378   */\n      0x00\n        /* \"#utility.yul\":400:405   */\n      dup2\n        /* \"#utility.yul\":389:405   */\n      swap1\n      pop\n        /* \"#utility.yul\":334:411   */\n      swap2\n      swap1\n      pop\n      jump\t// out\n        /* \"#utility.yul\":417:539   */\n    tag_35:\n        /* \"#utility.yul\":490:514   */\n      tag_59\n        /* \"#utility.yul\":508:513   */\n      dup2\n        /* \"#utility.yul\":490:514   */\n      tag_34\n      jump\t// in\n    tag_59:\n        /* \"#utility.yul\":483:488   */\n      dup2\n        /* \"#utility.yul\":480:515   */\n      eq\n        /* \"#utility.yul\":470:533   */\n      tag_60\n      jumpi\n        /* \"#utility.yul\":529:530   */\n      0x00\n        /* \"#utility.yul\":526:527   */\n      0x00\n        /* \"#utility.yul\":519:531   */\n      revert\n        /* \"#utility.yul\":470:533   */\n    tag_60:\n        /* \"#utility.yul\":417:539   */\n      pop\n      jump\t// out\n        /* \"#utility.yul\":545:684   */\n    tag_36:\n        /* \"#utility.yul\":591:596   */\n      0x00\n        /* \"#utility.yul\":629:635   */\n      dup2\n        /* \"#utility.yul\":616:636   */\n      calldataload\n        /* \"#utility.yul\":607:636   */\n      swap1\n      pop\n        /* \"#utility.yul\":645:678   */\n      tag_62\n        /* \"#utility.yul\":672:677   */\n      dup2\n        /* \"#utility.yul\":645:678   */\n      tag_35\n      jump\t// in\n    tag_62:\n        /* \"#utility.yul\":545:684   */\n      swap3\n      swap2\n      pop\n      pop\n      jump\t// out\n        /* \"#utility.yul\":690:1019   */\n    tag_8:\n        /* \"#utility.yul\":749:755   */\n      0x00\n        /* \"#utility.yul\":798:800   */\n      0x20\n        /* \"#utility.yul\":786:795   */\n      dup3\n        /* \"#utility.yul\":777:784   */\n      dup5\n        /* \"#utility.yul\":773:796   */\n      sub\n        /* \"#utility.yul\":769:801   */\n      slt\n        /* \"#utility.yul\":766:885   */\n      iszero\n      tag_64\n      jumpi\n        /* \"#utility.yul\":804:883   */\n      tag_65\n      tag_32\n      jump\t// in\n    tag_65:\n        /* \"#utility.yul\":766:885   */\n    tag_64:\n        /* \"#utility.yul\":924:925   */\n      0x00\n        /* \"#utility.yul\":949:1002   */\n      tag_66\n        /* \"#utility.yul\":994:1001   */\n      dup5\n        /* \"#utility.yul\":985:991   */\n      dup3\n        /* \"#utility.yul\":974:983   */\n      dup6\n        /* \"#utility.yul\":970:992   */\n      add\n        /* \"#utility.yul\":949:1002   */\n      tag_36\n      jump\t// in\n    tag_66:\n        /* \"#utility.yul\":939:1002   */\n      swap2\n      pop\n        /* \"#utility.yul\":895:1012   */\n      pop\n        /* \"#utility.yul\":690:1019   */\n      swap3\n      swap2\n      pop\n      pop\n      jump\t// out\n        /* \"#utility.yul\":1025:1151   */\n    tag_37:\n        /* \"#utility.yul\":1062:1069   */\n      0x00\n        /* \"#utility.yul\":1102:1144   */\n      0xffffffffffffffffffffffffffffffffffffffff\n        /* \"#utility.yul\":1095:1100   */\n      dup3\n        /* \"#utility.yul\":1091:1145   */\n      and\n        /* \"#utility.yul\":1080:1145   */\n      swap1\n      pop\n        /* \"#utility.yul\":1025:1151   */\n      swap2\n      swap1\n      pop\n      jump\t// out\n        /* \"#utility.yul\":1157:1217   */\n    tag_38:\n        /* \"#utility.yul\":1185:1188   */\n      0x00\n        /* \"#utility.yul\":1206:1211   */\n      dup2\n        /* \"#utility.yul\":1199:1211   */\n      swap1\n      pop\n        /* \"#utility.yul\":1157:1217   */\n      swap2\n      swap1\n      pop\n      jump\t// out\n        /* \"#utility.yul\":1223:1365   */\n    tag_39:\n        /* \"#utility.yul\":1273:1282   */\n      0x00\n        /* \"#utility.yul\":1306:1359   */\n      tag_70\n        /* \"#utility.yul\":1324:1358   */\n      tag_71\n        /* \"#utility.yul\":1333:1357   */\n      tag_72\n        /* \"#utility.yul\":1351:1356   */\n      dup5\n        /* \"#utility.yul\":1333:1357   */\n      tag_37\n      jump\t// in\n    tag_72:\n        /* \"#utility.yul\":1324:1358   */\n      tag_38\n      jump\t// in\n    tag_71:\n        /* \"#utility.yul\":1306:1359   */\n      tag_37\n      jump\t// in\n    tag_70:\n        /* \"#utility.yul\":1293:1359   */\n      swap1\n      pop\n        /* \"#utility.yul\":1223:1365   */\n      swap2\n      swap1\n      pop\n      jump\t// out\n        /* \"#utility.yul\":1371:1497   */\n    tag_40:\n        /* \"#utility.yul\":1421:1430   */\n      0x00\n        /* \"#utility.yul\":1454:1491   */\n      tag_74\n        /* \"#utility.yul\":1485:1490   */\n      dup3\n        /* \"#utility.yul\":1454:1491   */\n      tag_39\n      jump\t// in\n    tag_74:\n        /* \"#utility.yul\":1441:1491   */\n      swap1\n      pop\n        /* \"#utility.yul\":1371:1497   */\n      swap2\n      swap1\n      pop\n      jump\t// out\n        /* \"#utility.yul\":1503:1645   */\n    tag_41:\n        /* \"#utility.yul\":1569:1578   */\n      0x00\n        /* \"#utility.yul\":1602:1639   */\n      tag_76\n        /* \"#utility.yul\":1633:1638   */\n      dup3\n        /* \"#utility.yul\":1602:1639   */\n      tag_40\n      jump\t// in\n    tag_76:\n        /* \"#utility.yul\":1589:1639   */\n      swap1\n      pop\n        /* \"#utility.yul\":1503:1645   */\n      swap2\n      swap1\n      pop\n      jump\t// out\n        /* \"#utility.yul\":1651:1814   */\n    tag_42:\n        /* \"#utility.yul\":1754:1807   */\n      tag_78\n        /* \"#utility.yul\":1801:1806   */\n      dup2\n        /* \"#utility.yul\":1754:1807   */\n      tag_41\n      jump\t// in\n    tag_78:\n        /* \"#utility.yul\":1749:1752   */\n      dup3\n        /* \"#utility.yul\":1742:1808   */\n      mstore\n        /* \"#utility.yul\":1651:1814   */\n      pop\n      pop\n      jump\t// out\n        /* \"#utility.yul\":1820:2074   */\n    tag_11:\n        /* \"#utility.yul\":1929:1933   */\n      0x00\n        /* \"#utility.yul\":1967:1969   */\n      0x20\n        /* \"#utility.yul\":1956:1965   */\n      dup3\n        /* \"#utility.yul\":1952:1970   */\n      add\n        /* \"#utility.yul\":1944:1970   */\n      swap1\n      pop\n        /* \"#utility.yul\":1980:2067   */\n      tag_80\n        /* \"#utility.yul\":2064:2065   */\n      0x00\n        /* \"#utility.yul\":2053:2062   */\n      dup4\n        /* \"#utility.yul\":2049:2066   */\n      add\n        /* \"#utility.yul\":2040:2046   */\n      dup5\n        /* \"#utility.yul\":1980:2067   */\n      tag_42\n      jump\t// in\n    tag_80:\n        /* \"#utility.yul\":1820:2074   */\n      swap3\n      swap2\n      pop\n      pop\n      jump\t// out\n        /* \"#utility.yul\":2080:2210   */\n    tag_43:\n        /* \"#utility.yul\":2163:2169   */\n      0x00\n        /* \"#utility.yul\":2197:2202   */\n      dup2\n        /* \"#utility.yul\":2191:2203   */\n      mload\n        /* \"#utility.yul\":2181:2203   */\n      swap1\n      pop\n        /* \"#utility.yul\":2080:2210   */\n      swap2\n      swap1\n      pop\n      jump\t// out\n        /* \"#utility.yul\":2216:2400   */\n    tag_44:\n        /* \"#utility.yul\":2315:2326   */\n      0x00\n        /* \"#utility.yul\":2349:2355   */\n      dup3\n        /* \"#utility.yul\":2344:2347   */\n      dup3\n        /* \"#utility.yul\":2337:2356   */\n      mstore\n        /* \"#utility.yul\":2389:2393   */\n      0x20\n        /* \"#utility.yul\":2384:2387   */\n      dup3\n        /* \"#utility.yul\":2380:2394   */\n      add\n        /* \"#utility.yul\":2365:2394   */\n      swap1\n      pop\n        /* \"#utility.yul\":2216:2400   */\n      swap3\n      swap2\n      pop\n      pop\n      jump\t// out\n        /* \"#utility.yul\":2406:2554   */\n    tag_45:\n        /* \"#utility.yul\":2489:2493   */\n      0x00\n        /* \"#utility.yul\":2512:2515   */\n      dup2\n        /* \"#utility.yul\":2504:2515   */\n      swap1\n      pop\n        /* \"#utility.yul\":2542:2546   */\n      0x20\n        /* \"#utility.yul\":2537:2540   */\n      dup3\n        /* \"#utility.yul\":2533:2547   */\n      add\n        /* \"#utility.yul\":2525:2547   */\n      swap1\n      pop\n        /* \"#utility.yul\":2406:2554   */\n      swap2\n      swap1\n      pop\n      jump\t// out\n        /* \"#utility.yul\":2560:2713   */\n    tag_46:\n        /* \"#utility.yul\":2653:2706   */\n      tag_85\n        /* \"#utility.yul\":2700:2705   */\n      dup2\n        /* \"#utility.yul\":2653:2706   */\n      tag_41\n      jump\t// in\n    tag_85:\n        /* \"#utility.yul\":2648:2651   */\n      dup3\n        /* \"#utility.yul\":2641:2707   */\n      mstore\n        /* \"#utility.yul\":2560:2713   */\n      pop\n      pop\n      jump\t// out\n        /* \"#utility.yul\":2719:2930   */\n    tag_47:\n        /* \"#utility.yul\":2804:2814   */\n      0x00\n        /* \"#utility.yul\":2825:2887   */\n      tag_87\n        /* \"#utility.yul\":2883:2886   */\n      dup4\n        /* \"#utility.yul\":2875:2881   */\n      dup4\n        /* \"#utility.yul\":2825:2887   */\n      tag_46\n      jump\t// in\n    tag_87:\n        /* \"#utility.yul\":2919:2923   */\n      0x20\n        /* \"#utility.yul\":2914:2917   */\n      dup4\n        /* \"#utility.yul\":2910:2924   */\n      add\n        /* \"#utility.yul\":2896:2924   */\n      swap1\n      pop\n        /* \"#utility.yul\":2719:2930   */\n      swap3\n      swap2\n      pop\n      pop\n      jump\t// out\n        /* \"#utility.yul\":2936:3065   */\n    tag_48:\n        /* \"#utility.yul\":3022:3026   */\n      0x00\n        /* \"#utility.yul\":3054:3058   */\n      0x20\n        /* \"#utility.yul\":3049:3052   */\n      dup3\n        /* \"#utility.yul\":3045:3059   */\n      add\n        /* \"#utility.yul\":3037:3059   */\n      swap1\n      pop\n        /* \"#utility.yul\":2936:3065   */\n      swap2\n      swap1\n      pop\n      jump\t// out\n        /* \"#utility.yul\":3111:3923   */\n    tag_49:\n        /* \"#utility.yul\":3246:3249   */\n      0x00\n        /* \"#utility.yul\":3275:3345   */\n      tag_90\n        /* \"#utility.yul\":3339:3344   */\n      dup3\n        /* \"#utility.yul\":3275:3345   */\n      tag_43\n      jump\t// in\n    tag_90:\n        /* \"#utility.yul\":3361:3447   */\n      tag_91\n        /* \"#utility.yul\":3440:3446   */\n      dup2\n        /* \"#utility.yul\":3435:3438   */\n      dup6\n        /* \"#utility.yul\":3361:3447   */\n      tag_44\n      jump\t// in\n    tag_91:\n        /* \"#utility.yul\":3354:3447   */\n      swap4\n      pop\n        /* \"#utility.yul\":3471:3543   */\n      tag_92\n        /* \"#utility.yul\":3537:3542   */\n      dup4\n        /* \"#utility.yul\":3471:3543   */\n      tag_45\n      jump\t// in\n    tag_92:\n        /* \"#utility.yul\":3566:3573   */\n      dup1\n        /* \"#utility.yul\":3597:3598   */\n      0x00\n        /* \"#utility.yul\":3582:3898   */\n    tag_93:\n        /* \"#utility.yul\":3607:3613   */\n      dup4\n        /* \"#utility.yul\":3604:3605   */\n      dup2\n        /* \"#utility.yul\":3601:3614   */\n      lt\n        /* \"#utility.yul\":3582:3898   */\n      iszero\n      tag_95\n      jumpi\n        /* \"#utility.yul\":3683:3689   */\n      dup2\n        /* \"#utility.yul\":3677:3690   */\n      mload\n        /* \"#utility.yul\":3710:3789   */\n      tag_96\n        /* \"#utility.yul\":3785:3788   */\n      dup9\n        /* \"#utility.yul\":3770:3783   */\n      dup3\n        /* \"#utility.yul\":3710:3789   */\n      tag_47\n      jump\t// in\n    tag_96:\n        /* \"#utility.yul\":3703:3789   */\n      swap8\n      pop\n        /* \"#utility.yul\":3812:3888   */\n      tag_97\n        /* \"#utility.yul\":3881:3887   */\n      dup4\n        /* \"#utility.yul\":3812:3888   */\n      tag_48\n      jump\t// in\n    tag_97:\n        /* \"#utility.yul\":3802:3888   */\n      swap3\n      pop\n        /* \"#utility.yul\":3642:3898   */\n      pop\n        /* \"#utility.yul\":3629:3630   */\n      0x01\n        /* \"#utility.yul\":3626:3627   */\n      dup2\n        /* \"#utility.yul\":3622:3631   */\n      add\n        /* \"#utility.yul\":3617:3631   */\n      swap1\n      pop\n        /* \"#utility.yul\":3582:3898   */\n      jump(tag_93)\n    tag_95:\n        /* \"#utility.yul\":3586:3600   */\n      pop\n        /* \"#utility.yul\":3914:3917   */\n      dup6\n        /* \"#utility.yul\":3907:3917   */\n      swap4\n      pop\n        /* \"#utility.yul\":3251:3923   */\n      pop\n      pop\n      pop\n        /* \"#utility.yul\":3111:3923   */\n      swap3\n      swap2\n      pop\n      pop\n      jump\t// out\n        /* \"#utility.yul\":3929:4334   */\n    tag_15:\n        /* \"#utility.yul\":4088:4092   */\n      0x00\n        /* \"#utility.yul\":4126:4128   */\n      0x20\n        /* \"#utility.yul\":4115:4124   */\n      dup3\n        /* \"#utility.yul\":4111:4129   */\n      add\n        /* \"#utility.yul\":4103:4129   */\n      swap1\n      pop\n        /* \"#utility.yul\":4175:4184   */\n      dup2\n        /* \"#utility.yul\":4169:4173   */\n      dup2\n        /* \"#utility.yul\":4165:4185   */\n      sub\n        /* \"#utility.yul\":4161:4162   */\n      0x00\n        /* \"#utility.yul\":4150:4159   */\n      dup4\n        /* \"#utility.yul\":4146:4163   */\n      add\n        /* \"#utility.yul\":4139:4186   */\n      mstore\n        /* \"#utility.yul\":4203:4327   */\n      tag_99\n        /* \"#utility.yul\":4322:4326   */\n      dup2\n        /* \"#utility.yul\":4313:4319   */\n      dup5\n        /* \"#utility.yul\":4203:4327   */\n      tag_49\n      jump\t// in\n    tag_99:\n        /* \"#utility.yul\":4195:4327   */\n      swap1\n      pop\n        /* \"#utility.yul\":3929:4334   */\n      swap3\n      swap2\n      pop\n      pop\n      jump\t// out\n        /* \"#utility.yul\":4340:4458   */\n    tag_50:\n        /* \"#utility.yul\":4427:4451   */\n      tag_101\n        /* \"#utility.yul\":4445:4450   */\n      dup2\n        /* \"#utility.yul\":4427:4451   */\n      tag_34\n      jump\t// in\n    tag_101:\n        /* \"#utility.yul\":4422:4425   */\n      dup3\n        /* \"#utility.yul\":4415:4452   */\n      mstore\n        /* \"#utility.yul\":4340:4458   */\n      pop\n      pop\n      jump\t// out\n        /* \"#utility.yul\":4464:4560   */\n    tag_51:\n        /* \"#utility.yul\":4501:4508   */\n      0x00\n        /* \"#utility.yul\":4530:4554   */\n      tag_103\n        /* \"#utility.yul\":4548:4553   */\n      dup3\n        /* \"#utility.yul\":4530:4554   */\n      tag_37\n      jump\t// in\n    tag_103:\n        /* \"#utility.yul\":4519:4554   */\n      swap1\n      pop\n        /* \"#utility.yul\":4464:4560   */\n      swap2\n      swap1\n      pop\n      jump\t// out\n        /* \"#utility.yul\":4566:4684   */\n    tag_52:\n        /* \"#utility.yul\":4653:4677   */\n      tag_105\n        /* \"#utility.yul\":4671:4676   */\n      dup2\n        /* \"#utility.yul\":4653:4677   */\n      tag_51\n      jump\t// in\n    tag_105:\n        /* \"#utility.yul\":4648:4651   */\n      dup3\n        /* \"#utility.yul\":4641:4678   */\n      mstore\n        /* \"#utility.yul\":4566:4684   */\n      pop\n      pop\n      jump\t// out\n        /* \"#utility.yul\":4690:5022   */\n    tag_28:\n        /* \"#utility.yul\":4811:4815   */\n      0x00\n        /* \"#utility.yul\":4849:4851   */\n      0x40\n        /* \"#utility.yul\":4838:4847   */\n      dup3\n        /* \"#utility.yul\":4834:4852   */\n      add\n        /* \"#utility.yul\":4826:4852   */\n      swap1\n      pop\n        /* \"#utility.yul\":4862:4933   */\n      tag_107\n        /* \"#utility.yul\":4930:4931   */\n      0x00\n        /* \"#utility.yul\":4919:4928   */\n      dup4\n        /* \"#utility.yul\":4915:4932   */\n      add\n        /* \"#utility.yul\":4906:4912   */\n      dup6\n        /* \"#utility.yul\":4862:4933   */\n      tag_50\n      jump\t// in\n    tag_107:\n        /* \"#utility.yul\":4943:5015   */\n      tag_108\n        /* \"#utility.yul\":5011:5013   */\n      0x20\n        /* \"#utility.yul\":5000:5009   */\n      dup4\n        /* \"#utility.yul\":4996:5014   */\n      add\n        /* \"#utility.yul\":4987:4993   */\n      dup5\n        /* \"#utility.yul\":4943:5015   */\n      tag_52\n      jump\t// in\n    tag_108:\n        /* \"#utility.yul\":4690:5022   */\n      swap4\n      swap3\n      pop\n      pop\n      pop\n      jump\t// out\n    stop\n\n    sub_0: assembly {\n            /* \"Campaign.sol\":445:2743  contract Campaign {... */\n          mstore(0x40, 0x80)\n            /* \"Campaign.sol\":904:1023  constructor(uint minimum, address creator) {... */\n          callvalue\n          dup1\n          iszero\n          tag_1\n          jumpi\n          revert(0x00, 0x00)\n        tag_1:\n          pop\n          mload(0x40)\n          sub(codesize, bytecodeSize)\n          dup1\n          bytecodeSize\n          dup4\n          codecopy\n          dup2\n          dup2\n          add\n          0x40\n          mstore\n          dup2\n          add\n          swap1\n          tag_2\n          swap2\n          swap1\n          tag_3\n          jump\t// in\n        tag_2:\n            /* \"Campaign.sol\":968:975  creator */\n          dup1\n            /* \"Campaign.sol\":958:965  manager */\n          0x01\n          0x00\n            /* \"Campaign.sol\":958:975  manager = creator */\n          0x0100\n          exp\n          dup2\n          sload\n          dup2\n          0xffffffffffffffffffffffffffffffffffffffff\n          mul\n          not\n          and\n          swap1\n          dup4\n          0xffffffffffffffffffffffffffffffffffffffff\n          and\n          mul\n          or\n          swap1\n          sstore\n          pop\n            /* \"Campaign.sol\":1008:1015  minimum */\n          dup2\n            /* \"Campaign.sol\":986:1005  minimumContribution */\n          0x02\n            /* \"Campaign.sol\":986:1015  minimumContribution = minimum */\n          dup2\n          swap1\n          sstore\n          pop\n            /* \"Campaign.sol\":904:1023  constructor(uint minimum, address creator) {... */\n          pop\n          pop\n            /* \"Campaign.sol\":445:2743  contract Campaign {... */\n          jump(tag_6)\n            /* \"#utility.yul\":88:205   */\n        tag_8:\n            /* \"#utility.yul\":197:198   */\n          0x00\n            /* \"#utility.yul\":194:195   */\n          0x00\n            /* \"#utility.yul\":187:199   */\n          revert\n            /* \"#utility.yul\":334:411   */\n        tag_10:\n            /* \"#utility.yul\":371:378   */\n          0x00\n            /* \"#utility.yul\":400:405   */\n          dup2\n            /* \"#utility.yul\":389:405   */\n          swap1\n          pop\n            /* \"#utility.yul\":334:411   */\n          swap2\n          swap1\n          pop\n          jump\t// out\n            /* \"#utility.yul\":417:539   */\n        tag_11:\n            /* \"#utility.yul\":490:514   */\n          tag_23\n            /* \"#utility.yul\":508:513   */\n          dup2\n            /* \"#utility.yul\":490:514   */\n          tag_10\n          jump\t// in\n        tag_23:\n            /* \"#utility.yul\":483:488   */\n          dup2\n            /* \"#utility.yul\":480:515   */\n          eq\n            /* \"#utility.yul\":470:533   */\n          tag_24\n          jumpi\n            /* \"#utility.yul\":529:530   */\n          0x00\n            /* \"#utility.yul\":526:527   */\n          0x00\n            /* \"#utility.yul\":519:531   */\n          revert\n            /* \"#utility.yul\":470:533   */\n        tag_24:\n            /* \"#utility.yul\":417:539   */\n          pop\n          jump\t// out\n            /* \"#utility.yul\":545:688   */\n        tag_12:\n            /* \"#utility.yul\":602:607   */\n          0x00\n            /* \"#utility.yul\":633:639   */\n          dup2\n            /* \"#utility.yul\":627:640   */\n          mload\n            /* \"#utility.yul\":618:640   */\n          swap1\n          pop\n            /* \"#utility.yul\":649:682   */\n          tag_26\n            /* \"#utility.yul\":676:681   */\n          dup2\n            /* \"#utility.yul\":649:682   */\n          tag_11\n          jump\t// in\n        tag_26:\n            /* \"#utility.yul\":545:688   */\n          swap3\n          swap2\n          pop\n          pop\n          jump\t// out\n            /* \"#utility.yul\":694:820   */\n        tag_13:\n            /* \"#utility.yul\":731:738   */\n          0x00\n            /* \"#utility.yul\":771:813   */\n          0xffffffffffffffffffffffffffffffffffffffff\n            /* \"#utility.yul\":764:769   */\n          dup3\n            /* \"#utility.yul\":760:814   */\n          and\n            /* \"#utility.yul\":749:814   */\n          swap1\n          pop\n            /* \"#utility.yul\":694:820   */\n          swap2\n          swap1\n          pop\n          jump\t// out\n            /* \"#utility.yul\":826:922   */\n        tag_14:\n            /* \"#utility.yul\":863:870   */\n          0x00\n            /* \"#utility.yul\":892:916   */\n          tag_29\n            /* \"#utility.yul\":910:915   */\n          dup3\n            /* \"#utility.yul\":892:916   */\n          tag_13\n          jump\t// in\n        tag_29:\n            /* \"#utility.yul\":881:916   */\n          swap1\n          pop\n            /* \"#utility.yul\":826:922   */\n          swap2\n          swap1\n          pop\n          jump\t// out\n            /* \"#utility.yul\":928:1050   */\n        tag_15:\n            /* \"#utility.yul\":1001:1025   */\n          tag_31\n            /* \"#utility.yul\":1019:1024   */\n          dup2\n            /* \"#utility.yul\":1001:1025   */\n          tag_14\n          jump\t// in\n        tag_31:\n            /* \"#utility.yul\":994:999   */\n          dup2\n            /* \"#utility.yul\":991:1026   */\n          eq\n            /* \"#utility.yul\":981:1044   */\n          tag_32\n          jumpi\n            /* \"#utility.yul\":1040:1041   */\n          0x00\n            /* \"#utility.yul\":1037:1038   */\n          0x00\n            /* \"#utility.yul\":1030:1042   */\n          revert\n            /* \"#utility.yul\":981:1044   */\n        tag_32:\n            /* \"#utility.yul\":928:1050   */\n          pop\n          jump\t// out\n            /* \"#utility.yul\":1056:1199   */\n        tag_16:\n            /* \"#utility.yul\":1113:1118   */\n          0x00\n            /* \"#utility.yul\":1144:1150   */\n          dup2\n            /* \"#utility.yul\":1138:1151   */\n          mload\n            /* \"#utility.yul\":1129:1151   */\n          swap1\n          pop\n            /* \"#utility.yul\":1160:1193   */\n          tag_34\n            /* \"#utility.yul\":1187:1192   */\n          dup2\n            /* \"#utility.yul\":1160:1193   */\n          tag_15\n          jump\t// in\n        tag_34:\n            /* \"#utility.yul\":1056:1199   */\n          swap3\n          swap2\n          pop\n          pop\n          jump\t// out\n            /* \"#utility.yul\":1205:1712   */\n        tag_3:\n            /* \"#utility.yul\":1284:1290   */\n          0x00\n            /* \"#utility.yul\":1292:1298   */\n          0x00\n            /* \"#utility.yul\":1341:1343   */\n          0x40\n            /* \"#utility.yul\":1329:1338   */\n          dup4\n            /* \"#utility.yul\":1320:1327   */\n          dup6\n            /* \"#utility.yul\":1316:1339   */\n          sub\n            /* \"#utility.yul\":1312:1344   */\n          slt\n            /* \"#utility.yul\":1309:1428   */\n          iszero\n          tag_36\n          jumpi\n            /* \"#utility.yul\":1347:1426   */\n          tag_37\n          tag_8\n          jump\t// in\n        tag_37:\n            /* \"#utility.yul\":1309:1428   */\n        tag_36:\n            /* \"#utility.yul\":1467:1468   */\n          0x00\n            /* \"#utility.yul\":1492:1556   */\n          tag_38\n            /* \"#utility.yul\":1548:1555   */\n          dup6\n            /* \"#utility.yul\":1539:1545   */\n          dup3\n            /* \"#utility.yul\":1528:1537   */\n          dup7\n            /* \"#utility.yul\":1524:1546   */\n          add\n            /* \"#utility.yul\":1492:1556   */\n          tag_12\n          jump\t// in\n        tag_38:\n            /* \"#utility.yul\":1482:1556   */\n          swap3\n          pop\n            /* \"#utility.yul\":1438:1566   */\n          pop\n            /* \"#utility.yul\":1605:1607   */\n          0x20\n            /* \"#utility.yul\":1631:1695   */\n          tag_39\n            /* \"#utility.yul\":1687:1694   */\n          dup6\n            /* \"#utility.yul\":1678:1684   */\n          dup3\n            /* \"#utility.yul\":1667:1676   */\n          dup7\n            /* \"#utility.yul\":1663:1685   */\n          add\n            /* \"#utility.yul\":1631:1695   */\n          tag_16\n          jump\t// in\n        tag_39:\n            /* \"#utility.yul\":1621:1695   */\n          swap2\n          pop\n            /* \"#utility.yul\":1576:1705   */\n          pop\n            /* \"#utility.yul\":1205:1712   */\n          swap3\n          pop\n          swap3\n          swap1\n          pop\n          jump\t// out\n            /* \"Campaign.sol\":445:2743  contract Campaign {... */\n        tag_6:\n          dataSize(sub_0)\n          dup1\n          dataOffset(sub_0)\n          0x00\n          codecopy\n          0x00\n          return\n        stop\n\n        sub_0: assembly {\n                /* \"Campaign.sol\":445:2743  contract Campaign {... */\n              mstore(0x40, 0x80)\n              jumpi(tag_1, lt(calldatasize, 0x04))\n              shr(0xe0, calldataload(0x00))\n              dup1\n              0x8a9cfd55\n              gt\n              tag_10\n              jumpi\n              dup1\n              0x8a9cfd55\n              eq\n              tag_6\n              jumpi\n              dup1\n              0x937e09b1\n              eq\n              tag_7\n              jumpi\n              dup1\n              0xd7bb99ba\n              eq\n              tag_8\n              jumpi\n              dup1\n              0xd7d1bbdb\n              eq\n              tag_9\n              jumpi\n              jump(tag_1)\n            tag_10:\n              dup1\n              0x03441006\n              eq\n              tag_2\n              jumpi\n              dup1\n              0x0a144391\n              eq\n              tag_3\n              jumpi\n              dup1\n              0x481c6a75\n              eq\n              tag_4\n              jumpi\n              dup1\n              0x81d12c58\n              eq\n              tag_5\n              jumpi\n            tag_1:\n              revert(0x00, 0x00)\n                /* \"Campaign.sol\":2096:2557  function finalizeRequest(uint index) public restricted payable{... */\n            tag_2:\n              tag_11\n              0x04\n              dup1\n              calldatasize\n              sub\n              dup2\n              add\n              swap1\n              tag_12\n              swap2\n              swap1\n              tag_13\n              jump\t// in\n            tag_12:\n              tag_14\n              jump\t// in\n            tag_11:\n              stop\n                /* \"Campaign.sol\":805:846  mapping(address => bool) public approvers */\n            tag_3:\n              callvalue\n              dup1\n              iszero\n              tag_15\n              jumpi\n              revert(0x00, 0x00)\n            tag_15:\n              pop\n              tag_16\n              0x04\n              dup1\n              calldatasize\n              sub\n              dup2\n              add\n              swap1\n              tag_17\n              swap2\n              swap1\n              tag_18\n              jump\t// in\n            tag_17:\n              tag_19\n              jump\t// in\n            tag_16:\n              mload(0x40)\n              tag_20\n              swap2\n              swap1\n              tag_21\n              jump\t// in\n            tag_20:\n              mload(0x40)\n              dup1\n              swap2\n              sub\n              swap1\n              return\n                /* \"Campaign.sol\":738:760  address public manager */\n            tag_4:\n              callvalue\n              dup1\n              iszero\n              tag_22\n              jumpi\n              revert(0x00, 0x00)\n            tag_22:\n              pop\n              tag_23\n              tag_24\n              jump\t// in\n            tag_23:\n              mload(0x40)\n              tag_25\n              swap2\n              swap1\n              tag_26\n              jump\t// in\n            tag_25:\n              mload(0x40)\n              dup1\n              swap2\n              sub\n              swap1\n              return\n                /* \"Campaign.sol\":691:731  mapping(uint => Request) public requests */\n            tag_5:\n              callvalue\n              dup1\n              iszero\n              tag_27\n              jumpi\n              revert(0x00, 0x00)\n            tag_27:\n              pop\n              tag_28\n              0x04\n              dup1\n              calldatasize\n              sub\n              dup2\n              add\n              swap1\n              tag_29\n              swap2\n              swap1\n              tag_13\n              jump\t// in\n            tag_29:\n              tag_30\n              jump\t// in\n            tag_28:\n              mload(0x40)\n              tag_31\n              swap6\n              swap5\n              swap4\n              swap3\n              swap2\n              swap1\n              tag_32\n              jump\t// in\n            tag_31:\n              mload(0x40)\n              dup1\n              swap2\n              sub\n              swap1\n              return\n                /* \"Campaign.sol\":1278:1607  function createRequest(string memory description, uint256 value, address payable recipient) public restricted {... */\n            tag_6:\n              callvalue\n              dup1\n              iszero\n              tag_33\n              jumpi\n              revert(0x00, 0x00)\n            tag_33:\n              pop\n              tag_34\n              0x04\n              dup1\n              calldatasize\n              sub\n              dup2\n              add\n              swap1\n              tag_35\n              swap2\n              swap1\n              tag_36\n              jump\t// in\n            tag_35:\n              tag_37\n              jump\t// in\n            tag_34:\n              stop\n                /* \"Campaign.sol\":767:798  uint public minimumContribution */\n            tag_7:\n              callvalue\n              dup1\n              iszero\n              tag_38\n              jumpi\n              revert(0x00, 0x00)\n            tag_38:\n              pop\n              tag_39\n              tag_40\n              jump\t// in\n            tag_39:\n              mload(0x40)\n              tag_41\n              swap2\n              swap1\n              tag_42\n              jump\t// in\n            tag_41:\n              mload(0x40)\n              dup1\n              swap2\n              sub\n              swap1\n              return\n                /* \"Campaign.sol\":1031:1272  function contribute() public payable {... */\n            tag_8:\n              tag_43\n              tag_44\n              jump\t// in\n            tag_43:\n              stop\n                /* \"Campaign.sol\":1615:2088  function approveRequest(uint index) public {... */\n            tag_9:\n              callvalue\n              dup1\n              iszero\n              tag_45\n              jumpi\n              revert(0x00, 0x00)\n            tag_45:\n              pop\n              tag_46\n              0x04\n              dup1\n              calldatasize\n              sub\n              dup2\n              add\n              swap1\n              tag_47\n              swap2\n              swap1\n              tag_13\n              jump\t// in\n            tag_47:\n              tag_48\n              jump\t// in\n            tag_46:\n              stop\n                /* \"Campaign.sol\":2096:2557  function finalizeRequest(uint index) public restricted payable{... */\n            tag_14:\n                /* \"Campaign.sol\":2634:2641  manager */\n              0x01\n              0x00\n              swap1\n              sload\n              swap1\n              0x0100\n              exp\n              swap1\n              div\n              0xffffffffffffffffffffffffffffffffffffffff\n              and\n                /* \"Campaign.sol\":2620:2641  msg.sender == manager */\n              0xffffffffffffffffffffffffffffffffffffffff\n              and\n                /* \"Campaign.sol\":2620:2630  msg.sender */\n              caller\n                /* \"Campaign.sol\":2620:2641  msg.sender == manager */\n              0xffffffffffffffffffffffffffffffffffffffff\n              and\n              eq\n                /* \"Campaign.sol\":2598:2718  require(... */\n              tag_50\n              jumpi\n              mload(0x40)\n              0x08c379a000000000000000000000000000000000000000000000000000000000\n              dup2\n              mstore\n              0x04\n              add\n              tag_51\n              swap1\n              tag_52\n              jump\t// in\n            tag_51:\n              mload(0x40)\n              dup1\n              swap2\n              sub\n              swap1\n              revert\n            tag_50:\n                /* \"Campaign.sol\":2169:2192  Request storage request */\n              0x00\n                /* \"Campaign.sol\":2195:2203  requests */\n              0x00\n                /* \"Campaign.sol\":2195:2210  requests[index] */\n              0x00\n                /* \"Campaign.sol\":2204:2209  index */\n              dup4\n                /* \"Campaign.sol\":2195:2210  requests[index] */\n              dup2\n              mstore\n              0x20\n              add\n              swap1\n              dup2\n              mstore\n              0x20\n              add\n              0x00\n              keccak256\n                /* \"Campaign.sol\":2169:2210  Request storage request = requests[index] */\n              swap1\n              pop\n                /* \"Campaign.sol\":2287:2288  2 */\n              0x02\n                /* \"Campaign.sol\":2270:2284  approversCount */\n              sload(0x05)\n                /* \"Campaign.sol\":2270:2288  approversCount / 2 */\n              tag_54\n              swap2\n              swap1\n              tag_55\n              jump\t// in\n            tag_54:\n                /* \"Campaign.sol\":2245:2252  request */\n              dup2\n                /* \"Campaign.sol\":2245:2266  request.approvalCount */\n              0x03\n              add\n              sload\n                /* \"Campaign.sol\":2245:2289  request.approvalCount > (approversCount / 2) */\n              gt\n                /* \"Campaign.sol\":2223:2377  require(... */\n              tag_56\n              jumpi\n              mload(0x40)\n              0x08c379a000000000000000000000000000000000000000000000000000000000\n              dup2\n              mstore\n              0x04\n              add\n              tag_57\n              swap1\n              tag_58\n              jump\t// in\n            tag_57:\n              mload(0x40)\n              dup1\n              swap2\n              sub\n              swap1\n              revert\n            tag_56:\n                /* \"Campaign.sol\":2400:2407  request */\n              dup1\n                /* \"Campaign.sol\":2400:2416  request.complete */\n              0x02\n              add\n              0x14\n              swap1\n              sload\n              swap1\n              0x0100\n              exp\n              swap1\n              div\n              0xff\n              and\n                /* \"Campaign.sol\":2398:2417  !(request.complete) */\n              iszero\n                /* \"Campaign.sol\":2390:2461  require(!(request.complete), \"This request has already been finalized\") */\n              tag_59\n              jumpi\n              mload(0x40)\n              0x08c379a000000000000000000000000000000000000000000000000000000000\n              dup2\n              mstore\n              0x04\n              add\n              tag_60\n              swap1\n              tag_61\n              jump\t// in\n            tag_60:\n              mload(0x40)\n              dup1\n              swap2\n              sub\n              swap1\n              revert\n            tag_59:\n                /* \"Campaign.sol\":2474:2481  request */\n              dup1\n                /* \"Campaign.sol\":2474:2491  request.recipient */\n              0x02\n              add\n              0x00\n              swap1\n              sload\n              swap1\n              0x0100\n              exp\n              swap1\n              div\n              0xffffffffffffffffffffffffffffffffffffffff\n              and\n                /* \"Campaign.sol\":2474:2500  request.recipient.transfer */\n              0xffffffffffffffffffffffffffffffffffffffff\n              and\n                /* \"Campaign.sol\":2474:2515  request.recipient.transfer(request.value) */\n              0x08fc\n                /* \"Campaign.sol\":2501:2508  request */\n              dup3\n                /* \"Campaign.sol\":2501:2514  request.value */\n              0x01\n              add\n              sload\n                /* \"Campaign.sol\":2474:2515  request.recipient.transfer(request.value) */\n              swap1\n              dup2\n              iszero\n              mul\n              swap1\n              mload(0x40)\n              0x00\n              mload(0x40)\n              dup1\n              dup4\n              sub\n              dup2\n              dup6\n              dup9\n              dup9\n              call\n              swap4\n              pop\n              pop\n              pop\n              pop\n              iszero\n              dup1\n              iszero\n              tag_63\n              jumpi\n              returndatacopy(0x00, 0x00, returndatasize)\n              revert(0x00, returndatasize)\n            tag_63:\n              pop\n                /* \"Campaign.sol\":2545:2549  true */\n              0x01\n                /* \"Campaign.sol\":2526:2533  request */\n              dup2\n                /* \"Campaign.sol\":2526:2542  request.complete */\n              0x02\n              add\n              0x14\n                /* \"Campaign.sol\":2526:2549  request.complete = true */\n              0x0100\n              exp\n              dup2\n              sload\n              dup2\n              0xff\n              mul\n              not\n              and\n              swap1\n              dup4\n              iszero\n              iszero\n              mul\n              or\n              swap1\n              sstore\n              pop\n                /* \"Campaign.sol\":2158:2557  {... */\n              pop\n                /* \"Campaign.sol\":2096:2557  function finalizeRequest(uint index) public restricted payable{... */\n              pop\n              jump\t// out\n                /* \"Campaign.sol\":805:846  mapping(address => bool) public approvers */\n            tag_19:\n              mstore(0x20, 0x03)\n              dup1\n              0x00\n              mstore\n              keccak256(0x00, 0x40)\n              0x00\n              swap2\n              pop\n              sload\n              swap1\n              0x0100\n              exp\n              swap1\n              div\n              0xff\n              and\n              dup2\n              jump\t// out\n                /* \"Campaign.sol\":738:760  address public manager */\n            tag_24:\n              0x01\n              0x00\n              swap1\n              sload\n              swap1\n              0x0100\n              exp\n              swap1\n              div\n              0xffffffffffffffffffffffffffffffffffffffff\n              and\n              dup2\n              jump\t// out\n                /* \"Campaign.sol\":691:731  mapping(uint => Request) public requests */\n            tag_30:\n              mstore(0x20, 0x00)\n              dup1\n              0x00\n              mstore\n              keccak256(0x00, 0x40)\n              0x00\n              swap2\n              pop\n              swap1\n              pop\n              dup1\n              0x00\n              add\n              dup1\n              sload\n              tag_64\n              swap1\n              tag_65\n              jump\t// in\n            tag_64:\n              dup1\n              0x1f\n              add\n              0x20\n              dup1\n              swap2\n              div\n              mul\n              0x20\n              add\n              mload(0x40)\n              swap1\n              dup2\n              add\n              0x40\n              mstore\n              dup1\n              swap3\n              swap2\n              swap1\n              dup2\n              dup2\n              mstore\n              0x20\n              add\n              dup3\n              dup1\n              sload\n              tag_66\n              swap1\n              tag_65\n              jump\t// in\n            tag_66:\n              dup1\n              iszero\n              tag_67\n              jumpi\n              dup1\n              0x1f\n              lt\n              tag_68\n              jumpi\n              0x0100\n              dup1\n              dup4\n              sload\n              div\n              mul\n              dup4\n              mstore\n              swap2\n              0x20\n              add\n              swap2\n              jump(tag_67)\n            tag_68:\n              dup3\n              add\n              swap2\n              swap1\n              0x00\n              mstore\n              keccak256(0x00, 0x20)\n              swap1\n            tag_69:\n              dup2\n              sload\n              dup2\n              mstore\n              swap1\n              0x01\n              add\n              swap1\n              0x20\n              add\n              dup1\n              dup4\n              gt\n              tag_69\n              jumpi\n              dup3\n              swap1\n              sub\n              0x1f\n              and\n              dup3\n              add\n              swap2\n            tag_67:\n              pop\n              pop\n              pop\n              pop\n              pop\n              swap1\n              dup1\n              0x01\n              add\n              sload\n              swap1\n              dup1\n              0x02\n              add\n              0x00\n              swap1\n              sload\n              swap1\n              0x0100\n              exp\n              swap1\n              div\n              0xffffffffffffffffffffffffffffffffffffffff\n              and\n              swap1\n              dup1\n              0x02\n              add\n              0x14\n              swap1\n              sload\n              swap1\n              0x0100\n              exp\n              swap1\n              div\n              0xff\n              and\n              swap1\n              dup1\n              0x03\n              add\n              sload\n              swap1\n              pop\n              dup6\n              jump\t// out\n                /* \"Campaign.sol\":1278:1607  function createRequest(string memory description, uint256 value, address payable recipient) public restricted {... */\n            tag_37:\n                /* \"Campaign.sol\":2634:2641  manager */\n              0x01\n              0x00\n              swap1\n              sload\n              swap1\n              0x0100\n              exp\n              swap1\n              div\n              0xffffffffffffffffffffffffffffffffffffffff\n              and\n                /* \"Campaign.sol\":2620:2641  msg.sender == manager */\n              0xffffffffffffffffffffffffffffffffffffffff\n              and\n                /* \"Campaign.sol\":2620:2630  msg.sender */\n              caller\n                /* \"Campaign.sol\":2620:2641  msg.sender == manager */\n              0xffffffffffffffffffffffffffffffffffffffff\n              and\n              eq\n                /* \"Campaign.sol\":2598:2718  require(... */\n              tag_71\n              jumpi\n              mload(0x40)\n              0x08c379a000000000000000000000000000000000000000000000000000000000\n              dup2\n              mstore\n              0x04\n              add\n              tag_72\n              swap1\n              tag_52\n              jump\t// in\n            tag_72:\n              mload(0x40)\n              dup1\n              swap2\n              sub\n              swap1\n              revert\n            tag_71:\n                /* \"Campaign.sol\":1399:1416  Request storage r */\n              0x00\n                /* \"Campaign.sol\":1419:1427  requests */\n              0x00\n                /* \"Campaign.sol\":1419:1442  requests[numRequests++] */\n              0x00\n                /* \"Campaign.sol\":1428:1439  numRequests */\n              0x04\n              0x00\n                /* \"Campaign.sol\":1428:1441  numRequests++ */\n              dup2\n              sload\n              dup1\n              swap3\n              swap2\n              swap1\n              tag_74\n              swap1\n              tag_75\n              jump\t// in\n            tag_74:\n              swap2\n              swap1\n              pop\n              sstore\n                /* \"Campaign.sol\":1419:1442  requests[numRequests++] */\n              dup2\n              mstore\n              0x20\n              add\n              swap1\n              dup2\n              mstore\n              0x20\n              add\n              0x00\n              keccak256\n                /* \"Campaign.sol\":1399:1442  Request storage r = requests[numRequests++] */\n              swap1\n              pop\n                /* \"Campaign.sol\":1469:1480  description */\n              dup4\n                /* \"Campaign.sol\":1453:1454  r */\n              dup2\n                /* \"Campaign.sol\":1453:1466  r.description */\n              0x00\n              add\n                /* \"Campaign.sol\":1453:1480  r.description = description */\n              swap1\n              dup2\n              tag_76\n              swap2\n              swap1\n              tag_77\n              jump\t// in\n            tag_76:\n              pop\n                /* \"Campaign.sol\":1501:1506  value */\n              dup3\n                /* \"Campaign.sol\":1491:1492  r */\n              dup2\n                /* \"Campaign.sol\":1491:1498  r.value */\n              0x01\n              add\n                /* \"Campaign.sol\":1491:1506  r.value = value */\n              dup2\n              swap1\n              sstore\n              pop\n                /* \"Campaign.sol\":1531:1540  recipient */\n              dup2\n                /* \"Campaign.sol\":1517:1518  r */\n              dup2\n                /* \"Campaign.sol\":1517:1528  r.recipient */\n              0x02\n              add\n              0x00\n                /* \"Campaign.sol\":1517:1540  r.recipient = recipient */\n              0x0100\n              exp\n              dup2\n              sload\n              dup2\n              0xffffffffffffffffffffffffffffffffffffffff\n              mul\n              not\n              and\n              swap1\n              dup4\n              0xffffffffffffffffffffffffffffffffffffffff\n              and\n              mul\n              or\n              swap1\n              sstore\n              pop\n                /* \"Campaign.sol\":1564:1569  false */\n              0x00\n                /* \"Campaign.sol\":1551:1552  r */\n              dup2\n                /* \"Campaign.sol\":1551:1561  r.complete */\n              0x02\n              add\n              0x14\n                /* \"Campaign.sol\":1551:1569  r.complete = false */\n              0x0100\n              exp\n              dup2\n              sload\n              dup2\n              0xff\n              mul\n              not\n              and\n              swap1\n              dup4\n              iszero\n              iszero\n              mul\n              or\n              swap1\n              sstore\n              pop\n                /* \"Campaign.sol\":1598:1599  0 */\n              0x00\n                /* \"Campaign.sol\":1580:1581  r */\n              dup2\n                /* \"Campaign.sol\":1580:1595  r.approvalCount */\n              0x03\n              add\n                /* \"Campaign.sol\":1580:1599  r.approvalCount = 0 */\n              dup2\n              swap1\n              sstore\n              pop\n                /* \"Campaign.sol\":1388:1607  {... */\n              pop\n                /* \"Campaign.sol\":1278:1607  function createRequest(string memory description, uint256 value, address payable recipient) public restricted {... */\n              pop\n              pop\n              pop\n              jump\t// out\n                /* \"Campaign.sol\":767:798  uint public minimumContribution */\n            tag_40:\n              sload(0x02)\n              dup2\n              jump\t// out\n                /* \"Campaign.sol\":1031:1272  function contribute() public payable {... */\n            tag_44:\n                /* \"Campaign.sol\":1114:1133  minimumContribution */\n              sload(0x02)\n                /* \"Campaign.sol\":1101:1110  msg.value */\n              callvalue\n                /* \"Campaign.sol\":1101:1133  msg.value >= minimumContribution */\n              lt\n              iszero\n                /* \"Campaign.sol\":1079:1196  require(... */\n              tag_79\n              jumpi\n              mload(0x40)\n              0x08c379a000000000000000000000000000000000000000000000000000000000\n              dup2\n              mstore\n              0x04\n              add\n              tag_80\n              swap1\n              tag_81\n              jump\t// in\n            tag_80:\n              mload(0x40)\n              dup1\n              swap2\n              sub\n              swap1\n              revert\n            tag_79:\n                /* \"Campaign.sol\":1233:1237  true */\n              0x01\n                /* \"Campaign.sol\":1209:1218  approvers */\n              0x03\n                /* \"Campaign.sol\":1209:1230  approvers[msg.sender] */\n              0x00\n                /* \"Campaign.sol\":1219:1229  msg.sender */\n              caller\n                /* \"Campaign.sol\":1209:1230  approvers[msg.sender] */\n              0xffffffffffffffffffffffffffffffffffffffff\n              and\n              0xffffffffffffffffffffffffffffffffffffffff\n              and\n              dup2\n              mstore\n              0x20\n              add\n              swap1\n              dup2\n              mstore\n              0x20\n              add\n              0x00\n              keccak256\n              0x00\n                /* \"Campaign.sol\":1209:1237  approvers[msg.sender] = true */\n              0x0100\n              exp\n              dup2\n              sload\n              dup2\n              0xff\n              mul\n              not\n              and\n              swap1\n              dup4\n              iszero\n              iszero\n              mul\n              or\n              swap1\n              sstore\n              pop\n                /* \"Campaign.sol\":1248:1262  approversCount */\n              0x05\n              0x00\n                /* \"Campaign.sol\":1248:1264  approversCount++ */\n              dup2\n              sload\n              dup1\n              swap3\n              swap2\n              swap1\n              tag_82\n              swap1\n              tag_75\n              jump\t// in\n            tag_82:\n              swap2\n              swap1\n              pop\n              sstore\n              pop\n                /* \"Campaign.sol\":1031:1272  function contribute() public payable {... */\n              jump\t// out\n                /* \"Campaign.sol\":1615:2088  function approveRequest(uint index) public {... */\n            tag_48:\n                /* \"Campaign.sol\":1669:1692  Request storage request */\n              0x00\n                /* \"Campaign.sol\":1695:1703  requests */\n              0x00\n                /* \"Campaign.sol\":1695:1710  requests[index] */\n              0x00\n                /* \"Campaign.sol\":1704:1709  index */\n              dup4\n                /* \"Campaign.sol\":1695:1710  requests[index] */\n              dup2\n              mstore\n              0x20\n              add\n              swap1\n              dup2\n              mstore\n              0x20\n              add\n              0x00\n              keccak256\n                /* \"Campaign.sol\":1669:1710  Request storage request = requests[index] */\n              swap1\n              pop\n                /* \"Campaign.sol\":1743:1752  approvers */\n              0x03\n                /* \"Campaign.sol\":1743:1764  approvers[msg.sender] */\n              0x00\n                /* \"Campaign.sol\":1753:1763  msg.sender */\n              caller\n                /* \"Campaign.sol\":1743:1764  approvers[msg.sender] */\n              0xffffffffffffffffffffffffffffffffffffffff\n              and\n              0xffffffffffffffffffffffffffffffffffffffff\n              and\n              dup2\n              mstore\n              0x20\n              add\n              swap1\n              dup2\n              mstore\n              0x20\n              add\n              0x00\n              keccak256\n              0x00\n              swap1\n              sload\n              swap1\n              0x0100\n              exp\n              swap1\n              div\n              0xff\n              and\n                /* \"Campaign.sol\":1721:1848  require(... */\n              tag_84\n              jumpi\n              mload(0x40)\n              0x08c379a000000000000000000000000000000000000000000000000000000000\n              dup2\n              mstore\n              0x04\n              add\n              tag_85\n              swap1\n              tag_86\n              jump\t// in\n            tag_85:\n              mload(0x40)\n              dup1\n              swap2\n              sub\n              swap1\n              revert\n            tag_84:\n                /* \"Campaign.sol\":1882:1889  request */\n              dup1\n                /* \"Campaign.sol\":1882:1899  request.approvals */\n              0x04\n              add\n                /* \"Campaign.sol\":1882:1911  request.approvals[msg.sender] */\n              0x00\n                /* \"Campaign.sol\":1900:1910  msg.sender */\n              caller\n                /* \"Campaign.sol\":1882:1911  request.approvals[msg.sender] */\n              0xffffffffffffffffffffffffffffffffffffffff\n              and\n              0xffffffffffffffffffffffffffffffffffffffff\n              and\n              dup2\n              mstore\n              0x20\n              add\n              swap1\n              dup2\n              mstore\n              0x20\n              add\n              0x00\n              keccak256\n              0x00\n              swap1\n              sload\n              swap1\n              0x0100\n              exp\n              swap1\n              div\n              0xff\n              and\n                /* \"Campaign.sol\":1881:1911  !request.approvals[msg.sender] */\n              iszero\n                /* \"Campaign.sol\":1859:1985  require(... */\n              tag_87\n              jumpi\n              mload(0x40)\n              0x08c379a000000000000000000000000000000000000000000000000000000000\n              dup2\n              mstore\n              0x04\n              add\n              tag_88\n              swap1\n              tag_89\n              jump\t// in\n            tag_88:\n              mload(0x40)\n              dup1\n              swap2\n              sub\n              swap1\n              revert\n            tag_87:\n                /* \"Campaign.sol\":2030:2034  true */\n              0x01\n                /* \"Campaign.sol\":1998:2005  request */\n              dup2\n                /* \"Campaign.sol\":1998:2015  request.approvals */\n              0x04\n              add\n                /* \"Campaign.sol\":1998:2027  request.approvals[msg.sender] */\n              0x00\n                /* \"Campaign.sol\":2016:2026  msg.sender */\n              caller\n                /* \"Campaign.sol\":1998:2027  request.approvals[msg.sender] */\n              0xffffffffffffffffffffffffffffffffffffffff\n              and\n              0xffffffffffffffffffffffffffffffffffffffff\n              and\n              dup2\n              mstore\n              0x20\n              add\n              swap1\n              dup2\n              mstore\n              0x20\n              add\n              0x00\n              keccak256\n              0x00\n                /* \"Campaign.sol\":1998:2034  request.approvals[msg.sender] = true */\n              0x0100\n              exp\n              dup2\n              sload\n              dup2\n              0xff\n              mul\n              not\n              and\n              swap1\n              dup4\n              iszero\n              iszero\n              mul\n              or\n              swap1\n              sstore\n              pop\n                /* \"Campaign.sol\":2045:2052  request */\n              dup1\n                /* \"Campaign.sol\":2045:2066  request.approvalCount */\n              0x03\n              add\n              0x00\n                /* \"Campaign.sol\":2045:2068  request.approvalCount++ */\n              dup2\n              sload\n              dup1\n              swap3\n              swap2\n              swap1\n              tag_90\n              swap1\n              tag_75\n              jump\t// in\n            tag_90:\n              swap2\n              swap1\n              pop\n              sstore\n              pop\n                /* \"Campaign.sol\":1658:2088  {... */\n              pop\n                /* \"Campaign.sol\":1615:2088  function approveRequest(uint index) public {... */\n              pop\n              jump\t// out\n                /* \"#utility.yul\":7:82   */\n            tag_91:\n                /* \"#utility.yul\":40:46   */\n              0x00\n                /* \"#utility.yul\":73:75   */\n              0x40\n                /* \"#utility.yul\":67:76   */\n              mload\n                /* \"#utility.yul\":57:76   */\n              swap1\n              pop\n                /* \"#utility.yul\":7:82   */\n              swap1\n              jump\t// out\n                /* \"#utility.yul\":88:205   */\n            tag_92:\n                /* \"#utility.yul\":197:198   */\n              0x00\n                /* \"#utility.yul\":194:195   */\n              0x00\n                /* \"#utility.yul\":187:199   */\n              revert\n                /* \"#utility.yul\":211:328   */\n            tag_93:\n                /* \"#utility.yul\":320:321   */\n              0x00\n                /* \"#utility.yul\":317:318   */\n              0x00\n                /* \"#utility.yul\":310:322   */\n              revert\n                /* \"#utility.yul\":334:411   */\n            tag_94:\n                /* \"#utility.yul\":371:378   */\n              0x00\n                /* \"#utility.yul\":400:405   */\n              dup2\n                /* \"#utility.yul\":389:405   */\n              swap1\n              pop\n                /* \"#utility.yul\":334:411   */\n              swap2\n              swap1\n              pop\n              jump\t// out\n                /* \"#utility.yul\":417:539   */\n            tag_95:\n                /* \"#utility.yul\":490:514   */\n              tag_159\n                /* \"#utility.yul\":508:513   */\n              dup2\n                /* \"#utility.yul\":490:514   */\n              tag_94\n              jump\t// in\n            tag_159:\n                /* \"#utility.yul\":483:488   */\n              dup2\n                /* \"#utility.yul\":480:515   */\n              eq\n                /* \"#utility.yul\":470:533   */\n              tag_160\n              jumpi\n                /* \"#utility.yul\":529:530   */\n              0x00\n                /* \"#utility.yul\":526:527   */\n              0x00\n                /* \"#utility.yul\":519:531   */\n              revert\n                /* \"#utility.yul\":470:533   */\n            tag_160:\n                /* \"#utility.yul\":417:539   */\n              pop\n              jump\t// out\n                /* \"#utility.yul\":545:684   */\n            tag_96:\n                /* \"#utility.yul\":591:596   */\n              0x00\n                /* \"#utility.yul\":629:635   */\n              dup2\n                /* \"#utility.yul\":616:636   */\n              calldataload\n                /* \"#utility.yul\":607:636   */\n              swap1\n              pop\n                /* \"#utility.yul\":645:678   */\n              tag_162\n                /* \"#utility.yul\":672:677   */\n              dup2\n                /* \"#utility.yul\":645:678   */\n              tag_95\n              jump\t// in\n            tag_162:\n                /* \"#utility.yul\":545:684   */\n              swap3\n              swap2\n              pop\n              pop\n              jump\t// out\n                /* \"#utility.yul\":690:1019   */\n            tag_13:\n                /* \"#utility.yul\":749:755   */\n              0x00\n                /* \"#utility.yul\":798:800   */\n              0x20\n                /* \"#utility.yul\":786:795   */\n              dup3\n                /* \"#utility.yul\":777:784   */\n              dup5\n                /* \"#utility.yul\":773:796   */\n              sub\n                /* \"#utility.yul\":769:801   */\n              slt\n                /* \"#utility.yul\":766:885   */\n              iszero\n              tag_164\n              jumpi\n                /* \"#utility.yul\":804:883   */\n              tag_165\n              tag_92\n              jump\t// in\n            tag_165:\n                /* \"#utility.yul\":766:885   */\n            tag_164:\n                /* \"#utility.yul\":924:925   */\n              0x00\n                /* \"#utility.yul\":949:1002   */\n              tag_166\n                /* \"#utility.yul\":994:1001   */\n              dup5\n                /* \"#utility.yul\":985:991   */\n              dup3\n                /* \"#utility.yul\":974:983   */\n              dup6\n                /* \"#utility.yul\":970:992   */\n              add\n                /* \"#utility.yul\":949:1002   */\n              tag_96\n              jump\t// in\n            tag_166:\n                /* \"#utility.yul\":939:1002   */\n              swap2\n              pop\n                /* \"#utility.yul\":895:1012   */\n              pop\n                /* \"#utility.yul\":690:1019   */\n              swap3\n              swap2\n              pop\n              pop\n              jump\t// out\n                /* \"#utility.yul\":1025:1151   */\n            tag_97:\n                /* \"#utility.yul\":1062:1069   */\n              0x00\n                /* \"#utility.yul\":1102:1144   */\n              0xffffffffffffffffffffffffffffffffffffffff\n                /* \"#utility.yul\":1095:1100   */\n              dup3\n                /* \"#utility.yul\":1091:1145   */\n              and\n                /* \"#utility.yul\":1080:1145   */\n              swap1\n              pop\n                /* \"#utility.yul\":1025:1151   */\n              swap2\n              swap1\n              pop\n              jump\t// out\n                /* \"#utility.yul\":1157:1253   */\n            tag_98:\n                /* \"#utility.yul\":1194:1201   */\n              0x00\n                /* \"#utility.yul\":1223:1247   */\n              tag_169\n                /* \"#utility.yul\":1241:1246   */\n              dup3\n                /* \"#utility.yul\":1223:1247   */\n              tag_97\n              jump\t// in\n            tag_169:\n                /* \"#utility.yul\":1212:1247   */\n              swap1\n              pop\n                /* \"#utility.yul\":1157:1253   */\n              swap2\n              swap1\n              pop\n              jump\t// out\n                /* \"#utility.yul\":1259:1381   */\n            tag_99:\n                /* \"#utility.yul\":1332:1356   */\n              tag_171\n                /* \"#utility.yul\":1350:1355   */\n              dup2\n                /* \"#utility.yul\":1332:1356   */\n              tag_98\n              jump\t// in\n            tag_171:\n                /* \"#utility.yul\":1325:1330   */\n              dup2\n                /* \"#utility.yul\":1322:1357   */\n              eq\n                /* \"#utility.yul\":1312:1375   */\n              tag_172\n              jumpi\n                /* \"#utility.yul\":1371:1372   */\n              0x00\n                /* \"#utility.yul\":1368:1369   */\n              0x00\n                /* \"#utility.yul\":1361:1373   */\n              revert\n                /* \"#utility.yul\":1312:1375   */\n            tag_172:\n                /* \"#utility.yul\":1259:1381   */\n              pop\n              jump\t// out\n                /* \"#utility.yul\":1387:1526   */\n            tag_100:\n                /* \"#utility.yul\":1433:1438   */\n              0x00\n                /* \"#utility.yul\":1471:1477   */\n              dup2\n                /* \"#utility.yul\":1458:1478   */\n              calldataload\n                /* \"#utility.yul\":1449:1478   */\n              swap1\n              pop\n                /* \"#utility.yul\":1487:1520   */\n              tag_174\n                /* \"#utility.yul\":1514:1519   */\n              dup2\n                /* \"#utility.yul\":1487:1520   */\n              tag_99\n              jump\t// in\n            tag_174:\n                /* \"#utility.yul\":1387:1526   */\n              swap3\n              swap2\n              pop\n              pop\n              jump\t// out\n                /* \"#utility.yul\":1532:1861   */\n            tag_18:\n                /* \"#utility.yul\":1591:1597   */\n              0x00\n                /* \"#utility.yul\":1640:1642   */\n              0x20\n                /* \"#utility.yul\":1628:1637   */\n              dup3\n                /* \"#utility.yul\":1619:1626   */\n              dup5\n                /* \"#utility.yul\":1615:1638   */\n              sub\n                /* \"#utility.yul\":1611:1643   */\n              slt\n                /* \"#utility.yul\":1608:1727   */\n              iszero\n              tag_176\n              jumpi\n                /* \"#utility.yul\":1646:1725   */\n              tag_177\n              tag_92\n              jump\t// in\n            tag_177:\n                /* \"#utility.yul\":1608:1727   */\n            tag_176:\n                /* \"#utility.yul\":1766:1767   */\n              0x00\n                /* \"#utility.yul\":1791:1844   */\n              tag_178\n                /* \"#utility.yul\":1836:1843   */\n              dup5\n                /* \"#utility.yul\":1827:1833   */\n              dup3\n                /* \"#utility.yul\":1816:1825   */\n              dup6\n                /* \"#utility.yul\":1812:1834   */\n              add\n                /* \"#utility.yul\":1791:1844   */\n              tag_100\n              jump\t// in\n            tag_178:\n                /* \"#utility.yul\":1781:1844   */\n              swap2\n              pop\n                /* \"#utility.yul\":1737:1854   */\n              pop\n                /* \"#utility.yul\":1532:1861   */\n              swap3\n              swap2\n              pop\n              pop\n              jump\t// out\n                /* \"#utility.yul\":1867:1957   */\n            tag_101:\n                /* \"#utility.yul\":1901:1908   */\n              0x00\n                /* \"#utility.yul\":1944:1949   */\n              dup2\n                /* \"#utility.yul\":1937:1950   */\n              iszero\n                /* \"#utility.yul\":1930:1951   */\n              iszero\n                /* \"#utility.yul\":1919:1951   */\n              swap1\n              pop\n                /* \"#utility.yul\":1867:1957   */\n              swap2\n              swap1\n              pop\n              jump\t// out\n                /* \"#utility.yul\":1963:2072   */\n            tag_102:\n                /* \"#utility.yul\":2044:2065   */\n              tag_181\n                /* \"#utility.yul\":2059:2064   */\n              dup2\n                /* \"#utility.yul\":2044:2065   */\n              tag_101\n              jump\t// in\n            tag_181:\n                /* \"#utility.yul\":2039:2042   */\n              dup3\n                /* \"#utility.yul\":2032:2066   */\n              mstore\n                /* \"#utility.yul\":1963:2072   */\n              pop\n              pop\n              jump\t// out\n                /* \"#utility.yul\":2078:2288   */\n            tag_21:\n                /* \"#utility.yul\":2165:2169   */\n              0x00\n                /* \"#utility.yul\":2203:2205   */\n              0x20\n                /* \"#utility.yul\":2192:2201   */\n              dup3\n                /* \"#utility.yul\":2188:2206   */\n              add\n                /* \"#utility.yul\":2180:2206   */\n              swap1\n              pop\n                /* \"#utility.yul\":2216:2281   */\n              tag_183\n                /* \"#utility.yul\":2278:2279   */\n              0x00\n                /* \"#utility.yul\":2267:2276   */\n              dup4\n                /* \"#utility.yul\":2263:2280   */\n              add\n                /* \"#utility.yul\":2254:2260   */\n              dup5\n                /* \"#utility.yul\":2216:2281   */\n              tag_102\n              jump\t// in\n            tag_183:\n                /* \"#utility.yul\":2078:2288   */\n              swap3\n              swap2\n              pop\n              pop\n              jump\t// out\n                /* \"#utility.yul\":2294:2412   */\n            tag_103:\n                /* \"#utility.yul\":2381:2405   */\n              tag_185\n                /* \"#utility.yul\":2399:2404   */\n              dup2\n                /* \"#utility.yul\":2381:2405   */\n              tag_98\n              jump\t// in\n            tag_185:\n                /* \"#utility.yul\":2376:2379   */\n              dup3\n                /* \"#utility.yul\":2369:2406   */\n              mstore\n                /* \"#utility.yul\":2294:2412   */\n              pop\n              pop\n              jump\t// out\n                /* \"#utility.yul\":2418:2640   */\n            tag_26:\n                /* \"#utility.yul\":2511:2515   */\n              0x00\n                /* \"#utility.yul\":2549:2551   */\n              0x20\n                /* \"#utility.yul\":2538:2547   */\n              dup3\n                /* \"#utility.yul\":2534:2552   */\n              add\n                /* \"#utility.yul\":2526:2552   */\n              swap1\n              pop\n                /* \"#utility.yul\":2562:2633   */\n              tag_187\n                /* \"#utility.yul\":2630:2631   */\n              0x00\n                /* \"#utility.yul\":2619:2628   */\n              dup4\n                /* \"#utility.yul\":2615:2632   */\n              add\n                /* \"#utility.yul\":2606:2612   */\n              dup5\n                /* \"#utility.yul\":2562:2633   */\n              tag_103\n              jump\t// in\n            tag_187:\n                /* \"#utility.yul\":2418:2640   */\n              swap3\n              swap2\n              pop\n              pop\n              jump\t// out\n                /* \"#utility.yul\":2646:2745   */\n            tag_104:\n                /* \"#utility.yul\":2698:2704   */\n              0x00\n                /* \"#utility.yul\":2732:2737   */\n              dup2\n                /* \"#utility.yul\":2726:2738   */\n              mload\n                /* \"#utility.yul\":2716:2738   */\n              swap1\n              pop\n                /* \"#utility.yul\":2646:2745   */\n              swap2\n              swap1\n              pop\n              jump\t// out\n                /* \"#utility.yul\":2751:2920   */\n            tag_105:\n                /* \"#utility.yul\":2835:2846   */\n              0x00\n                /* \"#utility.yul\":2869:2875   */\n              dup3\n                /* \"#utility.yul\":2864:2867   */\n              dup3\n                /* \"#utility.yul\":2857:2876   */\n              mstore\n                /* \"#utility.yul\":2909:2913   */\n              0x20\n                /* \"#utility.yul\":2904:2907   */\n              dup3\n                /* \"#utility.yul\":2900:2914   */\n              add\n                /* \"#utility.yul\":2885:2914   */\n              swap1\n              pop\n                /* \"#utility.yul\":2751:2920   */\n              swap3\n              swap2\n              pop\n              pop\n              jump\t// out\n                /* \"#utility.yul\":2926:3065   */\n            tag_106:\n                /* \"#utility.yul\":3015:3021   */\n              dup3\n                /* \"#utility.yul\":3010:3013   */\n              dup2\n                /* \"#utility.yul\":3005:3008   */\n              dup4\n                /* \"#utility.yul\":2999:3022   */\n              mcopy\n                /* \"#utility.yul\":3056:3057   */\n              0x00\n                /* \"#utility.yul\":3047:3053   */\n              dup4\n                /* \"#utility.yul\":3042:3045   */\n              dup4\n                /* \"#utility.yul\":3038:3054   */\n              add\n                /* \"#utility.yul\":3031:3058   */\n              mstore\n                /* \"#utility.yul\":2926:3065   */\n              pop\n              pop\n              pop\n              jump\t// out\n                /* \"#utility.yul\":3071:3173   */\n            tag_107:\n                /* \"#utility.yul\":3112:3118   */\n              0x00\n                /* \"#utility.yul\":3163:3165   */\n              0x1f\n                /* \"#utility.yul\":3159:3166   */\n              not\n                /* \"#utility.yul\":3154:3156   */\n              0x1f\n                /* \"#utility.yul\":3147:3152   */\n              dup4\n                /* \"#utility.yul\":3143:3157   */\n              add\n                /* \"#utility.yul\":3139:3167   */\n              and\n                /* \"#utility.yul\":3129:3167   */\n              swap1\n              pop\n                /* \"#utility.yul\":3071:3173   */\n              swap2\n              swap1\n              pop\n              jump\t// out\n                /* \"#utility.yul\":3179:3556   */\n            tag_108:\n                /* \"#utility.yul\":3267:3270   */\n              0x00\n                /* \"#utility.yul\":3295:3334   */\n              tag_193\n                /* \"#utility.yul\":3328:3333   */\n              dup3\n                /* \"#utility.yul\":3295:3334   */\n              tag_104\n              jump\t// in\n            tag_193:\n                /* \"#utility.yul\":3350:3421   */\n              tag_194\n                /* \"#utility.yul\":3414:3420   */\n              dup2\n                /* \"#utility.yul\":3409:3412   */\n              dup6\n                /* \"#utility.yul\":3350:3421   */\n              tag_105\n              jump\t// in\n            tag_194:\n                /* \"#utility.yul\":3343:3421   */\n              swap4\n              pop\n                /* \"#utility.yul\":3430:3495   */\n              tag_195\n                /* \"#utility.yul\":3488:3494   */\n              dup2\n                /* \"#utility.yul\":3483:3486   */\n              dup6\n                /* \"#utility.yul\":3476:3480   */\n              0x20\n                /* \"#utility.yul\":3469:3474   */\n              dup7\n                /* \"#utility.yul\":3465:3481   */\n              add\n                /* \"#utility.yul\":3430:3495   */\n              tag_106\n              jump\t// in\n            tag_195:\n                /* \"#utility.yul\":3520:3549   */\n              tag_196\n                /* \"#utility.yul\":3542:3548   */\n              dup2\n                /* \"#utility.yul\":3520:3549   */\n              tag_107\n              jump\t// in\n            tag_196:\n                /* \"#utility.yul\":3515:3518   */\n              dup5\n                /* \"#utility.yul\":3511:3550   */\n              add\n                /* \"#utility.yul\":3504:3550   */\n              swap2\n              pop\n                /* \"#utility.yul\":3271:3556   */\n              pop\n                /* \"#utility.yul\":3179:3556   */\n              swap3\n              swap2\n              pop\n              pop\n              jump\t// out\n                /* \"#utility.yul\":3562:3680   */\n            tag_109:\n                /* \"#utility.yul\":3649:3673   */\n              tag_198\n                /* \"#utility.yul\":3667:3672   */\n              dup2\n                /* \"#utility.yul\":3649:3673   */\n              tag_94\n              jump\t// in\n            tag_198:\n                /* \"#utility.yul\":3644:3647   */\n              dup3\n                /* \"#utility.yul\":3637:3674   */\n              mstore\n                /* \"#utility.yul\":3562:3680   */\n              pop\n              pop\n              jump\t// out\n                /* \"#utility.yul\":3686:3790   */\n            tag_110:\n                /* \"#utility.yul\":3731:3738   */\n              0x00\n                /* \"#utility.yul\":3760:3784   */\n              tag_200\n                /* \"#utility.yul\":3778:3783   */\n              dup3\n                /* \"#utility.yul\":3760:3784   */\n              tag_97\n              jump\t// in\n            tag_200:\n                /* \"#utility.yul\":3749:3784   */\n              swap1\n              pop\n                /* \"#utility.yul\":3686:3790   */\n              swap2\n              swap1\n              pop\n              jump\t// out\n                /* \"#utility.yul\":3796:3938   */\n            tag_111:\n                /* \"#utility.yul\":3899:3931   */\n              tag_202\n                /* \"#utility.yul\":3925:3930   */\n              dup2\n                /* \"#utility.yul\":3899:3931   */\n              tag_110\n              jump\t// in\n            tag_202:\n                /* \"#utility.yul\":3894:3897   */\n              dup3\n                /* \"#utility.yul\":3887:3932   */\n              mstore\n                /* \"#utility.yul\":3796:3938   */\n              pop\n              pop\n              jump\t// out\n                /* \"#utility.yul\":3944:4719   */\n            tag_32:\n                /* \"#utility.yul\":4179:4183   */\n              0x00\n                /* \"#utility.yul\":4217:4220   */\n              0xa0\n                /* \"#utility.yul\":4206:4215   */\n              dup3\n                /* \"#utility.yul\":4202:4221   */\n              add\n                /* \"#utility.yul\":4194:4221   */\n              swap1\n              pop\n                /* \"#utility.yul\":4267:4276   */\n              dup2\n                /* \"#utility.yul\":4261:4265   */\n              dup2\n                /* \"#utility.yul\":4257:4277   */\n              sub\n                /* \"#utility.yul\":4253:4254   */\n              0x00\n                /* \"#utility.yul\":4242:4251   */\n              dup4\n                /* \"#utility.yul\":4238:4255   */\n              add\n                /* \"#utility.yul\":4231:4278   */\n              mstore\n                /* \"#utility.yul\":4295:4373   */\n              tag_204\n                /* \"#utility.yul\":4368:4372   */\n              dup2\n                /* \"#utility.yul\":4359:4365   */\n              dup9\n                /* \"#utility.yul\":4295:4373   */\n              tag_108\n              jump\t// in\n            tag_204:\n                /* \"#utility.yul\":4287:4373   */\n              swap1\n              pop\n                /* \"#utility.yul\":4383:4455   */\n              tag_205\n                /* \"#utility.yul\":4451:4453   */\n              0x20\n                /* \"#utility.yul\":4440:4449   */\n              dup4\n                /* \"#utility.yul\":4436:4454   */\n              add\n                /* \"#utility.yul\":4427:4433   */\n              dup8\n                /* \"#utility.yul\":4383:4455   */\n              tag_109\n              jump\t// in\n            tag_205:\n                /* \"#utility.yul\":4465:4553   */\n              tag_206\n                /* \"#utility.yul\":4549:4551   */\n              0x40\n                /* \"#utility.yul\":4538:4547   */\n              dup4\n                /* \"#utility.yul\":4534:4552   */\n              add\n                /* \"#utility.yul\":4525:4531   */\n              dup7\n                /* \"#utility.yul\":4465:4553   */\n              tag_111\n              jump\t// in\n            tag_206:\n                /* \"#utility.yul\":4563:4629   */\n              tag_207\n                /* \"#utility.yul\":4625:4627   */\n              0x60\n                /* \"#utility.yul\":4614:4623   */\n              dup4\n                /* \"#utility.yul\":4610:4628   */\n              add\n                /* \"#utility.yul\":4601:4607   */\n              dup6\n                /* \"#utility.yul\":4563:4629   */\n              tag_102\n              jump\t// in\n            tag_207:\n                /* \"#utility.yul\":4639:4712   */\n              tag_208\n                /* \"#utility.yul\":4707:4710   */\n              0x80\n                /* \"#utility.yul\":4696:4705   */\n              dup4\n                /* \"#utility.yul\":4692:4711   */\n              add\n                /* \"#utility.yul\":4683:4689   */\n              dup5\n                /* \"#utility.yul\":4639:4712   */\n              tag_109\n              jump\t// in\n            tag_208:\n                /* \"#utility.yul\":3944:4719   */\n              swap7\n              swap6\n              pop\n              pop\n              pop\n              pop\n              pop\n              pop\n              jump\t// out\n                /* \"#utility.yul\":4725:4842   */\n            tag_112:\n                /* \"#utility.yul\":4834:4835   */\n              0x00\n                /* \"#utility.yul\":4831:4832   */\n              0x00\n                /* \"#utility.yul\":4824:4836   */\n              revert\n                /* \"#utility.yul\":4848:4965   */\n            tag_113:\n                /* \"#utility.yul\":4957:4958   */\n              0x00\n                /* \"#utility.yul\":4954:4955   */\n              0x00\n                /* \"#utility.yul\":4947:4959   */\n              revert\n                /* \"#utility.yul\":4971:5151   */\n            tag_114:\n                /* \"#utility.yul\":5019:5096   */\n              0x4e487b7100000000000000000000000000000000000000000000000000000000\n                /* \"#utility.yul\":5016:5017   */\n              0x00\n                /* \"#utility.yul\":5009:5097   */\n              mstore\n                /* \"#utility.yul\":5116:5120   */\n              0x41\n                /* \"#utility.yul\":5113:5114   */\n              0x04\n                /* \"#utility.yul\":5106:5121   */\n              mstore\n                /* \"#utility.yul\":5140:5144   */\n              0x24\n                /* \"#utility.yul\":5137:5138   */\n              0x00\n                /* \"#utility.yul\":5130:5145   */\n              revert\n                /* \"#utility.yul\":5157:5438   */\n            tag_115:\n                /* \"#utility.yul\":5240:5267   */\n              tag_213\n                /* \"#utility.yul\":5262:5266   */\n              dup3\n                /* \"#utility.yul\":5240:5267   */\n              tag_107\n              jump\t// in\n            tag_213:\n                /* \"#utility.yul\":5232:5238   */\n              dup2\n                /* \"#utility.yul\":5228:5268   */\n              add\n                /* \"#utility.yul\":5370:5376   */\n              dup2\n                /* \"#utility.yul\":5358:5368   */\n              dup2\n                /* \"#utility.yul\":5355:5377   */\n              lt\n                /* \"#utility.yul\":5334:5352   */\n              0xffffffffffffffff\n                /* \"#utility.yul\":5322:5332   */\n              dup3\n                /* \"#utility.yul\":5319:5353   */\n              gt\n                /* \"#utility.yul\":5316:5378   */\n              or\n                /* \"#utility.yul\":5313:5401   */\n              iszero\n              tag_214\n              jumpi\n                /* \"#utility.yul\":5381:5399   */\n              tag_215\n              tag_114\n              jump\t// in\n            tag_215:\n                /* \"#utility.yul\":5313:5401   */\n            tag_214:\n                /* \"#utility.yul\":5421:5431   */\n              dup1\n                /* \"#utility.yul\":5417:5419   */\n              0x40\n                /* \"#utility.yul\":5410:5432   */\n              mstore\n                /* \"#utility.yul\":5200:5438   */\n              pop\n                /* \"#utility.yul\":5157:5438   */\n              pop\n              pop\n              jump\t// out\n                /* \"#utility.yul\":5444:5573   */\n            tag_116:\n                /* \"#utility.yul\":5478:5484   */\n              0x00\n                /* \"#utility.yul\":5505:5525   */\n              tag_217\n              tag_91\n              jump\t// in\n            tag_217:\n                /* \"#utility.yul\":5495:5525   */\n              swap1\n              pop\n                /* \"#utility.yul\":5534:5567   */\n              tag_218\n                /* \"#utility.yul\":5562:5566   */\n              dup3\n                /* \"#utility.yul\":5554:5560   */\n              dup3\n                /* \"#utility.yul\":5534:5567   */\n              tag_115\n              jump\t// in\n            tag_218:\n                /* \"#utility.yul\":5444:5573   */\n              swap2\n              swap1\n              pop\n              jump\t// out\n                /* \"#utility.yul\":5579:5887   */\n            tag_117:\n                /* \"#utility.yul\":5641:5645   */\n              0x00\n                /* \"#utility.yul\":5731:5749   */\n              0xffffffffffffffff\n                /* \"#utility.yul\":5723:5729   */\n              dup3\n                /* \"#utility.yul\":5720:5750   */\n              gt\n                /* \"#utility.yul\":5717:5773   */\n              iszero\n              tag_220\n              jumpi\n                /* \"#utility.yul\":5753:5771   */\n              tag_221\n              tag_114\n              jump\t// in\n            tag_221:\n                /* \"#utility.yul\":5717:5773   */\n            tag_220:\n                /* \"#utility.yul\":5791:5820   */\n              tag_222\n                /* \"#utility.yul\":5813:5819   */\n              dup3\n                /* \"#utility.yul\":5791:5820   */\n              tag_107\n              jump\t// in\n            tag_222:\n                /* \"#utility.yul\":5783:5820   */\n              swap1\n              pop\n                /* \"#utility.yul\":5875:5879   */\n              0x20\n                /* \"#utility.yul\":5869:5873   */\n              dup2\n                /* \"#utility.yul\":5865:5880   */\n              add\n                /* \"#utility.yul\":5857:5880   */\n              swap1\n              pop\n                /* \"#utility.yul\":5579:5887   */\n              swap2\n              swap1\n              pop\n              jump\t// out\n                /* \"#utility.yul\":5893:6041   */\n            tag_118:\n                /* \"#utility.yul\":5991:5997   */\n              dup3\n                /* \"#utility.yul\":5986:5989   */\n              dup2\n                /* \"#utility.yul\":5981:5984   */\n              dup4\n                /* \"#utility.yul\":5968:5998   */\n              calldatacopy\n                /* \"#utility.yul\":6032:6033   */\n              0x00\n                /* \"#utility.yul\":6023:6029   */\n              dup4\n                /* \"#utility.yul\":6018:6021   */\n              dup4\n                /* \"#utility.yul\":6014:6030   */\n              add\n                /* \"#utility.yul\":6007:6034   */\n              mstore\n                /* \"#utility.yul\":5893:6041   */\n              pop\n              pop\n              pop\n              jump\t// out\n                /* \"#utility.yul\":6047:6472   */\n            tag_119:\n                /* \"#utility.yul\":6125:6130   */\n              0x00\n                /* \"#utility.yul\":6150:6216   */\n              tag_225\n                /* \"#utility.yul\":6166:6215   */\n              tag_226\n                /* \"#utility.yul\":6208:6214   */\n              dup5\n                /* \"#utility.yul\":6166:6215   */\n              tag_117\n              jump\t// in\n            tag_226:\n                /* \"#utility.yul\":6150:6216   */\n              tag_116\n              jump\t// in\n            tag_225:\n                /* \"#utility.yul\":6141:6216   */\n              swap1\n              pop\n                /* \"#utility.yul\":6239:6245   */\n              dup3\n                /* \"#utility.yul\":6232:6237   */\n              dup2\n                /* \"#utility.yul\":6225:6246   */\n              mstore\n                /* \"#utility.yul\":6277:6281   */\n              0x20\n                /* \"#utility.yul\":6270:6275   */\n              dup2\n                /* \"#utility.yul\":6266:6282   */\n              add\n                /* \"#utility.yul\":6315:6318   */\n              dup5\n                /* \"#utility.yul\":6306:6312   */\n              dup5\n                /* \"#utility.yul\":6301:6304   */\n              dup5\n                /* \"#utility.yul\":6297:6313   */\n              add\n                /* \"#utility.yul\":6294:6319   */\n              gt\n                /* \"#utility.yul\":6291:6403   */\n              iszero\n              tag_227\n              jumpi\n                /* \"#utility.yul\":6322:6401   */\n              tag_228\n              tag_113\n              jump\t// in\n            tag_228:\n                /* \"#utility.yul\":6291:6403   */\n            tag_227:\n                /* \"#utility.yul\":6412:6466   */\n              tag_229\n                /* \"#utility.yul\":6459:6465   */\n              dup5\n                /* \"#utility.yul\":6454:6457   */\n              dup3\n                /* \"#utility.yul\":6449:6452   */\n              dup6\n                /* \"#utility.yul\":6412:6466   */\n              tag_118\n              jump\t// in\n            tag_229:\n                /* \"#utility.yul\":6131:6472   */\n              pop\n                /* \"#utility.yul\":6047:6472   */\n              swap4\n              swap3\n              pop\n              pop\n              pop\n              jump\t// out\n                /* \"#utility.yul\":6492:6832   */\n            tag_120:\n                /* \"#utility.yul\":6548:6553   */\n              0x00\n                /* \"#utility.yul\":6597:6600   */\n              dup3\n                /* \"#utility.yul\":6590:6594   */\n              0x1f\n                /* \"#utility.yul\":6582:6588   */\n              dup4\n                /* \"#utility.yul\":6578:6595   */\n              add\n                /* \"#utility.yul\":6574:6601   */\n              slt\n                /* \"#utility.yul\":6564:6686   */\n              tag_231\n              jumpi\n                /* \"#utility.yul\":6605:6684   */\n              tag_232\n              tag_112\n              jump\t// in\n            tag_232:\n                /* \"#utility.yul\":6564:6686   */\n            tag_231:\n                /* \"#utility.yul\":6722:6728   */\n              dup2\n                /* \"#utility.yul\":6709:6729   */\n              calldataload\n                /* \"#utility.yul\":6747:6826   */\n              tag_233\n                /* \"#utility.yul\":6822:6825   */\n              dup5\n                /* \"#utility.yul\":6814:6820   */\n              dup3\n                /* \"#utility.yul\":6807:6811   */\n              0x20\n                /* \"#utility.yul\":6799:6805   */\n              dup7\n                /* \"#utility.yul\":6795:6812   */\n              add\n                /* \"#utility.yul\":6747:6826   */\n              tag_119\n              jump\t// in\n            tag_233:\n                /* \"#utility.yul\":6738:6826   */\n              swap2\n              pop\n                /* \"#utility.yul\":6554:6832   */\n              pop\n                /* \"#utility.yul\":6492:6832   */\n              swap3\n              swap2\n              pop\n              pop\n              jump\t// out\n                /* \"#utility.yul\":6838:6976   */\n            tag_121:\n                /* \"#utility.yul\":6919:6951   */\n              tag_235\n                /* \"#utility.yul\":6945:6950   */\n              dup2\n                /* \"#utility.yul\":6919:6951   */\n              tag_110\n              jump\t// in\n            tag_235:\n                /* \"#utility.yul\":6912:6917   */\n              dup2\n                /* \"#utility.yul\":6909:6952   */\n              eq\n                /* \"#utility.yul\":6899:6970   */\n              tag_236\n              jumpi\n                /* \"#utility.yul\":6966:6967   */\n              0x00\n                /* \"#utility.yul\":6963:6964   */\n              0x00\n                /* \"#utility.yul\":6956:6968   */\n              revert\n                /* \"#utility.yul\":6899:6970   */\n            tag_236:\n                /* \"#utility.yul\":6838:6976   */\n              pop\n              jump\t// out\n                /* \"#utility.yul\":6982:7137   */\n            tag_122:\n                /* \"#utility.yul\":7036:7041   */\n              0x00\n                /* \"#utility.yul\":7074:7080   */\n              dup2\n                /* \"#utility.yul\":7061:7081   */\n              calldataload\n                /* \"#utility.yul\":7052:7081   */\n              swap1\n              pop\n                /* \"#utility.yul\":7090:7131   */\n              tag_238\n                /* \"#utility.yul\":7125:7130   */\n              dup2\n                /* \"#utility.yul\":7090:7131   */\n              tag_121\n              jump\t// in\n            tag_238:\n                /* \"#utility.yul\":6982:7137   */\n              swap3\n              swap2\n              pop\n              pop\n              jump\t// out\n                /* \"#utility.yul\":7143:7958   */\n            tag_36:\n                /* \"#utility.yul\":7238:7244   */\n              0x00\n                /* \"#utility.yul\":7246:7252   */\n              0x00\n                /* \"#utility.yul\":7254:7260   */\n              0x00\n                /* \"#utility.yul\":7303:7305   */\n              0x60\n                /* \"#utility.yul\":7291:7300   */\n              dup5\n                /* \"#utility.yul\":7282:7289   */\n              dup7\n                /* \"#utility.yul\":7278:7301   */\n              sub\n                /* \"#utility.yul\":7274:7306   */\n              slt\n                /* \"#utility.yul\":7271:7390   */\n              iszero\n              tag_240\n              jumpi\n                /* \"#utility.yul\":7309:7388   */\n              tag_241\n              tag_92\n              jump\t// in\n            tag_241:\n                /* \"#utility.yul\":7271:7390   */\n            tag_240:\n                /* \"#utility.yul\":7457:7458   */\n              0x00\n                /* \"#utility.yul\":7446:7455   */\n              dup5\n                /* \"#utility.yul\":7442:7459   */\n              add\n                /* \"#utility.yul\":7429:7460   */\n              calldataload\n                /* \"#utility.yul\":7487:7505   */\n              0xffffffffffffffff\n                /* \"#utility.yul\":7479:7485   */\n              dup2\n                /* \"#utility.yul\":7476:7506   */\n              gt\n                /* \"#utility.yul\":7473:7590   */\n              iszero\n              tag_242\n              jumpi\n                /* \"#utility.yul\":7509:7588   */\n              tag_243\n              tag_93\n              jump\t// in\n            tag_243:\n                /* \"#utility.yul\":7473:7590   */\n            tag_242:\n                /* \"#utility.yul\":7614:7677   */\n              tag_244\n                /* \"#utility.yul\":7669:7676   */\n              dup7\n                /* \"#utility.yul\":7660:7666   */\n              dup3\n                /* \"#utility.yul\":7649:7658   */\n              dup8\n                /* \"#utility.yul\":7645:7667   */\n              add\n                /* \"#utility.yul\":7614:7677   */\n              tag_120\n              jump\t// in\n            tag_244:\n                /* \"#utility.yul\":7604:7677   */\n              swap4\n              pop\n                /* \"#utility.yul\":7400:7687   */\n              pop\n                /* \"#utility.yul\":7726:7728   */\n              0x20\n                /* \"#utility.yul\":7752:7805   */\n              tag_245\n                /* \"#utility.yul\":7797:7804   */\n              dup7\n                /* \"#utility.yul\":7788:7794   */\n              dup3\n                /* \"#utility.yul\":7777:7786   */\n              dup8\n                /* \"#utility.yul\":7773:7795   */\n              add\n                /* \"#utility.yul\":7752:7805   */\n              tag_96\n              jump\t// in\n            tag_245:\n                /* \"#utility.yul\":7742:7805   */\n              swap3\n              pop\n                /* \"#utility.yul\":7697:7815   */\n              pop\n                /* \"#utility.yul\":7854:7856   */\n              0x40\n                /* \"#utility.yul\":7880:7941   */\n              tag_246\n                /* \"#utility.yul\":7933:7940   */\n              dup7\n                /* \"#utility.yul\":7924:7930   */\n              dup3\n                /* \"#utility.yul\":7913:7922   */\n              dup8\n                /* \"#utility.yul\":7909:7931   */\n              add\n                /* \"#utility.yul\":7880:7941   */\n              tag_122\n              jump\t// in\n            tag_246:\n                /* \"#utility.yul\":7870:7941   */\n              swap2\n              pop\n                /* \"#utility.yul\":7825:7951   */\n              pop\n                /* \"#utility.yul\":7143:7958   */\n              swap3\n              pop\n              swap3\n              pop\n              swap3\n              jump\t// out\n                /* \"#utility.yul\":7964:8186   */\n            tag_42:\n                /* \"#utility.yul\":8057:8061   */\n              0x00\n                /* \"#utility.yul\":8095:8097   */\n              0x20\n                /* \"#utility.yul\":8084:8093   */\n              dup3\n                /* \"#utility.yul\":8080:8098   */\n              add\n                /* \"#utility.yul\":8072:8098   */\n              swap1\n              pop\n                /* \"#utility.yul\":8108:8179   */\n              tag_248\n                /* \"#utility.yul\":8176:8177   */\n              0x00\n                /* \"#utility.yul\":8165:8174   */\n              dup4\n                /* \"#utility.yul\":8161:8178   */\n              add\n                /* \"#utility.yul\":8152:8158   */\n              dup5\n                /* \"#utility.yul\":8108:8179   */\n              tag_109\n              jump\t// in\n            tag_248:\n                /* \"#utility.yul\":7964:8186   */\n              swap3\n              swap2\n              pop\n              pop\n              jump\t// out\n                /* \"#utility.yul\":8192:8428   */\n            tag_123:\n                /* \"#utility.yul\":8332:8366   */\n              0x4f6e6c79207468652063616d706169676e206d616e616765722063616e206361\n                /* \"#utility.yul\":8328:8329   */\n              0x00\n                /* \"#utility.yul\":8320:8326   */\n              dup3\n                /* \"#utility.yul\":8316:8330   */\n              add\n                /* \"#utility.yul\":8309:8367   */\n              mstore\n                /* \"#utility.yul\":8401:8420   */\n              0x6c6c20746869732066756e6374696f6e2e000000000000000000000000000000\n                /* \"#utility.yul\":8396:8398   */\n              0x20\n                /* \"#utility.yul\":8388:8394   */\n              dup3\n                /* \"#utility.yul\":8384:8399   */\n              add\n                /* \"#utility.yul\":8377:8421   */\n              mstore\n                /* \"#utility.yul\":8192:8428   */\n              pop\n              jump\t// out\n                /* \"#utility.yul\":8434:8800   */\n            tag_124:\n                /* \"#utility.yul\":8576:8579   */\n              0x00\n                /* \"#utility.yul\":8597:8664   */\n              tag_251\n                /* \"#utility.yul\":8661:8663   */\n              0x31\n                /* \"#utility.yul\":8656:8659   */\n              dup4\n                /* \"#utility.yul\":8597:8664   */\n              tag_105\n              jump\t// in\n            tag_251:\n                /* \"#utility.yul\":8590:8664   */\n              swap2\n              pop\n                /* \"#utility.yul\":8673:8766   */\n              tag_252\n                /* \"#utility.yul\":8762:8765   */\n              dup3\n                /* \"#utility.yul\":8673:8766   */\n              tag_123\n              jump\t// in\n            tag_252:\n                /* \"#utility.yul\":8791:8793   */\n              0x40\n                /* \"#utility.yul\":8786:8789   */\n              dup3\n                /* \"#utility.yul\":8782:8794   */\n              add\n                /* \"#utility.yul\":8775:8794   */\n              swap1\n              pop\n                /* \"#utility.yul\":8434:8800   */\n              swap2\n              swap1\n              pop\n              jump\t// out\n                /* \"#utility.yul\":8806:9225   */\n            tag_52:\n                /* \"#utility.yul\":8972:8976   */\n              0x00\n                /* \"#utility.yul\":9010:9012   */\n              0x20\n                /* \"#utility.yul\":8999:9008   */\n              dup3\n                /* \"#utility.yul\":8995:9013   */\n              add\n                /* \"#utility.yul\":8987:9013   */\n              swap1\n              pop\n                /* \"#utility.yul\":9059:9068   */\n              dup2\n                /* \"#utility.yul\":9053:9057   */\n              dup2\n                /* \"#utility.yul\":9049:9069   */\n              sub\n                /* \"#utility.yul\":9045:9046   */\n              0x00\n                /* \"#utility.yul\":9034:9043   */\n              dup4\n                /* \"#utility.yul\":9030:9047   */\n              add\n                /* \"#utility.yul\":9023:9070   */\n              mstore\n                /* \"#utility.yul\":9087:9218   */\n              tag_254\n                /* \"#utility.yul\":9213:9217   */\n              dup2\n                /* \"#utility.yul\":9087:9218   */\n              tag_124\n              jump\t// in\n            tag_254:\n                /* \"#utility.yul\":9079:9218   */\n              swap1\n              pop\n                /* \"#utility.yul\":8806:9225   */\n              swap2\n              swap1\n              pop\n              jump\t// out\n                /* \"#utility.yul\":9231:9411   */\n            tag_125:\n                /* \"#utility.yul\":9279:9356   */\n              0x4e487b7100000000000000000000000000000000000000000000000000000000\n                /* \"#utility.yul\":9276:9277   */\n              0x00\n                /* \"#utility.yul\":9269:9357   */\n              mstore\n                /* \"#utility.yul\":9376:9380   */\n              0x12\n                /* \"#utility.yul\":9373:9374   */\n              0x04\n                /* \"#utility.yul\":9366:9381   */\n              mstore\n                /* \"#utility.yul\":9400:9404   */\n              0x24\n                /* \"#utility.yul\":9397:9398   */\n              0x00\n                /* \"#utility.yul\":9390:9405   */\n              revert\n                /* \"#utility.yul\":9417:9597   */\n            tag_126:\n                /* \"#utility.yul\":9465:9542   */\n              0x4e487b7100000000000000000000000000000000000000000000000000000000\n                /* \"#utility.yul\":9462:9463   */\n              0x00\n                /* \"#utility.yul\":9455:9543   */\n              mstore\n                /* \"#utility.yul\":9562:9566   */\n              0x11\n                /* \"#utility.yul\":9559:9560   */\n              0x04\n                /* \"#utility.yul\":9552:9567   */\n              mstore\n                /* \"#utility.yul\":9586:9590   */\n              0x24\n                /* \"#utility.yul\":9583:9584   */\n              0x00\n                /* \"#utility.yul\":9576:9591   */\n              revert\n                /* \"#utility.yul\":9603:9788   */\n            tag_55:\n                /* \"#utility.yul\":9643:9644   */\n              0x00\n                /* \"#utility.yul\":9660:9680   */\n              tag_258\n                /* \"#utility.yul\":9678:9679   */\n              dup3\n                /* \"#utility.yul\":9660:9680   */\n              tag_94\n              jump\t// in\n            tag_258:\n                /* \"#utility.yul\":9655:9680   */\n              swap2\n              pop\n                /* \"#utility.yul\":9694:9714   */\n              tag_259\n                /* \"#utility.yul\":9712:9713   */\n              dup4\n                /* \"#utility.yul\":9694:9714   */\n              tag_94\n              jump\t// in\n            tag_259:\n                /* \"#utility.yul\":9689:9714   */\n              swap3\n              pop\n                /* \"#utility.yul\":9733:9734   */\n              dup3\n                /* \"#utility.yul\":9723:9758   */\n              tag_260\n              jumpi\n                /* \"#utility.yul\":9738:9756   */\n              tag_261\n              tag_125\n              jump\t// in\n            tag_261:\n                /* \"#utility.yul\":9723:9758   */\n            tag_260:\n                /* \"#utility.yul\":9780:9781   */\n              dup3\n                /* \"#utility.yul\":9777:9778   */\n              dup3\n                /* \"#utility.yul\":9773:9782   */\n              div\n                /* \"#utility.yul\":9768:9782   */\n              swap1\n              pop\n                /* \"#utility.yul\":9603:9788   */\n              swap3\n              swap2\n              pop\n              pop\n              jump\t// out\n                /* \"#utility.yul\":9794:10041   */\n            tag_127:\n                /* \"#utility.yul\":9934:9968   */\n              0x546869732072657175657374206e65656473206d6f726520617070726f76616c\n                /* \"#utility.yul\":9930:9931   */\n              0x00\n                /* \"#utility.yul\":9922:9928   */\n              dup3\n                /* \"#utility.yul\":9918:9932   */\n              add\n                /* \"#utility.yul\":9911:9969   */\n              mstore\n                /* \"#utility.yul\":10003:10033   */\n              0x73206265666f72652069742063616e2062652066696e616c697a656400000000\n                /* \"#utility.yul\":9998:10000   */\n              0x20\n                /* \"#utility.yul\":9990:9996   */\n              dup3\n                /* \"#utility.yul\":9986:10001   */\n              add\n                /* \"#utility.yul\":9979:10034   */\n              mstore\n                /* \"#utility.yul\":9794:10041   */\n              pop\n              jump\t// out\n                /* \"#utility.yul\":10047:10413   */\n            tag_128:\n                /* \"#utility.yul\":10189:10192   */\n              0x00\n                /* \"#utility.yul\":10210:10277   */\n              tag_264\n                /* \"#utility.yul\":10274:10276   */\n              0x3c\n                /* \"#utility.yul\":10269:10272   */\n              dup4\n                /* \"#utility.yul\":10210:10277   */\n              tag_105\n              jump\t// in\n            tag_264:\n                /* \"#utility.yul\":10203:10277   */\n              swap2\n              pop\n                /* \"#utility.yul\":10286:10379   */\n              tag_265\n                /* \"#utility.yul\":10375:10378   */\n              dup3\n                /* \"#utility.yul\":10286:10379   */\n              tag_127\n              jump\t// in\n            tag_265:\n                /* \"#utility.yul\":10404:10406   */\n              0x40\n                /* \"#utility.yul\":10399:10402   */\n              dup3\n                /* \"#utility.yul\":10395:10407   */\n              add\n                /* \"#utility.yul\":10388:10407   */\n              swap1\n              pop\n                /* \"#utility.yul\":10047:10413   */\n              swap2\n              swap1\n              pop\n              jump\t// out\n                /* \"#utility.yul\":10419:10838   */\n            tag_58:\n                /* \"#utility.yul\":10585:10589   */\n              0x00\n                /* \"#utility.yul\":10623:10625   */\n              0x20\n                /* \"#utility.yul\":10612:10621   */\n              dup3\n                /* \"#utility.yul\":10608:10626   */\n              add\n                /* \"#utility.yul\":10600:10626   */\n              swap1\n              pop\n                /* \"#utility.yul\":10672:10681   */\n              dup2\n                /* \"#utility.yul\":10666:10670   */\n              dup2\n                /* \"#utility.yul\":10662:10682   */\n              sub\n                /* \"#utility.yul\":10658:10659   */\n              0x00\n                /* \"#utility.yul\":10647:10656   */\n              dup4\n                /* \"#utility.yul\":10643:10660   */\n              add\n                /* \"#utility.yul\":10636:10683   */\n              mstore\n                /* \"#utility.yul\":10700:10831   */\n              tag_267\n                /* \"#utility.yul\":10826:10830   */\n              dup2\n                /* \"#utility.yul\":10700:10831   */\n              tag_128\n              jump\t// in\n            tag_267:\n                /* \"#utility.yul\":10692:10831   */\n              swap1\n              pop\n                /* \"#utility.yul\":10419:10838   */\n              swap2\n              swap1\n              pop\n              jump\t// out\n                /* \"#utility.yul\":10844:11070   */\n            tag_129:\n                /* \"#utility.yul\":10984:11018   */\n              0x5468697320726571756573742068617320616c7265616479206265656e206669\n                /* \"#utility.yul\":10980:10981   */\n              0x00\n                /* \"#utility.yul\":10972:10978   */\n              dup3\n                /* \"#utility.yul\":10968:10982   */\n              add\n                /* \"#utility.yul\":10961:11019   */\n              mstore\n                /* \"#utility.yul\":11053:11062   */\n              0x6e616c697a656400000000000000000000000000000000000000000000000000\n                /* \"#utility.yul\":11048:11050   */\n              0x20\n                /* \"#utility.yul\":11040:11046   */\n              dup3\n                /* \"#utility.yul\":11036:11051   */\n              add\n                /* \"#utility.yul\":11029:11063   */\n              mstore\n                /* \"#utility.yul\":10844:11070   */\n              pop\n              jump\t// out\n                /* \"#utility.yul\":11076:11442   */\n            tag_130:\n                /* \"#utility.yul\":11218:11221   */\n              0x00\n                /* \"#utility.yul\":11239:11306   */\n              tag_270\n                /* \"#utility.yul\":11303:11305   */\n              0x27\n                /* \"#utility.yul\":11298:11301   */\n              dup4\n                /* \"#utility.yul\":11239:11306   */\n              tag_105\n              jump\t// in\n            tag_270:\n                /* \"#utility.yul\":11232:11306   */\n              swap2\n              pop\n                /* \"#utility.yul\":11315:11408   */\n              tag_271\n                /* \"#utility.yul\":11404:11407   */\n              dup3\n                /* \"#utility.yul\":11315:11408   */\n              tag_129\n              jump\t// in\n            tag_271:\n                /* \"#utility.yul\":11433:11435   */\n              0x40\n                /* \"#utility.yul\":11428:11431   */\n              dup3\n                /* \"#utility.yul\":11424:11436   */\n              add\n                /* \"#utility.yul\":11417:11436   */\n              swap1\n              pop\n                /* \"#utility.yul\":11076:11442   */\n              swap2\n              swap1\n              pop\n              jump\t// out\n                /* \"#utility.yul\":11448:11867   */\n            tag_61:\n                /* \"#utility.yul\":11614:11618   */\n              0x00\n                /* \"#utility.yul\":11652:11654   */\n              0x20\n                /* \"#utility.yul\":11641:11650   */\n              dup3\n                /* \"#utility.yul\":11637:11655   */\n              add\n                /* \"#utility.yul\":11629:11655   */\n              swap1\n              pop\n                /* \"#utility.yul\":11701:11710   */\n              dup2\n                /* \"#utility.yul\":11695:11699   */\n              dup2\n                /* \"#utility.yul\":11691:11711   */\n              sub\n                /* \"#utility.yul\":11687:11688   */\n              0x00\n                /* \"#utility.yul\":11676:11685   */\n              dup4\n                /* \"#utility.yul\":11672:11689   */\n              add\n                /* \"#utility.yul\":11665:11712   */\n              mstore\n                /* \"#utility.yul\":11729:11860   */\n              tag_273\n                /* \"#utility.yul\":11855:11859   */\n              dup2\n                /* \"#utility.yul\":11729:11860   */\n              tag_130\n              jump\t// in\n            tag_273:\n                /* \"#utility.yul\":11721:11860   */\n              swap1\n              pop\n                /* \"#utility.yul\":11448:11867   */\n              swap2\n              swap1\n              pop\n              jump\t// out\n                /* \"#utility.yul\":11873:12053   */\n            tag_131:\n                /* \"#utility.yul\":11921:11998   */\n              0x4e487b7100000000000000000000000000000000000000000000000000000000\n                /* \"#utility.yul\":11918:11919   */\n              0x00\n                /* \"#utility.yul\":11911:11999   */\n              mstore\n                /* \"#utility.yul\":12018:12022   */\n              0x22\n                /* \"#utility.yul\":12015:12016   */\n              0x04\n                /* \"#utility.yul\":12008:12023   */\n              mstore\n                /* \"#utility.yul\":12042:12046   */\n              0x24\n                /* \"#utility.yul\":12039:12040   */\n              0x00\n                /* \"#utility.yul\":12032:12047   */\n              revert\n                /* \"#utility.yul\":12059:12379   */\n            tag_65:\n                /* \"#utility.yul\":12103:12109   */\n              0x00\n                /* \"#utility.yul\":12140:12141   */\n              0x02\n                /* \"#utility.yul\":12134:12138   */\n              dup3\n                /* \"#utility.yul\":12130:12142   */\n              div\n                /* \"#utility.yul\":12120:12142   */\n              swap1\n              pop\n                /* \"#utility.yul\":12187:12188   */\n              0x01\n                /* \"#utility.yul\":12181:12185   */\n              dup3\n                /* \"#utility.yul\":12177:12189   */\n              and\n                /* \"#utility.yul\":12208:12226   */\n              dup1\n                /* \"#utility.yul\":12198:12279   */\n              tag_276\n              jumpi\n                /* \"#utility.yul\":12264:12268   */\n              0x7f\n                /* \"#utility.yul\":12256:12262   */\n              dup3\n                /* \"#utility.yul\":12252:12269   */\n              and\n                /* \"#utility.yul\":12242:12269   */\n              swap2\n              pop\n                /* \"#utility.yul\":12198:12279   */\n            tag_276:\n                /* \"#utility.yul\":12326:12328   */\n              0x20\n                /* \"#utility.yul\":12318:12324   */\n              dup3\n                /* \"#utility.yul\":12315:12329   */\n              lt\n                /* \"#utility.yul\":12295:12313   */\n              dup2\n                /* \"#utility.yul\":12292:12330   */\n              sub\n                /* \"#utility.yul\":12289:12373   */\n              tag_277\n              jumpi\n                /* \"#utility.yul\":12345:12363   */\n              tag_278\n              tag_131\n              jump\t// in\n            tag_278:\n                /* \"#utility.yul\":12289:12373   */\n            tag_277:\n                /* \"#utility.yul\":12110:12379   */\n              pop\n                /* \"#utility.yul\":12059:12379   */\n              swap2\n              swap1\n              pop\n              jump\t// out\n                /* \"#utility.yul\":12385:12618   */\n            tag_75:\n                /* \"#utility.yul\":12424:12427   */\n              0x00\n                /* \"#utility.yul\":12447:12471   */\n              tag_280\n                /* \"#utility.yul\":12465:12470   */\n              dup3\n                /* \"#utility.yul\":12447:12471   */\n              tag_94\n              jump\t// in\n            tag_280:\n                /* \"#utility.yul\":12438:12471   */\n              swap2\n              pop\n                /* \"#utility.yul\":12493:12559   */\n              0xffffffffffffffffffffffffffffffffffffffffffffffffffffffffffffffff\n                /* \"#utility.yul\":12486:12491   */\n              dup3\n                /* \"#utility.yul\":12483:12560   */\n              sub\n                /* \"#utility.yul\":12480:12583   */\n              tag_281\n              jumpi\n                /* \"#utility.yul\":12563:12581   */\n              tag_282\n              tag_126\n              jump\t// in\n            tag_282:\n                /* \"#utility.yul\":12480:12583   */\n            tag_281:\n                /* \"#utility.yul\":12610:12611   */\n              0x01\n                /* \"#utility.yul\":12603:12608   */\n              dup3\n                /* \"#utility.yul\":12599:12612   */\n              add\n                /* \"#utility.yul\":12592:12612   */\n              swap1\n              pop\n                /* \"#utility.yul\":12385:12618   */\n              swap2\n              swap1\n              pop\n              jump\t// out\n                /* \"#utility.yul\":12624:12765   */\n            tag_132:\n                /* \"#utility.yul\":12673:12677   */\n              0x00\n                /* \"#utility.yul\":12696:12699   */\n              dup2\n                /* \"#utility.yul\":12688:12699   */\n              swap1\n              pop\n                /* \"#utility.yul\":12719:12722   */\n              dup2\n                /* \"#utility.yul\":12716:12717   */\n              0x00\n                /* \"#utility.yul\":12709:12723   */\n              mstore\n                /* \"#utility.yul\":12753:12757   */\n              0x20\n                /* \"#utility.yul\":12750:12751   */\n              0x00\n                /* \"#utility.yul\":12740:12758   */\n              keccak256\n                /* \"#utility.yul\":12732:12758   */\n              swap1\n              pop\n                /* \"#utility.yul\":12624:12765   */\n              swap2\n              swap1\n              pop\n              jump\t// out\n                /* \"#utility.yul\":12771:12864   */\n            tag_133:\n                /* \"#utility.yul\":12808:12814   */\n              0x00\n                /* \"#utility.yul\":12855:12857   */\n              0x20\n                /* \"#utility.yul\":12850:12852   */\n              0x1f\n                /* \"#utility.yul\":12843:12848   */\n              dup4\n                /* \"#utility.yul\":12839:12853   */\n              add\n                /* \"#utility.yul\":12835:12858   */\n              div\n                /* \"#utility.yul\":12825:12858   */\n              swap1\n              pop\n                /* \"#utility.yul\":12771:12864   */\n              swap2\n              swap1\n              pop\n              jump\t// out\n                /* \"#utility.yul\":12870:12977   */\n            tag_134:\n                /* \"#utility.yul\":12914:12922   */\n              0x00\n                /* \"#utility.yul\":12964:12969   */\n              dup3\n                /* \"#utility.yul\":12958:12962   */\n              dup3\n                /* \"#utility.yul\":12954:12970   */\n              shl\n                /* \"#utility.yul\":12933:12970   */\n              swap1\n              pop\n                /* \"#utility.yul\":12870:12977   */\n              swap3\n              swap2\n              pop\n              pop\n              jump\t// out\n                /* \"#utility.yul\":12983:13376   */\n            tag_135:\n                /* \"#utility.yul\":13052:13058   */\n              0x00\n                /* \"#utility.yul\":13102:13103   */\n              0x08\n                /* \"#utility.yul\":13090:13100   */\n              dup4\n                /* \"#utility.yul\":13086:13104   */\n              mul\n                /* \"#utility.yul\":13125:13222   */\n              tag_287\n                /* \"#utility.yul\":13155:13221   */\n              0xffffffffffffffffffffffffffffffffffffffffffffffffffffffffffffffff\n                /* \"#utility.yul\":13144:13153   */\n              dup3\n                /* \"#utility.yul\":13125:13222   */\n              tag_134\n              jump\t// in\n            tag_287:\n                /* \"#utility.yul\":13243:13282   */\n              tag_288\n                /* \"#utility.yul\":13273:13281   */\n              dup7\n                /* \"#utility.yul\":13262:13271   */\n              dup4\n                /* \"#utility.yul\":13243:13282   */\n              tag_134\n              jump\t// in\n            tag_288:\n                /* \"#utility.yul\":13231:13282   */\n              swap6\n              pop\n                /* \"#utility.yul\":13315:13319   */\n              dup1\n                /* \"#utility.yul\":13311:13320   */\n              not\n                /* \"#utility.yul\":13304:13309   */\n              dup5\n                /* \"#utility.yul\":13300:13321   */\n              and\n                /* \"#utility.yul\":13291:13321   */\n              swap4\n              pop\n                /* \"#utility.yul\":13364:13368   */\n              dup1\n                /* \"#utility.yul\":13354:13362   */\n              dup7\n                /* \"#utility.yul\":13350:13369   */\n              and\n                /* \"#utility.yul\":13343:13348   */\n              dup5\n                /* \"#utility.yul\":13340:13370   */\n              or\n                /* \"#utility.yul\":13330:13370   */\n              swap3\n              pop\n                /* \"#utility.yul\":13059:13376   */\n              pop\n              pop\n                /* \"#utility.yul\":12983:13376   */\n              swap4\n              swap3\n              pop\n              pop\n              pop\n              jump\t// out\n                /* \"#utility.yul\":13382:13442   */\n            tag_136:\n                /* \"#utility.yul\":13410:13413   */\n              0x00\n                /* \"#utility.yul\":13431:13436   */\n              dup2\n                /* \"#utility.yul\":13424:13436   */\n              swap1\n              pop\n                /* \"#utility.yul\":13382:13442   */\n              swap2\n              swap1\n              pop\n              jump\t// out\n                /* \"#utility.yul\":13448:13590   */\n            tag_137:\n                /* \"#utility.yul\":13498:13507   */\n              0x00\n                /* \"#utility.yul\":13531:13584   */\n              tag_291\n                /* \"#utility.yul\":13549:13583   */\n              tag_292\n                /* \"#utility.yul\":13558:13582   */\n              tag_293\n                /* \"#utility.yul\":13576:13581   */\n              dup5\n                /* \"#utility.yul\":13558:13582   */\n              tag_94\n              jump\t// in\n            tag_293:\n                /* \"#utility.yul\":13549:13583   */\n              tag_136\n              jump\t// in\n            tag_292:\n                /* \"#utility.yul\":13531:13584   */\n              tag_94\n              jump\t// in\n            tag_291:\n                /* \"#utility.yul\":13518:13584   */\n              swap1\n              pop\n                /* \"#utility.yul\":13448:13590   */\n              swap2\n              swap1\n              pop\n              jump\t// out\n                /* \"#utility.yul\":13596:13671   */\n            tag_138:\n                /* \"#utility.yul\":13639:13642   */\n              0x00\n                /* \"#utility.yul\":13660:13665   */\n              dup2\n                /* \"#utility.yul\":13653:13665   */\n              swap1\n              pop\n                /* \"#utility.yul\":13596:13671   */\n              swap2\n              swap1\n              pop\n              jump\t// out\n                /* \"#utility.yul\":13677:13946   */\n            tag_139:\n                /* \"#utility.yul\":13787:13826   */\n              tag_296\n                /* \"#utility.yul\":13818:13825   */\n              dup4\n                /* \"#utility.yul\":13787:13826   */\n              tag_137\n              jump\t// in\n            tag_296:\n                /* \"#utility.yul\":13848:13939   */\n              tag_297\n                /* \"#utility.yul\":13897:13938   */\n              tag_298\n                /* \"#utility.yul\":13921:13937   */\n              dup3\n                /* \"#utility.yul\":13897:13938   */\n              tag_138\n              jump\t// in\n            tag_298:\n                /* \"#utility.yul\":13889:13895   */\n              dup5\n                /* \"#utility.yul\":13882:13886   */\n              dup5\n                /* \"#utility.yul\":13876:13887   */\n              sload\n                /* \"#utility.yul\":13848:13939   */\n              tag_135\n              jump\t// in\n            tag_297:\n                /* \"#utility.yul\":13842:13846   */\n              dup3\n                /* \"#utility.yul\":13835:13940   */\n              sstore\n                /* \"#utility.yul\":13753:13946   */\n              pop\n                /* \"#utility.yul\":13677:13946   */\n              pop\n              pop\n              pop\n              jump\t// out\n                /* \"#utility.yul\":13952:14025   */\n            tag_140:\n                /* \"#utility.yul\":13997:14000   */\n              0x00\n                /* \"#utility.yul\":14018:14019   */\n              0x00\n                /* \"#utility.yul\":14011:14019   */\n              swap1\n              pop\n                /* \"#utility.yul\":13952:14025   */\n              swap1\n              jump\t// out\n                /* \"#utility.yul\":14031:14220   */\n            tag_141:\n                /* \"#utility.yul\":14108:14140   */\n              tag_301\n              tag_140\n              jump\t// in\n            tag_301:\n                /* \"#utility.yul\":14149:14214   */\n              tag_302\n                /* \"#utility.yul\":14207:14213   */\n              dup2\n                /* \"#utility.yul\":14199:14205   */\n              dup5\n                /* \"#utility.yul\":14193:14197   */\n              dup5\n                /* \"#utility.yul\":14149:14214   */\n              tag_139\n              jump\t// in\n            tag_302:\n                /* \"#utility.yul\":14084:14220   */\n              pop\n                /* \"#utility.yul\":14031:14220   */\n              pop\n              pop\n              jump\t// out\n                /* \"#utility.yul\":14226:14412   */\n            tag_142:\n                /* \"#utility.yul\":14286:14406   */\n            tag_304:\n                /* \"#utility.yul\":14303:14306   */\n              dup2\n                /* \"#utility.yul\":14296:14301   */\n              dup2\n                /* \"#utility.yul\":14293:14307   */\n              lt\n                /* \"#utility.yul\":14286:14406   */\n              iszero\n              tag_306\n              jumpi\n                /* \"#utility.yul\":14357:14396   */\n              tag_307\n                /* \"#utility.yul\":14394:14395   */\n              0x00\n                /* \"#utility.yul\":14387:14392   */\n              dup3\n                /* \"#utility.yul\":14357:14396   */\n              tag_141\n              jump\t// in\n            tag_307:\n                /* \"#utility.yul\":14330:14331   */\n              0x01\n                /* \"#utility.yul\":14323:14328   */\n              dup2\n                /* \"#utility.yul\":14319:14332   */\n              add\n                /* \"#utility.yul\":14310:14332   */\n              swap1\n              pop\n                /* \"#utility.yul\":14286:14406   */\n              jump(tag_304)\n            tag_306:\n                /* \"#utility.yul\":14226:14412   */\n              pop\n              pop\n              jump\t// out\n                /* \"#utility.yul\":14418:14961   */\n            tag_143:\n                /* \"#utility.yul\":14519:14521   */\n              0x1f\n                /* \"#utility.yul\":14514:14517   */\n              dup3\n                /* \"#utility.yul\":14511:14522   */\n              gt\n                /* \"#utility.yul\":14508:14954   */\n              iszero\n              tag_309\n              jumpi\n                /* \"#utility.yul\":14553:14591   */\n              tag_310\n                /* \"#utility.yul\":14585:14590   */\n              dup2\n                /* \"#utility.yul\":14553:14591   */\n              tag_132\n              jump\t// in\n            tag_310:\n                /* \"#utility.yul\":14637:14666   */\n              tag_311\n                /* \"#utility.yul\":14655:14665   */\n              dup5\n                /* \"#utility.yul\":14637:14666   */\n              tag_133\n              jump\t// in\n            tag_311:\n                /* \"#utility.yul\":14627:14635   */\n              dup2\n                /* \"#utility.yul\":14623:14667   */\n              add\n                /* \"#utility.yul\":14820:14822   */\n              0x20\n                /* \"#utility.yul\":14808:14818   */\n              dup6\n                /* \"#utility.yul\":14805:14823   */\n              lt\n                /* \"#utility.yul\":14802:14851   */\n              iszero\n              tag_312\n              jumpi\n                /* \"#utility.yul\":14841:14849   */\n              dup2\n                /* \"#utility.yul\":14826:14849   */\n              swap1\n              pop\n                /* \"#utility.yul\":14802:14851   */\n            tag_312:\n                /* \"#utility.yul\":14864:14944   */\n              tag_313\n                /* \"#utility.yul\":14920:14942   */\n              tag_314\n                /* \"#utility.yul\":14938:14941   */\n              dup6\n                /* \"#utility.yul\":14920:14942   */\n              tag_133\n              jump\t// in\n            tag_314:\n                /* \"#utility.yul\":14910:14918   */\n              dup4\n                /* \"#utility.yul\":14906:14943   */\n              add\n                /* \"#utility.yul\":14893:14904   */\n              dup3\n                /* \"#utility.yul\":14864:14944   */\n              tag_142\n              jump\t// in\n            tag_313:\n                /* \"#utility.yul\":14523:14954   */\n              pop\n              pop\n                /* \"#utility.yul\":14508:14954   */\n            tag_309:\n                /* \"#utility.yul\":14418:14961   */\n              pop\n              pop\n              pop\n              jump\t// out\n                /* \"#utility.yul\":14967:15084   */\n            tag_144:\n                /* \"#utility.yul\":15021:15029   */\n              0x00\n                /* \"#utility.yul\":15071:15076   */\n              dup3\n                /* \"#utility.yul\":15065:15069   */\n              dup3\n                /* \"#utility.yul\":15061:15077   */\n              shr\n                /* \"#utility.yul\":15040:15077   */\n              swap1\n              pop\n                /* \"#utility.yul\":14967:15084   */\n              swap3\n              swap2\n              pop\n              pop\n              jump\t// out\n                /* \"#utility.yul\":15090:15259   */\n            tag_145:\n                /* \"#utility.yul\":15134:15140   */\n              0x00\n                /* \"#utility.yul\":15167:15218   */\n              tag_317\n                /* \"#utility.yul\":15215:15216   */\n              0x00\n                /* \"#utility.yul\":15211:15217   */\n              not\n                /* \"#utility.yul\":15203:15208   */\n              dup5\n                /* \"#utility.yul\":15200:15201   */\n              0x08\n                /* \"#utility.yul\":15196:15209   */\n              mul\n                /* \"#utility.yul\":15167:15218   */\n              tag_144\n              jump\t// in\n            tag_317:\n                /* \"#utility.yul\":15163:15219   */\n              not\n                /* \"#utility.yul\":15248:15252   */\n              dup1\n                /* \"#utility.yul\":15242:15246   */\n              dup4\n                /* \"#utility.yul\":15238:15253   */\n              and\n                /* \"#utility.yul\":15228:15253   */\n              swap2\n              pop\n                /* \"#utility.yul\":15141:15259   */\n              pop\n                /* \"#utility.yul\":15090:15259   */\n              swap3\n              swap2\n              pop\n              pop\n              jump\t// out\n                /* \"#utility.yul\":15264:15559   */\n            tag_146:\n                /* \"#utility.yul\":15340:15344   */\n              0x00\n                /* \"#utility.yul\":15486:15515   */\n              tag_319\n                /* \"#utility.yul\":15511:15514   */\n              dup4\n                /* \"#utility.yul\":15505:15509   */\n              dup4\n                /* \"#utility.yul\":15486:15515   */\n              tag_145\n              jump\t// in\n            tag_319:\n                /* \"#utility.yul\":15478:15515   */\n              swap2\n              pop\n                /* \"#utility.yul\":15548:15551   */\n              dup3\n                /* \"#utility.yul\":15545:15546   */\n              0x02\n                /* \"#utility.yul\":15541:15552   */\n              mul\n                /* \"#utility.yul\":15535:15539   */\n              dup3\n                /* \"#utility.yul\":15532:15553   */\n              or\n                /* \"#utility.yul\":15524:15553   */\n              swap1\n              pop\n                /* \"#utility.yul\":15264:15559   */\n              swap3\n              swap2\n              pop\n              pop\n              jump\t// out\n                /* \"#utility.yul\":15564:16959   */\n            tag_77:\n                /* \"#utility.yul\":15681:15718   */\n              tag_321\n                /* \"#utility.yul\":15714:15717   */\n              dup3\n                /* \"#utility.yul\":15681:15718   */\n              tag_104\n              jump\t// in\n            tag_321:\n                /* \"#utility.yul\":15783:15801   */\n              0xffffffffffffffff\n                /* \"#utility.yul\":15775:15781   */\n              dup2\n                /* \"#utility.yul\":15772:15802   */\n              gt\n                /* \"#utility.yul\":15769:15825   */\n              iszero\n              tag_322\n              jumpi\n                /* \"#utility.yul\":15805:15823   */\n              tag_323\n              tag_114\n              jump\t// in\n            tag_323:\n                /* \"#utility.yul\":15769:15825   */\n            tag_322:\n                /* \"#utility.yul\":15849:15887   */\n              tag_324\n                /* \"#utility.yul\":15881:15885   */\n              dup3\n                /* \"#utility.yul\":15875:15886   */\n              sload\n                /* \"#utility.yul\":15849:15887   */\n              tag_65\n              jump\t// in\n            tag_324:\n                /* \"#utility.yul\":15934:16001   */\n              tag_325\n                /* \"#utility.yul\":15994:16000   */\n              dup3\n                /* \"#utility.yul\":15986:15992   */\n              dup3\n                /* \"#utility.yul\":15980:15984   */\n              dup6\n                /* \"#utility.yul\":15934:16001   */\n              tag_143\n              jump\t// in\n            tag_325:\n                /* \"#utility.yul\":16028:16029   */\n              0x00\n                /* \"#utility.yul\":16052:16056   */\n              0x20\n                /* \"#utility.yul\":16039:16056   */\n              swap1\n              pop\n                /* \"#utility.yul\":16084:16086   */\n              0x1f\n                /* \"#utility.yul\":16076:16082   */\n              dup4\n                /* \"#utility.yul\":16073:16087   */\n              gt\n                /* \"#utility.yul\":16101:16102   */\n              0x01\n                /* \"#utility.yul\":16096:16714   */\n              dup2\n              eq\n              tag_327\n              jumpi\n                /* \"#utility.yul\":16758:16759   */\n              0x00\n                /* \"#utility.yul\":16775:16781   */\n              dup5\n                /* \"#utility.yul\":16772:16849   */\n              iszero\n              tag_328\n              jumpi\n                /* \"#utility.yul\":16824:16833   */\n              dup3\n                /* \"#utility.yul\":16819:16822   */\n              dup8\n                /* \"#utility.yul\":16815:16834   */\n              add\n                /* \"#utility.yul\":16809:16835   */\n              mload\n                /* \"#utility.yul\":16800:16835   */\n              swap1\n              pop\n                /* \"#utility.yul\":16772:16849   */\n            tag_328:\n                /* \"#utility.yul\":16875:16942   */\n              tag_329\n                /* \"#utility.yul\":16935:16941   */\n              dup6\n                /* \"#utility.yul\":16928:16933   */\n              dup3\n                /* \"#utility.yul\":16875:16942   */\n              tag_146\n              jump\t// in\n            tag_329:\n                /* \"#utility.yul\":16869:16873   */\n              dup7\n                /* \"#utility.yul\":16862:16943   */\n              sstore\n                /* \"#utility.yul\":16731:16953   */\n              pop\n                /* \"#utility.yul\":16066:16953   */\n              jump(tag_326)\n                /* \"#utility.yul\":16096:16714   */\n            tag_327:\n                /* \"#utility.yul\":16148:16152   */\n              0x1f\n                /* \"#utility.yul\":16144:16153   */\n              not\n                /* \"#utility.yul\":16136:16142   */\n              dup5\n                /* \"#utility.yul\":16132:16154   */\n              and\n                /* \"#utility.yul\":16182:16219   */\n              tag_330\n                /* \"#utility.yul\":16214:16218   */\n              dup7\n                /* \"#utility.yul\":16182:16219   */\n              tag_132\n              jump\t// in\n            tag_330:\n                /* \"#utility.yul\":16241:16242   */\n              0x00\n                /* \"#utility.yul\":16255:16463   */\n            tag_331:\n                /* \"#utility.yul\":16269:16276   */\n              dup3\n                /* \"#utility.yul\":16266:16267   */\n              dup2\n                /* \"#utility.yul\":16263:16277   */\n              lt\n                /* \"#utility.yul\":16255:16463   */\n              iszero\n              tag_333\n              jumpi\n                /* \"#utility.yul\":16348:16357   */\n              dup5\n                /* \"#utility.yul\":16343:16346   */\n              dup10\n                /* \"#utility.yul\":16339:16358   */\n              add\n                /* \"#utility.yul\":16333:16359   */\n              mload\n                /* \"#utility.yul\":16325:16331   */\n              dup3\n                /* \"#utility.yul\":16318:16360   */\n              sstore\n                /* \"#utility.yul\":16399:16400   */\n              0x01\n                /* \"#utility.yul\":16391:16397   */\n              dup3\n                /* \"#utility.yul\":16387:16401   */\n              add\n                /* \"#utility.yul\":16377:16401   */\n              swap2\n              pop\n                /* \"#utility.yul\":16446:16448   */\n              0x20\n                /* \"#utility.yul\":16435:16444   */\n              dup6\n                /* \"#utility.yul\":16431:16449   */\n              add\n                /* \"#utility.yul\":16418:16449   */\n              swap5\n              pop\n                /* \"#utility.yul\":16292:16296   */\n              0x20\n                /* \"#utility.yul\":16289:16290   */\n              dup2\n                /* \"#utility.yul\":16285:16297   */\n              add\n                /* \"#utility.yul\":16280:16297   */\n              swap1\n              pop\n                /* \"#utility.yul\":16255:16463   */\n              jump(tag_331)\n            tag_333:\n                /* \"#utility.yul\":16491:16497   */\n              dup7\n                /* \"#utility.yul\":16482:16489   */\n              dup4\n                /* \"#utility.yul\":16479:16498   */\n              lt\n                /* \"#utility.yul\":16476:16655   */\n              iszero\n              tag_334\n              jumpi\n                /* \"#utility.yul\":16549:16558   */\n              dup5\n                /* \"#utility.yul\":16544:16547   */\n              dup10\n                /* \"#utility.yul\":16540:16559   */\n              add\n                /* \"#utility.yul\":16534:16560   */\n              mload\n                /* \"#utility.yul\":16592:16640   */\n              tag_335\n                /* \"#utility.yul\":16634:16638   */\n              0x1f\n                /* \"#utility.yul\":16626:16632   */\n              dup10\n                /* \"#utility.yul\":16622:16639   */\n              and\n                /* \"#utility.yul\":16611:16620   */\n              dup3\n                /* \"#utility.yul\":16592:16640   */\n              tag_145\n              jump\t// in\n            tag_335:\n                /* \"#utility.yul\":16584:16590   */\n              dup4\n                /* \"#utility.yul\":16577:16641   */\n              sstore\n                /* \"#utility.yul\":16499:16655   */\n              pop\n                /* \"#utility.yul\":16476:16655   */\n            tag_334:\n                /* \"#utility.yul\":16701:16702   */\n              0x01\n                /* \"#utility.yul\":16697:16698   */\n              0x02\n                /* \"#utility.yul\":16689:16695   */\n              dup9\n                /* \"#utility.yul\":16685:16699   */\n              mul\n                /* \"#utility.yul\":16681:16703   */\n              add\n                /* \"#utility.yul\":16675:16679   */\n              dup9\n                /* \"#utility.yul\":16668:16704   */\n              sstore\n                /* \"#utility.yul\":16103:16714   */\n              pop\n              pop\n              pop\n                /* \"#utility.yul\":16066:16953   */\n            tag_326:\n              pop\n                /* \"#utility.yul\":15656:16959   */\n              pop\n              pop\n              pop\n                /* \"#utility.yul\":15564:16959   */\n              pop\n              pop\n              jump\t// out\n                /* \"#utility.yul\":16965:17187   */\n            tag_147:\n                /* \"#utility.yul\":17105:17139   */\n              0x41206d696e756d756d20636f6e747269627574696f6e20697320726571756972\n                /* \"#utility.yul\":17101:17102   */\n              0x00\n                /* \"#utility.yul\":17093:17099   */\n              dup3\n                /* \"#utility.yul\":17089:17103   */\n              add\n                /* \"#utility.yul\":17082:17140   */\n              mstore\n                /* \"#utility.yul\":17174:17179   */\n              0x65642e0000000000000000000000000000000000000000000000000000000000\n                /* \"#utility.yul\":17169:17171   */\n              0x20\n                /* \"#utility.yul\":17161:17167   */\n              dup3\n                /* \"#utility.yul\":17157:17172   */\n              add\n                /* \"#utility.yul\":17150:17180   */\n              mstore\n                /* \"#utility.yul\":16965:17187   */\n              pop\n              jump\t// out\n                /* \"#utility.yul\":17193:17559   */\n            tag_148:\n                /* \"#utility.yul\":17335:17338   */\n              0x00\n                /* \"#utility.yul\":17356:17423   */\n              tag_338\n                /* \"#utility.yul\":17420:17422   */\n              0x23\n                /* \"#utility.yul\":17415:17418   */\n              dup4\n                /* \"#utility.yul\":17356:17423   */\n              tag_105\n              jump\t// in\n            tag_338:\n                /* \"#utility.yul\":17349:17423   */\n              swap2\n              pop\n                /* \"#utility.yul\":17432:17525   */\n              tag_339\n                /* \"#utility.yul\":17521:17524   */\n              dup3\n                /* \"#utility.yul\":17432:17525   */\n              tag_147\n              jump\t// in\n            tag_339:\n                /* \"#utility.yul\":17550:17552   */\n              0x40\n                /* \"#utility.yul\":17545:17548   */\n              dup3\n                /* \"#utility.yul\":17541:17553   */\n              add\n                /* \"#utility.yul\":17534:17553   */\n              swap1\n              pop\n                /* \"#utility.yul\":17193:17559   */\n              swap2\n              swap1\n              pop\n              jump\t// out\n                /* \"#utility.yul\":17565:17984   */\n            tag_81:\n                /* \"#utility.yul\":17731:17735   */\n              0x00\n                /* \"#utility.yul\":17769:17771   */\n              0x20\n                /* \"#utility.yul\":17758:17767   */\n              dup3\n                /* \"#utility.yul\":17754:17772   */\n              add\n                /* \"#utility.yul\":17746:17772   */\n              swap1\n              pop\n                /* \"#utility.yul\":17818:17827   */\n              dup2\n                /* \"#utility.yul\":17812:17816   */\n              dup2\n                /* \"#utility.yul\":17808:17828   */\n              sub\n                /* \"#utility.yul\":17804:17805   */\n              0x00\n                /* \"#utility.yul\":17793:17802   */\n              dup4\n                /* \"#utility.yul\":17789:17806   */\n              add\n                /* \"#utility.yul\":17782:17829   */\n              mstore\n                /* \"#utility.yul\":17846:17977   */\n              tag_341\n                /* \"#utility.yul\":17972:17976   */\n              dup2\n                /* \"#utility.yul\":17846:17977   */\n              tag_148\n              jump\t// in\n            tag_341:\n                /* \"#utility.yul\":17838:17977   */\n              swap1\n              pop\n                /* \"#utility.yul\":17565:17984   */\n              swap2\n              swap1\n              pop\n              jump\t// out\n                /* \"#utility.yul\":17990:18233   */\n            tag_149:\n                /* \"#utility.yul\":18130:18164   */\n              0x4f6e6c7920636f6e7472696275746f72732063616e20617070726f7665206120\n                /* \"#utility.yul\":18126:18127   */\n              0x00\n                /* \"#utility.yul\":18118:18124   */\n              dup3\n                /* \"#utility.yul\":18114:18128   */\n              add\n                /* \"#utility.yul\":18107:18165   */\n              mstore\n                /* \"#utility.yul\":18199:18225   */\n              0x7370656369666963207061796d656e7420726571756573740000000000000000\n                /* \"#utility.yul\":18194:18196   */\n              0x20\n                /* \"#utility.yul\":18186:18192   */\n              dup3\n                /* \"#utility.yul\":18182:18197   */\n              add\n                /* \"#utility.yul\":18175:18226   */\n              mstore\n                /* \"#utility.yul\":17990:18233   */\n              pop\n              jump\t// out\n                /* \"#utility.yul\":18239:18605   */\n            tag_150:\n                /* \"#utility.yul\":18381:18384   */\n              0x00\n                /* \"#utility.yul\":18402:18469   */\n              tag_344\n                /* \"#utility.yul\":18466:18468   */\n              0x38\n                /* \"#utility.yul\":18461:18464   */\n              dup4\n                /* \"#utility.yul\":18402:18469   */\n              tag_105\n              jump\t// in\n            tag_344:\n                /* \"#utility.yul\":18395:18469   */\n              swap2\n              pop\n                /* \"#utility.yul\":18478:18571   */\n              tag_345\n                /* \"#utility.yul\":18567:18570   */\n              dup3\n                /* \"#utility.yul\":18478:18571   */\n              tag_149\n              jump\t// in\n            tag_345:\n                /* \"#utility.yul\":18596:18598   */\n              0x40\n                /* \"#utility.yul\":18591:18594   */\n              dup3\n                /* \"#utility.yul\":18587:18599   */\n              add\n                /* \"#utility.yul\":18580:18599   */\n              swap1\n              pop\n                /* \"#utility.yul\":18239:18605   */\n              swap2\n              swap1\n              pop\n              jump\t// out\n                /* \"#utility.yul\":18611:19030   */\n            tag_86:\n                /* \"#utility.yul\":18777:18781   */\n              0x00\n                /* \"#utility.yul\":18815:18817   */\n              0x20\n                /* \"#utility.yul\":18804:18813   */\n              dup3\n                /* \"#utility.yul\":18800:18818   */\n              add\n                /* \"#utility.yul\":18792:18818   */\n              swap1\n              pop\n                /* \"#utility.yul\":18864:18873   */\n              dup2\n                /* \"#utility.yul\":18858:18862   */\n              dup2\n                /* \"#utility.yul\":18854:18874   */\n              sub\n                /* \"#utility.yul\":18850:18851   */\n              0x00\n                /* \"#utility.yul\":18839:18848   */\n              dup4\n                /* \"#utility.yul\":18835:18852   */\n              add\n                /* \"#utility.yul\":18828:18875   */\n              mstore\n                /* \"#utility.yul\":18892:19023   */\n              tag_347\n                /* \"#utility.yul\":19018:19022   */\n              dup2\n                /* \"#utility.yul\":18892:19023   */\n              tag_150\n              jump\t// in\n            tag_347:\n                /* \"#utility.yul\":18884:19023   */\n              swap1\n              pop\n                /* \"#utility.yul\":18611:19030   */\n              swap2\n              swap1\n              pop\n              jump\t// out\n                /* \"#utility.yul\":19036:19269   */\n            tag_151:\n                /* \"#utility.yul\":19176:19210   */\n              0x596f75206861766520616c726561647920766f74656420746f20617070726f76\n                /* \"#utility.yul\":19172:19173   */\n              0x00\n                /* \"#utility.yul\":19164:19170   */\n              dup3\n                /* \"#utility.yul\":19160:19174   */\n              add\n                /* \"#utility.yul\":19153:19211   */\n              mstore\n                /* \"#utility.yul\":19245:19261   */\n              0x6520746869732072657175657374000000000000000000000000000000000000\n                /* \"#utility.yul\":19240:19242   */\n              0x20\n                /* \"#utility.yul\":19232:19238   */\n              dup3\n                /* \"#utility.yul\":19228:19243   */\n              add\n                /* \"#utility.yul\":19221:19262   */\n              mstore\n                /* \"#utility.yul\":19036:19269   */\n              pop\n              jump\t// out\n                /* \"#utility.yul\":19275:19641   */\n            tag_152:\n                /* \"#utility.yul\":19417:19420   */\n              0x00\n                /* \"#utility.yul\":19438:19505   */\n              tag_350\n                /* \"#utility.yul\":19502:19504   */\n              0x2e\n                /* \"#utility.yul\":19497:19500   */\n              dup4\n                /* \"#utility.yul\":19438:19505   */\n              tag_105\n              jump\t// in\n            tag_350:\n                /* \"#utility.yul\":19431:19505   */\n              swap2\n              pop\n                /* \"#utility.yul\":19514:19607   */\n              tag_351\n                /* \"#utility.yul\":19603:19606   */\n              dup3\n                /* \"#utility.yul\":19514:19607   */\n              tag_151\n              jump\t// in\n            tag_351:\n                /* \"#utility.yul\":19632:19634   */\n              0x40\n                /* \"#utility.yul\":19627:19630   */\n              dup3\n                /* \"#utility.yul\":19623:19635   */\n              add\n                /* \"#utility.yul\":19616:19635   */\n              swap1\n              pop\n                /* \"#utility.yul\":19275:19641   */\n              swap2\n              swap1\n              pop\n              jump\t// out\n                /* \"#utility.yul\":19647:20066   */\n            tag_89:\n                /* \"#utility.yul\":19813:19817   */\n              0x00\n                /* \"#utility.yul\":19851:19853   */\n              0x20\n                /* \"#utility.yul\":19840:19849   */\n              dup3\n                /* \"#utility.yul\":19836:19854   */\n              add\n                /* \"#utility.yul\":19828:19854   */\n              swap1\n              pop\n                /* \"#utility.yul\":19900:19909   */\n              dup2\n                /* \"#utility.yul\":19894:19898   */\n              dup2\n                /* \"#utility.yul\":19890:19910   */\n              sub\n                /* \"#utility.yul\":19886:19887   */\n              0x00\n                /* \"#utility.yul\":19875:19884   */\n              dup4\n                /* \"#utility.yul\":19871:19888   */\n              add\n                /* \"#utility.yul\":19864:19911   */\n              mstore\n                /* \"#utility.yul\":19928:20059   */\n              tag_353\n                /* \"#utility.yul\":20054:20058   */\n              dup2\n                /* \"#utility.yul\":19928:20059   */\n              tag_152\n              jump\t// in\n            tag_353:\n                /* \"#utility.yul\":19920:20059   */\n              swap1\n              pop\n                /* \"#utility.yul\":19647:20066   */\n              swap2\n              swap1\n              pop\n              jump\t// out\n\n            auxdata: 0xa264697066735822122076524de0060a210e17f173b8946c9903810f04932748edc7e5e41719b84c49ff64736f6c634300081b0033\n        }\n    }\n\n    auxdata: 0xa26469706673582212201eeea29751aaae021efa0d6c59944d661035255f42c6c7f197cdcbcf4bf0439464736f6c634300081b0033\n}\n","bytecode":{"linkReferences":{},"object":"6080604052348015600e575f5ffd5b506119628061001c5f395ff3fe608060405234801561000f575f5ffd5b506004361061003f575f3560e01c80634af9edfe146100435780635eac000714610073578063a3303a7514610091575b5f5ffd5b61005d6004803603810190610058919061024e565b6100ad565b60405161006a91906102f3565b60405180910390f35b61007b6100e7565b60405161008891906103c3565b60405180910390f35b6100ab60048036038101906100a6919061024e565b610171565b005b5f81815481106100bb575f80fd5b905f5260205f20015f915054906101000a900473ffffffffffffffffffffffffffffffffffffffff1681565b60605f80548060200260200160405190810160405280929190818152602001828054801561016757602002820191905f5260205f20905b815f9054906101000a900473ffffffffffffffffffffffffffffffffffffffff1673ffffffffffffffffffffffffffffffffffffffff168152602001906001019080831161011e575b5050505050905090565b5f81336040516101809061020a565b61018b929190610412565b604051809103905ff0801580156101a4573d5f5f3e3d5ffd5b5090505f81908060018154018082558091505060019003905f5260205f20015f9091909190916101000a81548173ffffffffffffffffffffffffffffffffffffffff021916908373ffffffffffffffffffffffffffffffffffffffff1602179055505050565b6114f38061043a83390190565b5f5ffd5b5f819050919050565b61022d8161021b565b8114610237575f5ffd5b50565b5f8135905061024881610224565b92915050565b5f6020828403121561026357610262610217565b5b5f6102708482850161023a565b91505092915050565b5f73ffffffffffffffffffffffffffffffffffffffff82169050919050565b5f819050919050565b5f6102bb6102b66102b184610279565b610298565b610279565b9050919050565b5f6102cc826102a1565b9050919050565b5f6102dd826102c2565b9050919050565b6102ed816102d3565b82525050565b5f6020820190506103065f8301846102e4565b92915050565b5f81519050919050565b5f82825260208201905092915050565b5f819050602082019050919050565b61033e816102d3565b82525050565b5f61034f8383610335565b60208301905092915050565b5f602082019050919050565b5f6103718261030c565b61037b8185610316565b935061038683610326565b805f5b838110156103b657815161039d8882610344565b97506103a88361035b565b925050600181019050610389565b5085935050505092915050565b5f6020820190508181035f8301526103db8184610367565b905092915050565b6103ec8161021b565b82525050565b5f6103fc82610279565b9050919050565b61040c816103f2565b82525050565b5f6040820190506104255f8301856103e3565b6104326020830184610403565b939250505056fe608060405234801561000f575f5ffd5b506040516114f33803806114f383398181016040528101906100319190610110565b8060015f6101000a81548173ffffffffffffffffffffffffffffffffffffffff021916908373ffffffffffffffffffffffffffffffffffffffff16021790555081600281905550505061014e565b5f5ffd5b5f819050919050565b61009581610083565b811461009f575f5ffd5b50565b5f815190506100b08161008c565b92915050565b5f73ffffffffffffffffffffffffffffffffffffffff82169050919050565b5f6100df826100b6565b9050919050565b6100ef816100d5565b81146100f9575f5ffd5b50565b5f8151905061010a816100e6565b92915050565b5f5f604083850312156101265761012561007f565b5b5f610133858286016100a2565b9250506020610144858286016100fc565b9150509250929050565b6113988061015b5f395ff3fe60806040526004361061007a575f3560e01c80638a9cfd551161004d5780638a9cfd5514610140578063937e09b114610168578063d7bb99ba14610192578063d7d1bbdb1461019c5761007a565b8063034410061461007e5780630a1443911461009a578063481c6a75146100d657806381d12c5814610100575b5f5ffd5b61009860048036038101906100939190610894565b6101c4565b005b3480156100a5575f5ffd5b506100c060048036038101906100bb9190610919565b610398565b6040516100cd919061095e565b60405180910390f35b3480156100e1575f5ffd5b506100ea6103b5565b6040516100f79190610986565b60405180910390f35b34801561010b575f5ffd5b5061012660048036038101906101219190610894565b6103da565b604051610137959493929190610a3e565b60405180910390f35b34801561014b575f5ffd5b5061016660048036038101906101619190610bec565b6104bd565b005b348015610173575f5ffd5b5061017c6105fb565b6040516101899190610c58565b60405180910390f35b61019a610601565b005b3480156101a7575f5ffd5b506101c260048036038101906101bd9190610894565b6106b4565b005b60015f9054906101000a900473ffffffffffffffffffffffffffffffffffffffff1673ffffffffffffffffffffffffffffffffffffffff163373ffffffffffffffffffffffffffffffffffffffff1614610253576040517f08c379a000000000000000000000000000000000000000000000000000000000815260040161024a90610ce1565b60405180910390fd5b5f5f5f8381526020019081526020015f20905060026005546102759190610d59565b8160030154116102ba576040517f08c379a00000000000000000000000000000000000000000000000000000000081526004016102b190610df9565b60405180910390fd5b8060020160149054906101000a900460ff161561030c576040517f08c379a000000000000000000000000000000000000000000000000000000000815260040161030390610e87565b60405180910390fd5b806002015f9054906101000a900473ffffffffffffffffffffffffffffffffffffffff1673ffffffffffffffffffffffffffffffffffffffff166108fc826001015490811502906040515f60405180830381858888f19350505050158015610376573d5f5f3e3d5ffd5b5060018160020160146101000a81548160ff0219169083151502179055505050565b6003602052805f5260405f205f915054906101000a900460ff1681565b60015f9054906101000a900473ffffffffffffffffffffffffffffffffffffffff1681565b5f602052805f5260405f205f91509050805f0180546103f890610ed2565b80601f016020809104026020016040519081016040528092919081815260200182805461042490610ed2565b801561046f5780601f106104465761010080835404028352916020019161046f565b820191905f5260205f20905b81548152906001019060200180831161045257829003601f168201915b505050505090806001015490806002015f9054906101000a900473ffffffffffffffffffffffffffffffffffffffff16908060020160149054906101000a900460ff16908060030154905085565b60015f9054906101000a900473ffffffffffffffffffffffffffffffffffffffff1673ffffffffffffffffffffffffffffffffffffffff163373ffffffffffffffffffffffffffffffffffffffff161461054c576040517f08c379a000000000000000000000000000000000000000000000000000000000815260040161054390610ce1565b60405180910390fd5b5f5f5f60045f81548092919061056190610f02565b9190505581526020019081526020015f20905083815f01908161058491906110e9565b5082816001018190555081816002015f6101000a81548173ffffffffffffffffffffffffffffffffffffffff021916908373ffffffffffffffffffffffffffffffffffffffff1602179055505f8160020160146101000a81548160ff0219169083151502179055505f816003018190555050505050565b60025481565b600254341015610646576040517f08c379a000000000000000000000000000000000000000000000000000000000815260040161063d90611228565b60405180910390fd5b600160035f3373ffffffffffffffffffffffffffffffffffffffff1673ffffffffffffffffffffffffffffffffffffffff1681526020019081526020015f205f6101000a81548160ff02191690831515021790555060055f8154809291906106ad90610f02565b9190505550565b5f5f5f8381526020019081526020015f20905060035f3373ffffffffffffffffffffffffffffffffffffffff1673ffffffffffffffffffffffffffffffffffffffff1681526020019081526020015f205f9054906101000a900460ff16610750576040517f08c379a0000000000000000000000000000000000000000000000000000000008152600401610747906112b6565b60405180910390fd5b806004015f3373ffffffffffffffffffffffffffffffffffffffff1673ffffffffffffffffffffffffffffffffffffffff1681526020019081526020015f205f9054906101000a900460ff16156107dc576040517f08c379a00000000000000000000000000000000000000000000000000000000081526004016107d390611344565b60405180910390fd5b6001816004015f3373ffffffffffffffffffffffffffffffffffffffff1673ffffffffffffffffffffffffffffffffffffffff1681526020019081526020015f205f6101000a81548160ff021916908315150217905550806003015f81548092919061084790610f02565b91905055505050565b5f604051905090565b5f5ffd5b5f5ffd5b5f819050919050565b61087381610861565b811461087d575f5ffd5b50565b5f8135905061088e8161086a565b92915050565b5f602082840312156108a9576108a8610859565b5b5f6108b684828501610880565b91505092915050565b5f73ffffffffffffffffffffffffffffffffffffffff82169050919050565b5f6108e8826108bf565b9050919050565b6108f8816108de565b8114610902575f5ffd5b50565b5f81359050610913816108ef565b92915050565b5f6020828403121561092e5761092d610859565b5b5f61093b84828501610905565b91505092915050565b5f8115159050919050565b61095881610944565b82525050565b5f6020820190506109715f83018461094f565b92915050565b610980816108de565b82525050565b5f6020820190506109995f830184610977565b92915050565b5f81519050919050565b5f82825260208201905092915050565b8281835e5f83830152505050565b5f601f19601f8301169050919050565b5f6109e18261099f565b6109eb81856109a9565b93506109fb8185602086016109b9565b610a04816109c7565b840191505092915050565b610a1881610861565b82525050565b5f610a28826108bf565b9050919050565b610a3881610a1e565b82525050565b5f60a0820190508181035f830152610a5681886109d7565b9050610a656020830187610a0f565b610a726040830186610a2f565b610a7f606083018561094f565b610a8c6080830184610a0f565b9695505050505050565b5f5ffd5b5f5ffd5b7f4e487b71000000000000000000000000000000000000000000000000000000005f52604160045260245ffd5b610ad4826109c7565b810181811067ffffffffffffffff82111715610af357610af2610a9e565b5b80604052505050565b5f610b05610850565b9050610b118282610acb565b919050565b5f67ffffffffffffffff821115610b3057610b2f610a9e565b5b610b39826109c7565b9050602081019050919050565b828183375f83830152505050565b5f610b66610b6184610b16565b610afc565b905082815260208101848484011115610b8257610b81610a9a565b5b610b8d848285610b46565b509392505050565b5f82601f830112610ba957610ba8610a96565b5b8135610bb9848260208601610b54565b91505092915050565b610bcb81610a1e565b8114610bd5575f5ffd5b50565b5f81359050610be681610bc2565b92915050565b5f5f5f60608486031215610c0357610c02610859565b5b5f84013567ffffffffffffffff811115610c2057610c1f61085d565b5b610c2c86828701610b95565b9350506020610c3d86828701610880565b9250506040610c4e86828701610bd8565b9150509250925092565b5f602082019050610c6b5f830184610a0f565b92915050565b7f4f6e6c79207468652063616d706169676e206d616e616765722063616e2063615f8201527f6c6c20746869732066756e6374696f6e2e000000000000000000000000000000602082015250565b5f610ccb6031836109a9565b9150610cd682610c71565b604082019050919050565b5f6020820190508181035f830152610cf881610cbf565b9050919050565b7f4e487b71000000000000000000000000000000000000000000000000000000005f52601260045260245ffd5b7f4e487b71000000000000000000000000000000000000000000000000000000005f52601160045260245ffd5b5f610d6382610861565b9150610d6e83610861565b925082610d7e57610d7d610cff565b5b828204905092915050565b7f546869732072657175657374206e65656473206d6f726520617070726f76616c5f8201527f73206265666f72652069742063616e2062652066696e616c697a656400000000602082015250565b5f610de3603c836109a9565b9150610dee82610d89565b604082019050919050565b5f6020820190508181035f830152610e1081610dd7565b9050919050565b7f5468697320726571756573742068617320616c7265616479206265656e2066695f8201527f6e616c697a656400000000000000000000000000000000000000000000000000602082015250565b5f610e716027836109a9565b9150610e7c82610e17565b604082019050919050565b5f6020820190508181035f830152610e9e81610e65565b9050919050565b7f4e487b71000000000000000000000000000000000000000000000000000000005f52602260045260245ffd5b5f6002820490506001821680610ee957607f821691505b602082108103610efc57610efb610ea5565b5b50919050565b5f610f0c82610861565b91507fffffffffffffffffffffffffffffffffffffffffffffffffffffffffffffffff8203610f3e57610f3d610d2c565b5b600182019050919050565b5f819050815f5260205f209050919050565b5f6020601f8301049050919050565b5f82821b905092915050565b5f60088302610fa57fffffffffffffffffffffffffffffffffffffffffffffffffffffffffffffffff82610f6a565b610faf8683610f6a565b95508019841693508086168417925050509392505050565b5f819050919050565b5f610fea610fe5610fe084610861565b610fc7565b610861565b9050919050565b5f819050919050565b61100383610fd0565b61101761100f82610ff1565b848454610f76565b825550505050565b5f5f905090565b61102e61101f565b611039818484610ffa565b505050565b5b8181101561105c576110515f82611026565b60018101905061103f565b5050565b601f8211156110a15761107281610f49565b61107b84610f5b565b8101602085101561108a578190505b61109e61109685610f5b565b83018261103e565b50505b505050565b5f82821c905092915050565b5f6110c15f19846008026110a6565b1980831691505092915050565b5f6110d983836110b2565b9150826002028217905092915050565b6110f28261099f565b67ffffffffffffffff81111561110b5761110a610a9e565b5b6111158254610ed2565b611120828285611060565b5f60209050601f831160018114611151575f841561113f578287015190505b61114985826110ce565b8655506111b0565b601f19841661115f86610f49565b5f5b8281101561118657848901518255600182019150602085019450602081019050611161565b868310156111a3578489015161119f601f8916826110b2565b8355505b6001600288020188555050505b505050505050565b7f41206d696e756d756d20636f6e747269627574696f6e206973207265717569725f8201527f65642e0000000000000000000000000000000000000000000000000000000000602082015250565b5f6112126023836109a9565b915061121d826111b8565b604082019050919050565b5f6020820190508181035f83015261123f81611206565b9050919050565b7f4f6e6c7920636f6e7472696275746f72732063616e20617070726f76652061205f8201527f7370656369666963207061796d656e7420726571756573740000000000000000602082015250565b5f6112a06038836109a9565b91506112ab82611246565b604082019050919050565b5f6020820190508181035f8301526112cd81611294565b9050919050565b7f596f75206861766520616c726561647920766f74656420746f20617070726f765f8201527f6520746869732072657175657374000000000000000000000000000000000000602082015250565b5f61132e602e836109a9565b9150611339826112d4565b604082019050919050565b5f6020820190508181035f83015261135b81611322565b905091905056fea264697066735822122076524de0060a210e17f173b8946c9903810f04932748edc7e5e41719b84c49ff64736f6c634300081b0033a26469706673582212201eeea29751aaae021efa0d6c59944d661035255f42c6c7f197cdcbcf4bf0439464736f6c634300081b0033","opcodes":"PUSH1 0x80 PUSH1 0x40 MSTORE CALLVALUE DUP1 ISZERO PUSH1 0xE JUMPI PUSH0 PUSH0 REVERT JUMPDEST POP PUSH2 0x1962 DUP1 PUSH2 0x1C PUSH0 CODECOPY PUSH0 RETURN INVALID PUSH1 0x80 PUSH1 0x40 MSTORE CALLVALUE DUP1 ISZERO PUSH2 0xF JUMPI PUSH0 PUSH0 REVERT JUMPDEST POP PUSH1 0x4 CALLDATASIZE LT PUSH2 0x3F JUMPI PUSH0 CALLDATALOAD PUSH1 0xE0 SHR DUP1 PUSH4 0x4AF9EDFE EQ PUSH2 0x43 JUMPI DUP1 PUSH4 0x5EAC0007 EQ PUSH2 0x73 JUMPI DUP1 PUSH4 0xA3303A75 EQ PUSH2 0x91 JUMPI JUMPDEST PUSH0 PUSH0 REVERT JUMPDEST PUSH2 0x5D PUSH1 0x4 DUP1 CALLDATASIZE SUB DUP2 ADD SWAP1 PUSH2 0x58 SWAP2 SWAP1 PUSH2 0x24E JUMP JUMPDEST PUSH2 0xAD JUMP JUMPDEST PUSH1 0x40 MLOAD PUSH2 0x6A SWAP2 SWAP1 PUSH2 0x2F3 JUMP JUMPDEST PUSH1 0x40 MLOAD DUP1 SWAP2 SUB SWAP1 RETURN JUMPDEST PUSH2 0x7B PUSH2 0xE7 JUMP JUMPDEST PUSH1 0x40 MLOAD PUSH2 0x88 SWAP2 SWAP1 PUSH2 0x3C3 JUMP JUMPDEST PUSH1 0x40 MLOAD DUP1 SWAP2 SUB SWAP1 RETURN JUMPDEST PUSH2 0xAB PUSH1 0x4 DUP1 CALLDATASIZE SUB DUP2 ADD SWAP1 PUSH2 0xA6 SWAP2 SWAP1 PUSH2 0x24E JUMP JUMPDEST PUSH2 0x171 JUMP JUMPDEST STOP JUMPDEST PUSH0 DUP2 DUP2 SLOAD DUP2 LT PUSH2 0xBB JUMPI PUSH0 DUP1 REVERT JUMPDEST SWAP1 PUSH0 MSTORE PUSH1 0x20 PUSH0 KECCAK256 ADD PUSH0 SWAP2 POP SLOAD SWAP1 PUSH2 0x100 EXP SWAP1 DIV PUSH20 0xFFFFFFFFFFFFFFFFFFFFFFFFFFFFFFFFFFFFFFFF AND DUP2 JUMP JUMPDEST PUSH1 0x60 PUSH0 DUP1 SLOAD DUP1 PUSH1 0x20 MUL PUSH1 0x20 ADD PUSH1 0x40 MLOAD SWAP1 DUP2 ADD PUSH1 0x40 MSTORE DUP1 SWAP3 SWAP2 SWAP1 DUP2 DUP2 MSTORE PUSH1 0x20 ADD DUP3 DUP1 SLOAD DUP1 ISZERO PUSH2 0x167 JUMPI PUSH1 0x20 MUL DUP3 ADD SWAP2 SWAP1 PUSH0 MSTORE PUSH1 0x20 PUSH0 KECCAK256 SWAP1 JUMPDEST DUP2 PUSH0 SWAP1 SLOAD SWAP1 PUSH2 0x100 EXP SWAP1 DIV PUSH20 0xFFFFFFFFFFFFFFFFFFFFFFFFFFFFFFFFFFFFFFFF AND PUSH20 0xFFFFFFFFFFFFFFFFFFFFFFFFFFFFFFFFFFFFFFFF AND DUP2 MSTORE PUSH1 0x20 ADD SWAP1 PUSH1 0x1 ADD SWAP1 DUP1 DUP4 GT PUSH2 0x11E JUMPI JUMPDEST POP POP POP POP POP SWAP1 POP SWAP1 JUMP JUMPDEST PUSH0 DUP2 CALLER PUSH1 0x40 MLOAD PUSH2 0x180 SWAP1 PUSH2 0x20A JUMP JUMPDEST PUSH2 0x18B SWAP3 SWAP2 SWAP1 PUSH2 0x412 JUMP JUMPDEST PUSH1 0x40 MLOAD DUP1 SWAP2 SUB SWAP1 PUSH0 CREATE DUP1 ISZERO DUP1 ISZERO PUSH2 0x1A4 JUMPI RETURNDATASIZE PUSH0 PUSH0 RETURNDATACOPY RETURNDATASIZE PUSH0 REVERT JUMPDEST POP SWAP1 POP PUSH0 DUP2 SWAP1 DUP1 PUSH1 0x1 DUP2 SLOAD ADD DUP1 DUP3 SSTORE DUP1 SWAP2 POP POP PUSH1 0x1 SWAP1 SUB SWAP1 PUSH0 MSTORE PUSH1 0x20 PUSH0 KECCAK256 ADD PUSH0 SWAP1 SWAP2 SWAP1 SWAP2 SWAP1 SWAP2 PUSH2 0x100 EXP DUP2 SLOAD DUP2 PUSH20 0xFFFFFFFFFFFFFFFFFFFFFFFFFFFFFFFFFFFFFFFF MUL NOT AND SWAP1 DUP4 PUSH20 0xFFFFFFFFFFFFFFFFFFFFFFFFFFFFFFFFFFFFFFFF AND MUL OR SWAP1 SSTORE POP POP POP JUMP JUMPDEST PUSH2 0x14F3 DUP1 PUSH2 0x43A DUP4 CODECOPY ADD SWAP1 JUMP JUMPDEST PUSH0 PUSH0 REVERT JUMPDEST PUSH0 DUP2 SWAP1 POP SWAP2 SWAP1 POP JUMP JUMPDEST PUSH2 0x22D DUP2 PUSH2 0x21B JUMP JUMPDEST DUP2 EQ PUSH2 0x237 JUMPI PUSH0 PUSH0 REVERT JUMPDEST POP JUMP JUMPDEST PUSH0 DUP2 CALLDATALOAD SWAP1 POP PUSH2 0x248 DUP2 PUSH2 0x224 JUMP JUMPDEST SWAP3 SWAP2 POP POP JUMP JUMPDEST PUSH0 PUSH1 0x20 DUP3 DUP5 SUB SLT ISZERO PUSH2 0x263 JUMPI PUSH2 0x262 PUSH2 0x217 JUMP JUMPDEST JUMPDEST PUSH0 PUSH2 0x270 DUP5 DUP3 DUP6 ADD PUSH2 0x23A JUMP JUMPDEST SWAP2 POP POP SWAP3 SWAP2 POP POP JUMP JUMPDEST PUSH0 PUSH20 0xFFFFFFFFFFFFFFFFFFFFFFFFFFFFFFFFFFFFFFFF DUP3 AND SWAP1 POP SWAP2 SWAP1 POP JUMP JUMPDEST PUSH0 DUP2 SWAP1 POP SWAP2 SWAP1 POP JUMP JUMPDEST PUSH0 PUSH2 0x2BB PUSH2 0x2B6 PUSH2 0x2B1 DUP5 PUSH2 0x279 JUMP JUMPDEST PUSH2 0x298 JUMP JUMPDEST PUSH2 0x279 JUMP JUMPDEST SWAP1 POP SWAP2 SWAP1 POP JUMP JUMPDEST PUSH0 PUSH2 0x2CC DUP3 PUSH2 0x2A1 JUMP JUMPDEST SWAP1 POP SWAP2 SWAP1 POP JUMP JUMPDEST PUSH0 PUSH2 0x2DD DUP3 PUSH2 0x2C2 JUMP JUMPDEST SWAP1 POP SWAP2 SWAP1 POP JUMP JUMPDEST PUSH2 0x2ED DUP2 PUSH2 0x2D3 JUMP JUMPDEST DUP3 MSTORE POP POP JUMP JUMPDEST PUSH0 PUSH1 0x20 DUP3 ADD SWAP1 POP PUSH2 0x306 PUSH0 DUP4 ADD DUP5 PUSH2 0x2E4 JUMP JUMPDEST SWAP3 SWAP2 POP POP JUMP JUMPDEST PUSH0 DUP2 MLOAD SWAP1 POP SWAP2 SWAP1 POP JUMP JUMPDEST PUSH0 DUP3 DUP3 MSTORE PUSH1 0x20 DUP3 ADD SWAP1 POP SWAP3 SWAP2 POP POP JUMP JUMPDEST PUSH0 DUP2 SWAP1 POP PUSH1 0x20 DUP3 ADD SWAP1 POP SWAP2 SWAP1 POP JUMP JUMPDEST PUSH2 0x33E DUP2 PUSH2 0x2D3 JUMP JUMPDEST DUP3 MSTORE POP POP JUMP JUMPDEST PUSH0 PUSH2 0x34F DUP4 DUP4 PUSH2 0x335 JUMP JUMPDEST PUSH1 0x20 DUP4 ADD SWAP1 POP SWAP3 SWAP2 POP POP JUMP JUMPDEST PUSH0 PUSH1 0x20 DUP3 ADD SWAP1 POP SWAP2 SWAP1 POP JUMP JUMPDEST PUSH0 PUSH2 0x371 DUP3 PUSH2 0x30C JUMP JUMPDEST PUSH2 0x37B DUP2 DUP6 PUSH2 0x316 JUMP JUMPDEST SWAP4 POP PUSH2 0x386 DUP4 PUSH2 0x326 JUMP JUMPDEST DUP1 PUSH0 JUMPDEST DUP4 DUP2 LT ISZERO PUSH2 0x3B6 JUMPI DUP2 MLOAD PUSH2 0x39D DUP9 DUP3 PUSH2 0x344 JUMP JUMPDEST SWAP8 POP PUSH2 0x3A8 DUP4 PUSH2 0x35B JUMP JUMPDEST SWAP3 POP POP PUSH1 0x1 DUP2 ADD SWAP1 POP PUSH2 0x389 JUMP JUMPDEST POP DUP6 SWAP4 POP POP POP POP SWAP3 SWAP2 POP POP JUMP JUMPDEST PUSH0 PUSH1 0x20 DUP3 ADD SWAP1 POP DUP2 DUP2 SUB PUSH0 DUP4 ADD MSTORE PUSH2 0x3DB DUP2 DUP5 PUSH2 0x367 JUMP JUMPDEST SWAP1 POP SWAP3 SWAP2 POP POP JUMP JUMPDEST PUSH2 0x3EC DUP2 PUSH2 0x21B JUMP JUMPDEST DUP3 MSTORE POP POP JUMP JUMPDEST PUSH0 PUSH2 0x3FC DUP3 PUSH2 0x279 JUMP JUMPDEST SWAP1 POP SWAP2 SWAP1 POP JUMP JUMPDEST PUSH2 0x40C DUP2 PUSH2 0x3F2 JUMP JUMPDEST DUP3 MSTORE POP POP JUMP JUMPDEST PUSH0 PUSH1 0x40 DUP3 ADD SWAP1 POP PUSH2 0x425 PUSH0 DUP4 ADD DUP6 PUSH2 0x3E3 JUMP JUMPDEST PUSH2 0x432 PUSH1 0x20 DUP4 ADD DUP5 PUSH2 0x403 JUMP JUMPDEST SWAP4 SWAP3 POP POP POP JUMP INVALID PUSH1 0x80 PUSH1 0x40 MSTORE CALLVALUE DUP1 ISZERO PUSH2 0xF JUMPI PUSH0 PUSH0 REVERT JUMPDEST POP PUSH1 0x40 MLOAD PUSH2 0x14F3 CODESIZE SUB DUP1 PUSH2 0x14F3 DUP4 CODECOPY DUP2 DUP2 ADD PUSH1 0x40 MSTORE DUP2 ADD SWAP1 PUSH2 0x31 SWAP2 SWAP1 PUSH2 0x110 JUMP JUMPDEST DUP1 PUSH1 0x1 PUSH0 PUSH2 0x100 EXP DUP2 SLOAD DUP2 PUSH20 0xFFFFFFFFFFFFFFFFFFFFFFFFFFFFFFFFFFFFFFFF MUL NOT AND SWAP1 DUP4 PUSH20 0xFFFFFFFFFFFFFFFFFFFFFFFFFFFFFFFFFFFFFFFF AND MUL OR SWAP1 SSTORE POP DUP2 PUSH1 0x2 DUP2 SWAP1 SSTORE POP POP POP PUSH2 0x14E JUMP JUMPDEST PUSH0 PUSH0 REVERT JUMPDEST PUSH0 DUP2 SWAP1 POP SWAP2 SWAP1 POP JUMP JUMPDEST PUSH2 0x95 DUP2 PUSH2 0x83 JUMP JUMPDEST DUP2 EQ PUSH2 0x9F JUMPI PUSH0 PUSH0 REVERT JUMPDEST POP JUMP JUMPDEST PUSH0 DUP2 MLOAD SWAP1 POP PUSH2 0xB0 DUP2 PUSH2 0x8C JUMP JUMPDEST SWAP3 SWAP2 POP POP JUMP JUMPDEST PUSH0 PUSH20 0xFFFFFFFFFFFFFFFFFFFFFFFFFFFFFFFFFFFFFFFF DUP3 AND SWAP1 POP SWAP2 SWAP1 POP JUMP JUMPDEST PUSH0 PUSH2 0xDF DUP3 PUSH2 0xB6 JUMP JUMPDEST SWAP1 POP SWAP2 SWAP1 POP JUMP JUMPDEST PUSH2 0xEF DUP2 PUSH2 0xD5 JUMP JUMPDEST DUP2 EQ PUSH2 0xF9 JUMPI PUSH0 PUSH0 REVERT JUMPDEST POP JUMP JUMPDEST PUSH0 DUP2 MLOAD SWAP1 POP PUSH2 0x10A DUP2 PUSH2 0xE6 JUMP JUMPDEST SWAP3 SWAP2 POP POP JUMP JUMPDEST PUSH0 PUSH0 PUSH1 0x40 DUP4 DUP6 SUB SLT ISZERO PUSH2 0x126 JUMPI PUSH2 0x125 PUSH2 0x7F JUMP JUMPDEST JUMPDEST PUSH0 PUSH2 0x133 DUP6 DUP3 DUP7 ADD PUSH2 0xA2 JUMP JUMPDEST SWAP3 POP POP PUSH1 0x20 PUSH2 0x144 DUP6 DUP3 DUP7 ADD PUSH2 0xFC JUMP JUMPDEST SWAP2 POP POP SWAP3 POP SWAP3 SWAP1 POP JUMP JUMPDEST PUSH2 0x1398 DUP1 PUSH2 0x15B PUSH0 CODECOPY PUSH0 RETURN INVALID PUSH1 0x80 PUSH1 0x40 MSTORE PUSH1 0x4 CALLDATASIZE LT PUSH2 0x7A JUMPI PUSH0 CALLDATALOAD PUSH1 0xE0 SHR DUP1 PUSH4 0x8A9CFD55 GT PUSH2 0x4D JUMPI DUP1 PUSH4 0x8A9CFD55 EQ PUSH2 0x140 JUMPI DUP1 PUSH4 0x937E09B1 EQ PUSH2 0x168 JUMPI DUP1 PUSH4 0xD7BB99BA EQ PUSH2 0x192 JUMPI DUP1 PUSH4 0xD7D1BBDB EQ PUSH2 0x19C JUMPI PUSH2 0x7A JUMP JUMPDEST DUP1 PUSH4 0x3441006 EQ PUSH2 0x7E JUMPI DUP1 PUSH4 0xA144391 EQ PUSH2 0x9A JUMPI DUP1 PUSH4 0x481C6A75 EQ PUSH2 0xD6 JUMPI DUP1 PUSH4 0x81D12C58 EQ PUSH2 0x100 JUMPI JUMPDEST PUSH0 PUSH0 REVERT JUMPDEST PUSH2 0x98 PUSH1 0x4 DUP1 CALLDATASIZE SUB DUP2 ADD SWAP1 PUSH2 0x93 SWAP2 SWAP1 PUSH2 0x894 JUMP JUMPDEST PUSH2 0x1C4 JUMP JUMPDEST STOP JUMPDEST CALLVALUE DUP1 ISZERO PUSH2 0xA5 JUMPI PUSH0 PUSH0 REVERT JUMPDEST POP PUSH2 0xC0 PUSH1 0x4 DUP1 CALLDATASIZE SUB DUP2 ADD SWAP1 PUSH2 0xBB SWAP2 SWAP1 PUSH2 0x919 JUMP JUMPDEST PUSH2 0x398 JUMP JUMPDEST PUSH1 0x40 MLOAD PUSH2 0xCD SWAP2 SWAP1 PUSH2 0x95E JUMP JUMPDEST PUSH1 0x40 MLOAD DUP1 SWAP2 SUB SWAP1 RETURN JUMPDEST CALLVALUE DUP1 ISZERO PUSH2 0xE1 JUMPI PUSH0 PUSH0 REVERT JUMPDEST POP PUSH2 0xEA PUSH2 0x3B5 JUMP JUMPDEST PUSH1 0x40 MLOAD PUSH2 0xF7 SWAP2 SWAP1 PUSH2 0x986 JUMP JUMPDEST PUSH1 0x40 MLOAD DUP1 SWAP2 SUB SWAP1 RETURN JUMPDEST CALLVALUE DUP1 ISZERO PUSH2 0x10B JUMPI PUSH0 PUSH0 REVERT JUMPDEST POP PUSH2 0x126 PUSH1 0x4 DUP1 CALLDATASIZE SUB DUP2 ADD SWAP1 PUSH2 0x121 SWAP2 SWAP1 PUSH2 0x894 JUMP JUMPDEST PUSH2 0x3DA JUMP JUMPDEST PUSH1 0x40 MLOAD PUSH2 0x137 SWAP6 SWAP5 SWAP4 SWAP3 SWAP2 SWAP1 PUSH2 0xA3E JUMP JUMPDEST PUSH1 0x40 MLOAD DUP1 SWAP2 SUB SWAP1 RETURN JUMPDEST CALLVALUE DUP1 ISZERO PUSH2 0x14B JUMPI PUSH0 PUSH0 REVERT JUMPDEST POP PUSH2 0x166 PUSH1 0x4 DUP1 CALLDATASIZE SUB DUP2 ADD SWAP1 PUSH2 0x161 SWAP2 SWAP1 PUSH2 0xBEC JUMP JUMPDEST PUSH2 0x4BD JUMP JUMPDEST STOP JUMPDEST CALLVALUE DUP1 ISZERO PUSH2 0x173 JUMPI PUSH0 PUSH0 REVERT JUMPDEST POP PUSH2 0x17C PUSH2 0x5FB JUMP JUMPDEST PUSH1 0x40 MLOAD PUSH2 0x189 SWAP2 SWAP1 PUSH2 0xC58 JUMP JUMPDEST PUSH1 0x40 MLOAD DUP1 SWAP2 SUB SWAP1 RETURN JUMPDEST PUSH2 0x19A PUSH2 0x601 JUMP JUMPDEST STOP JUMPDEST CALLVALUE DUP1 ISZERO PUSH2 0x1A7 JUMPI PUSH0 PUSH0 REVERT JUMPDEST POP PUSH2 0x1C2 PUSH1 0x4 DUP1 CALLDATASIZE SUB DUP2 ADD SWAP1 PUSH2 0x1BD SWAP2 SWAP1 PUSH2 0x894 JUMP JUMPDEST PUSH2 0x6B4 JUMP JUMPDEST STOP JUMPDEST PUSH1 0x1 PUSH0 SWAP1 SLOAD SWAP1 PUSH2 0x100 EXP SWAP1 DIV PUSH20 0xFFFFFFFFFFFFFFFFFFFFFFFFFFFFFFFFFFFFFFFF AND PUSH20 0xFFFFFFFFFFFFFFFFFFFFFFFFFFFFFFFFFFFFFFFF AND CALLER PUSH20 0xFFFFFFFFFFFFFFFFFFFFFFFFFFFFFFFFFFFFFFFF AND EQ PUSH2 0x253 JUMPI PUSH1 0x40 MLOAD PUSH32 0x8C379A000000000000000000000000000000000000000000000000000000000 DUP2 MSTORE PUSH1 0x4 ADD PUSH2 0x24A SWAP1 PUSH2 0xCE1 JUMP JUMPDEST PUSH1 0x40 MLOAD DUP1 SWAP2 SUB SWAP1 REVERT JUMPDEST PUSH0 PUSH0 PUSH0 DUP4 DUP2 MSTORE PUSH1 0x20 ADD SWAP1 DUP2 MSTORE PUSH1 0x20 ADD PUSH0 KECCAK256 SWAP1 POP PUSH1 0x2 PUSH1 0x5 SLOAD PUSH2 0x275 SWAP2 SWAP1 PUSH2 0xD59 JUMP JUMPDEST DUP2 PUSH1 0x3 ADD SLOAD GT PUSH2 0x2BA JUMPI PUSH1 0x40 MLOAD PUSH32 0x8C379A000000000000000000000000000000000000000000000000000000000 DUP2 MSTORE PUSH1 0x4 ADD PUSH2 0x2B1 SWAP1 PUSH2 0xDF9 JUMP JUMPDEST PUSH1 0x40 MLOAD DUP1 SWAP2 SUB SWAP1 REVERT JUMPDEST DUP1 PUSH1 0x2 ADD PUSH1 0x14 SWAP1 SLOAD SWAP1 PUSH2 0x100 EXP SWAP1 DIV PUSH1 0xFF AND ISZERO PUSH2 0x30C JUMPI PUSH1 0x40 MLOAD PUSH32 0x8C379A000000000000000000000000000000000000000000000000000000000 DUP2 MSTORE PUSH1 0x4 ADD PUSH2 0x303 SWAP1 PUSH2 0xE87 JUMP JUMPDEST PUSH1 0x40 MLOAD DUP1 SWAP2 SUB SWAP1 REVERT JUMPDEST DUP1 PUSH1 0x2 ADD PUSH0 SWAP1 SLOAD SWAP1 PUSH2 0x100 EXP SWAP1 DIV PUSH20 0xFFFFFFFFFFFFFFFFFFFFFFFFFFFFFFFFFFFFFFFF AND PUSH20 0xFFFFFFFFFFFFFFFFFFFFFFFFFFFFFFFFFFFFFFFF AND PUSH2 0x8FC DUP3 PUSH1 0x1 ADD SLOAD SWAP1 DUP2 ISZERO MUL SWAP1 PUSH1 0x40 MLOAD PUSH0 PUSH1 0x40 MLOAD DUP1 DUP4 SUB DUP2 DUP6 DUP9 DUP9 CALL SWAP4 POP POP POP POP ISZERO DUP1 ISZERO PUSH2 0x376 JUMPI RETURNDATASIZE PUSH0 PUSH0 RETURNDATACOPY RETURNDATASIZE PUSH0 REVERT JUMPDEST POP PUSH1 0x1 DUP2 PUSH1 0x2 ADD PUSH1 0x14 PUSH2 0x100 EXP DUP2 SLOAD DUP2 PUSH1 0xFF MUL NOT AND SWAP1 DUP4 ISZERO ISZERO MUL OR SWAP1 SSTORE POP POP POP JUMP JUMPDEST PUSH1 0x3 PUSH1 0x20 MSTORE DUP1 PUSH0 MSTORE PUSH1 0x40 PUSH0 KECCAK256 PUSH0 SWAP2 POP SLOAD SWAP1 PUSH2 0x100 EXP SWAP1 DIV PUSH1 0xFF AND DUP2 JUMP JUMPDEST PUSH1 0x1 PUSH0 SWAP1 SLOAD SWAP1 PUSH2 0x100 EXP SWAP1 DIV PUSH20 0xFFFFFFFFFFFFFFFFFFFFFFFFFFFFFFFFFFFFFFFF AND DUP2 JUMP JUMPDEST PUSH0 PUSH1 0x20 MSTORE DUP1 PUSH0 MSTORE PUSH1 0x40 PUSH0 KECCAK256 PUSH0 SWAP2 POP SWAP1 POP DUP1 PUSH0 ADD DUP1 SLOAD PUSH2 0x3F8 SWAP1 PUSH2 0xED2 JUMP JUMPDEST DUP1 PUSH1 0x1F ADD PUSH1 0x20 DUP1 SWAP2 DIV MUL PUSH1 0x20 ADD PUSH1 0x40 MLOAD SWAP1 DUP2 ADD PUSH1 0x40 MSTORE DUP1 SWAP3 SWAP2 SWAP1 DUP2 DUP2 MSTORE PUSH1 0x20 ADD DUP3 DUP1 SLOAD PUSH2 0x424 SWAP1 PUSH2 0xED2 JUMP JUMPDEST DUP1 ISZERO PUSH2 0x46F JUMPI DUP1 PUSH1 0x1F LT PUSH2 0x446 JUMPI PUSH2 0x100 DUP1 DUP4 SLOAD DIV MUL DUP4 MSTORE SWAP2 PUSH1 0x20 ADD SWAP2 PUSH2 0x46F JUMP JUMPDEST DUP3 ADD SWAP2 SWAP1 PUSH0 MSTORE PUSH1 0x20 PUSH0 KECCAK256 SWAP1 JUMPDEST DUP2 SLOAD DUP2 MSTORE SWAP1 PUSH1 0x1 ADD SWAP1 PUSH1 0x20 ADD DUP1 DUP4 GT PUSH2 0x452 JUMPI DUP3 SWAP1 SUB PUSH1 0x1F AND DUP3 ADD SWAP2 JUMPDEST POP POP POP POP POP SWAP1 DUP1 PUSH1 0x1 ADD SLOAD SWAP1 DUP1 PUSH1 0x2 ADD PUSH0 SWAP1 SLOAD SWAP1 PUSH2 0x100 EXP SWAP1 DIV PUSH20 0xFFFFFFFFFFFFFFFFFFFFFFFFFFFFFFFFFFFFFFFF AND SWAP1 DUP1 PUSH1 0x2 ADD PUSH1 0x14 SWAP1 SLOAD SWAP1 PUSH2 0x100 EXP SWAP1 DIV PUSH1 0xFF AND SWAP1 DUP1 PUSH1 0x3 ADD SLOAD SWAP1 POP DUP6 JUMP JUMPDEST PUSH1 0x1 PUSH0 SWAP1 SLOAD SWAP1 PUSH2 0x100 EXP SWAP1 DIV PUSH20 0xFFFFFFFFFFFFFFFFFFFFFFFFFFFFFFFFFFFFFFFF AND PUSH20 0xFFFFFFFFFFFFFFFFFFFFFFFFFFFFFFFFFFFFFFFF AND CALLER PUSH20 0xFFFFFFFFFFFFFFFFFFFFFFFFFFFFFFFFFFFFFFFF AND EQ PUSH2 0x54C JUMPI PUSH1 0x40 MLOAD PUSH32 0x8C379A000000000000000000000000000000000000000000000000000000000 DUP2 MSTORE PUSH1 0x4 ADD PUSH2 0x543 SWAP1 PUSH2 0xCE1 JUMP JUMPDEST PUSH1 0x40 MLOAD DUP1 SWAP2 SUB SWAP1 REVERT JUMPDEST PUSH0 PUSH0 PUSH0 PUSH1 0x4 PUSH0 DUP2 SLOAD DUP1 SWAP3 SWAP2 SWAP1 PUSH2 0x561 SWAP1 PUSH2 0xF02 JUMP JUMPDEST SWAP2 SWAP1 POP SSTORE DUP2 MSTORE PUSH1 0x20 ADD SWAP1 DUP2 MSTORE PUSH1 0x20 ADD PUSH0 KECCAK256 SWAP1 POP DUP4 DUP2 PUSH0 ADD SWAP1 DUP2 PUSH2 0x584 SWAP2 SWAP1 PUSH2 0x10E9 JUMP JUMPDEST POP DUP3 DUP2 PUSH1 0x1 ADD DUP2 SWAP1 SSTORE POP DUP2 DUP2 PUSH1 0x2 ADD PUSH0 PUSH2 0x100 EXP DUP2 SLOAD DUP2 PUSH20 0xFFFFFFFFFFFFFFFFFFFFFFFFFFFFFFFFFFFFFFFF MUL NOT AND SWAP1 DUP4 PUSH20 0xFFFFFFFFFFFFFFFFFFFFFFFFFFFFFFFFFFFFFFFF AND MUL OR SWAP1 SSTORE POP PUSH0 DUP2 PUSH1 0x2 ADD PUSH1 0x14 PUSH2 0x100 EXP DUP2 SLOAD DUP2 PUSH1 0xFF MUL NOT AND SWAP1 DUP4 ISZERO ISZERO MUL OR SWAP1 SSTORE POP PUSH0 DUP2 PUSH1 0x3 ADD DUP2 SWAP1 SSTORE POP POP POP POP POP JUMP JUMPDEST PUSH1 0x2 SLOAD DUP2 JUMP JUMPDEST PUSH1 0x2 SLOAD CALLVALUE LT ISZERO PUSH2 0x646 JUMPI PUSH1 0x40 MLOAD PUSH32 0x8C379A000000000000000000000000000000000000000000000000000000000 DUP2 MSTORE PUSH1 0x4 ADD PUSH2 0x63D SWAP1 PUSH2 0x1228 JUMP JUMPDEST PUSH1 0x40 MLOAD DUP1 SWAP2 SUB SWAP1 REVERT JUMPDEST PUSH1 0x1 PUSH1 0x3 PUSH0 CALLER PUSH20 0xFFFFFFFFFFFFFFFFFFFFFFFFFFFFFFFFFFFFFFFF AND PUSH20 0xFFFFFFFFFFFFFFFFFFFFFFFFFFFFFFFFFFFFFFFF AND DUP2 MSTORE PUSH1 0x20 ADD SWAP1 DUP2 MSTORE PUSH1 0x20 ADD PUSH0 KECCAK256 PUSH0 PUSH2 0x100 EXP DUP2 SLOAD DUP2 PUSH1 0xFF MUL NOT AND SWAP1 DUP4 ISZERO ISZERO MUL OR SWAP1 SSTORE POP PUSH1 0x5 PUSH0 DUP2 SLOAD DUP1 SWAP3 SWAP2 SWAP1 PUSH2 0x6AD SWAP1 PUSH2 0xF02 JUMP JUMPDEST SWAP2 SWAP1 POP SSTORE POP JUMP JUMPDEST PUSH0 PUSH0 PUSH0 DUP4 DUP2 MSTORE PUSH1 0x20 ADD SWAP1 DUP2 MSTORE PUSH1 0x20 ADD PUSH0 KECCAK256 SWAP1 POP PUSH1 0x3 PUSH0 CALLER PUSH20 0xFFFFFFFFFFFFFFFFFFFFFFFFFFFFFFFFFFFFFFFF AND PUSH20 0xFFFFFFFFFFFFFFFFFFFFFFFFFFFFFFFFFFFFFFFF AND DUP2 MSTORE PUSH1 0x20 ADD SWAP1 DUP2 MSTORE PUSH1 0x20 ADD PUSH0 KECCAK256 PUSH0 SWAP1 SLOAD SWAP1 PUSH2 0x100 EXP SWAP1 DIV PUSH1 0xFF AND PUSH2 0x750 JUMPI PUSH1 0x40 MLOAD PUSH32 0x8C379A000000000000000000000000000000000000000000000000000000000 DUP2 MSTORE PUSH1 0x4 ADD PUSH2 0x747 SWAP1 PUSH2 0x12B6 JUMP JUMPDEST PUSH1 0x40 MLOAD DUP1 SWAP2 SUB SWAP1 REVERT JUMPDEST DUP1 PUSH1 0x4 ADD PUSH0 CALLER PUSH20 0xFFFFFFFFFFFFFFFFFFFFFFFFFFFFFFFFFFFFFFFF AND PUSH20 0xFFFFFFFFFFFFFFFFFFFFFFFFFFFFFFFFFFFFFFFF AND DUP2 MSTORE PUSH1 0x20 ADD SWAP1 DUP2 MSTORE PUSH1 0x20 ADD PUSH0 KECCAK256 PUSH0 SWAP1 SLOAD SWAP1 PUSH2 0x100 EXP SWAP1 DIV PUSH1 0xFF AND ISZERO PUSH2 0x7DC JUMPI PUSH1 0x40 MLOAD PUSH32 0x8C379A000000000000000000000000000000000000000000000000000000000 DUP2 MSTORE PUSH1 0x4 ADD PUSH2 0x7D3 SWAP1 PUSH2 0x1344 JUMP JUMPDEST PUSH1 0x40 MLOAD DUP1 SWAP2 SUB SWAP1 REVERT JUMPDEST PUSH1 0x1 DUP2 PUSH1 0x4 ADD PUSH0 CALLER PUSH20 0xFFFFFFFFFFFFFFFFFFFFFFFFFFFFFFFFFFFFFFFF AND PUSH20 0xFFFFFFFFFFFFFFFFFFFFFFFFFFFFFFFFFFFFFFFF AND DUP2 MSTORE PUSH1 0x20 ADD SWAP1 DUP2 MSTORE PUSH1 0x20 ADD PUSH0 KECCAK256 PUSH0 PUSH2 0x100 EXP DUP2 SLOAD DUP2 PUSH1 0xFF MUL NOT AND SWAP1 DUP4 ISZERO ISZERO MUL OR SWAP1 SSTORE POP DUP1 PUSH1 0x3 ADD PUSH0 DUP2 SLOAD DUP1 SWAP3 SWAP2 SWAP1 PUSH2 0x847 SWAP1 PUSH2 0xF02 JUMP JUMPDEST SWAP2 SWAP1 POP SSTORE POP POP POP JUMP JUMPDEST PUSH0 PUSH1 0x40 MLOAD SWAP1 POP SWAP1 JUMP JUMPDEST PUSH0 PUSH0 REVERT JUMPDEST PUSH0 PUSH0 REVERT JUMPDEST PUSH0 DUP2 SWAP1 POP SWAP2 SWAP1 POP JUMP JUMPDEST PUSH2 0x873 DUP2 PUSH2 0x861 JUMP JUMPDEST DUP2 EQ PUSH2 0x87D JUMPI PUSH0 PUSH0 REVERT JUMPDEST POP JUMP JUMPDEST PUSH0 DUP2 CALLDATALOAD SWAP1 POP PUSH2 0x88E DUP2 PUSH2 0x86A JUMP JUMPDEST SWAP3 SWAP2 POP POP JUMP JUMPDEST PUSH0 PUSH1 0x20 DUP3 DUP5 SUB SLT ISZERO PUSH2 0x8A9 JUMPI PUSH2 0x8A8 PUSH2 0x859 JUMP JUMPDEST JUMPDEST PUSH0 PUSH2 0x8B6 DUP5 DUP3 DUP6 ADD PUSH2 0x880 JUMP JUMPDEST SWAP2 POP POP SWAP3 SWAP2 POP POP JUMP JUMPDEST PUSH0 PUSH20 0xFFFFFFFFFFFFFFFFFFFFFFFFFFFFFFFFFFFFFFFF DUP3 AND SWAP1 POP SWAP2 SWAP1 POP JUMP JUMPDEST PUSH0 PUSH2 0x8E8 DUP3 PUSH2 0x8BF JUMP JUMPDEST SWAP1 POP SWAP2 SWAP1 POP JUMP JUMPDEST PUSH2 0x8F8 DUP2 PUSH2 0x8DE JUMP JUMPDEST DUP2 EQ PUSH2 0x902 JUMPI PUSH0 PUSH0 REVERT JUMPDEST POP JUMP JUMPDEST PUSH0 DUP2 CALLDATALOAD SWAP1 POP PUSH2 0x913 DUP2 PUSH2 0x8EF JUMP JUMPDEST SWAP3 SWAP2 POP POP JUMP JUMPDEST PUSH0 PUSH1 0x20 DUP3 DUP5 SUB SLT ISZERO PUSH2 0x92E JUMPI PUSH2 0x92D PUSH2 0x859 JUMP JUMPDEST JUMPDEST PUSH0 PUSH2 0x93B DUP5 DUP3 DUP6 ADD PUSH2 0x905 JUMP JUMPDEST SWAP2 POP POP SWAP3 SWAP2 POP POP JUMP JUMPDEST PUSH0 DUP2 ISZERO ISZERO SWAP1 POP SWAP2 SWAP1 POP JUMP JUMPDEST PUSH2 0x958 DUP2 PUSH2 0x944 JUMP JUMPDEST DUP3 MSTORE POP POP JUMP JUMPDEST PUSH0 PUSH1 0x20 DUP3 ADD SWAP1 POP PUSH2 0x971 PUSH0 DUP4 ADD DUP5 PUSH2 0x94F JUMP JUMPDEST SWAP3 SWAP2 POP POP JUMP JUMPDEST PUSH2 0x980 DUP2 PUSH2 0x8DE JUMP JUMPDEST DUP3 MSTORE POP POP JUMP JUMPDEST PUSH0 PUSH1 0x20 DUP3 ADD SWAP1 POP PUSH2 0x999 PUSH0 DUP4 ADD DUP5 PUSH2 0x977 JUMP JUMPDEST SWAP3 SWAP2 POP POP JUMP JUMPDEST PUSH0 DUP2 MLOAD SWAP1 POP SWAP2 SWAP1 POP JUMP JUMPDEST PUSH0 DUP3 DUP3 MSTORE PUSH1 0x20 DUP3 ADD SWAP1 POP SWAP3 SWAP2 POP POP JUMP JUMPDEST DUP3 DUP2 DUP4 MCOPY PUSH0 DUP4 DUP4 ADD MSTORE POP POP POP JUMP JUMPDEST PUSH0 PUSH1 0x1F NOT PUSH1 0x1F DUP4 ADD AND SWAP1 POP SWAP2 SWAP1 POP JUMP JUMPDEST PUSH0 PUSH2 0x9E1 DUP3 PUSH2 0x99F JUMP JUMPDEST PUSH2 0x9EB DUP2 DUP6 PUSH2 0x9A9 JUMP JUMPDEST SWAP4 POP PUSH2 0x9FB DUP2 DUP6 PUSH1 0x20 DUP7 ADD PUSH2 0x9B9 JUMP JUMPDEST PUSH2 0xA04 DUP2 PUSH2 0x9C7 JUMP JUMPDEST DUP5 ADD SWAP2 POP POP SWAP3 SWAP2 POP POP JUMP JUMPDEST PUSH2 0xA18 DUP2 PUSH2 0x861 JUMP JUMPDEST DUP3 MSTORE POP POP JUMP JUMPDEST PUSH0 PUSH2 0xA28 DUP3 PUSH2 0x8BF JUMP JUMPDEST SWAP1 POP SWAP2 SWAP1 POP JUMP JUMPDEST PUSH2 0xA38 DUP2 PUSH2 0xA1E JUMP JUMPDEST DUP3 MSTORE POP POP JUMP JUMPDEST PUSH0 PUSH1 0xA0 DUP3 ADD SWAP1 POP DUP2 DUP2 SUB PUSH0 DUP4 ADD MSTORE PUSH2 0xA56 DUP2 DUP9 PUSH2 0x9D7 JUMP JUMPDEST SWAP1 POP PUSH2 0xA65 PUSH1 0x20 DUP4 ADD DUP8 PUSH2 0xA0F JUMP JUMPDEST PUSH2 0xA72 PUSH1 0x40 DUP4 ADD DUP7 PUSH2 0xA2F JUMP JUMPDEST PUSH2 0xA7F PUSH1 0x60 DUP4 ADD DUP6 PUSH2 0x94F JUMP JUMPDEST PUSH2 0xA8C PUSH1 0x80 DUP4 ADD DUP5 PUSH2 0xA0F JUMP JUMPDEST SWAP7 SWAP6 POP POP POP POP POP POP JUMP JUMPDEST PUSH0 PUSH0 REVERT JUMPDEST PUSH0 PUSH0 REVERT JUMPDEST PUSH32 0x4E487B7100000000000000000000000000000000000000000000000000000000 PUSH0 MSTORE PUSH1 0x41 PUSH1 0x4 MSTORE PUSH1 0x24 PUSH0 REVERT JUMPDEST PUSH2 0xAD4 DUP3 PUSH2 0x9C7 JUMP JUMPDEST DUP2 ADD DUP2 DUP2 LT PUSH8 0xFFFFFFFFFFFFFFFF DUP3 GT OR ISZERO PUSH2 0xAF3 JUMPI PUSH2 0xAF2 PUSH2 0xA9E JUMP JUMPDEST JUMPDEST DUP1 PUSH1 0x40 MSTORE POP POP POP JUMP JUMPDEST PUSH0 PUSH2 0xB05 PUSH2 0x850 JUMP JUMPDEST SWAP1 POP PUSH2 0xB11 DUP3 DUP3 PUSH2 0xACB JUMP JUMPDEST SWAP2 SWAP1 POP JUMP JUMPDEST PUSH0 PUSH8 0xFFFFFFFFFFFFFFFF DUP3 GT ISZERO PUSH2 0xB30 JUMPI PUSH2 0xB2F PUSH2 0xA9E JUMP JUMPDEST JUMPDEST PUSH2 0xB39 DUP3 PUSH2 0x9C7 JUMP JUMPDEST SWAP1 POP PUSH1 0x20 DUP2 ADD SWAP1 POP SWAP2 SWAP1 POP JUMP JUMPDEST DUP3 DUP2 DUP4 CALLDATACOPY PUSH0 DUP4 DUP4 ADD MSTORE POP POP POP JUMP JUMPDEST PUSH0 PUSH2 0xB66 PUSH2 0xB61 DUP5 PUSH2 0xB16 JUMP JUMPDEST PUSH2 0xAFC JUMP JUMPDEST SWAP1 POP DUP3 DUP2 MSTORE PUSH1 0x20 DUP2 ADD DUP5 DUP5 DUP5 ADD GT ISZERO PUSH2 0xB82 JUMPI PUSH2 0xB81 PUSH2 0xA9A JUMP JUMPDEST JUMPDEST PUSH2 0xB8D DUP5 DUP3 DUP6 PUSH2 0xB46 JUMP JUMPDEST POP SWAP4 SWAP3 POP POP POP JUMP JUMPDEST PUSH0 DUP3 PUSH1 0x1F DUP4 ADD SLT PUSH2 0xBA9 JUMPI PUSH2 0xBA8 PUSH2 0xA96 JUMP JUMPDEST JUMPDEST DUP2 CALLDATALOAD PUSH2 0xBB9 DUP5 DUP3 PUSH1 0x20 DUP7 ADD PUSH2 0xB54 JUMP JUMPDEST SWAP2 POP POP SWAP3 SWAP2 POP POP JUMP JUMPDEST PUSH2 0xBCB DUP2 PUSH2 0xA1E JUMP JUMPDEST DUP2 EQ PUSH2 0xBD5 JUMPI PUSH0 PUSH0 REVERT JUMPDEST POP JUMP JUMPDEST PUSH0 DUP2 CALLDATALOAD SWAP1 POP PUSH2 0xBE6 DUP2 PUSH2 0xBC2 JUMP JUMPDEST SWAP3 SWAP2 POP POP JUMP JUMPDEST PUSH0 PUSH0 PUSH0 PUSH1 0x60 DUP5 DUP7 SUB SLT ISZERO PUSH2 0xC03 JUMPI PUSH2 0xC02 PUSH2 0x859 JUMP JUMPDEST JUMPDEST PUSH0 DUP5 ADD CALLDATALOAD PUSH8 0xFFFFFFFFFFFFFFFF DUP2 GT ISZERO PUSH2 0xC20 JUMPI PUSH2 0xC1F PUSH2 0x85D JUMP JUMPDEST JUMPDEST PUSH2 0xC2C DUP7 DUP3 DUP8 ADD PUSH2 0xB95 JUMP JUMPDEST SWAP4 POP POP PUSH1 0x20 PUSH2 0xC3D DUP7 DUP3 DUP8 ADD PUSH2 0x880 JUMP JUMPDEST SWAP3 POP POP PUSH1 0x40 PUSH2 0xC4E DUP7 DUP3 DUP8 ADD PUSH2 0xBD8 JUMP JUMPDEST SWAP2 POP POP SWAP3 POP SWAP3 POP SWAP3 JUMP JUMPDEST PUSH0 PUSH1 0x20 DUP3 ADD SWAP1 POP PUSH2 0xC6B PUSH0 DUP4 ADD DUP5 PUSH2 0xA0F JUMP JUMPDEST SWAP3 SWAP2 POP POP JUMP JUMPDEST PUSH32 0x4F6E6C79207468652063616D706169676E206D616E616765722063616E206361 PUSH0 DUP3 ADD MSTORE PUSH32 0x6C6C20746869732066756E6374696F6E2E000000000000000000000000000000 PUSH1 0x20 DUP3 ADD MSTORE POP JUMP JUMPDEST PUSH0 PUSH2 0xCCB PUSH1 0x31 DUP4 PUSH2 0x9A9 JUMP JUMPDEST SWAP2 POP PUSH2 0xCD6 DUP3 PUSH2 0xC71 JUMP JUMPDEST PUSH1 0x40 DUP3 ADD SWAP1 POP SWAP2 SWAP1 POP JUMP JUMPDEST PUSH0 PUSH1 0x20 DUP3 ADD SWAP1 POP DUP2 DUP2 SUB PUSH0 DUP4 ADD MSTORE PUSH2 0xCF8 DUP2 PUSH2 0xCBF JUMP JUMPDEST SWAP1 POP SWAP2 SWAP1 POP JUMP JUMPDEST PUSH32 0x4E487B7100000000000000000000000000000000000000000000000000000000 PUSH0 MSTORE PUSH1 0x12 PUSH1 0x4 MSTORE PUSH1 0x24 PUSH0 REVERT JUMPDEST PUSH32 0x4E487B7100000000000000000000000000000000000000000000000000000000 PUSH0 MSTORE PUSH1 0x11 PUSH1 0x4 MSTORE PUSH1 0x24 PUSH0 REVERT JUMPDEST PUSH0 PUSH2 0xD63 DUP3 PUSH2 0x861 JUMP JUMPDEST SWAP2 POP PUSH2 0xD6E DUP4 PUSH2 0x861 JUMP JUMPDEST SWAP3 POP DUP3 PUSH2 0xD7E JUMPI PUSH2 0xD7D PUSH2 0xCFF JUMP JUMPDEST JUMPDEST DUP3 DUP3 DIV SWAP1 POP SWAP3 SWAP2 POP POP JUMP JUMPDEST PUSH32 0x546869732072657175657374206E65656473206D6F726520617070726F76616C PUSH0 DUP3 ADD MSTORE PUSH32 0x73206265666F72652069742063616E2062652066696E616C697A656400000000 PUSH1 0x20 DUP3 ADD MSTORE POP JUMP JUMPDEST PUSH0 PUSH2 0xDE3 PUSH1 0x3C DUP4 PUSH2 0x9A9 JUMP JUMPDEST SWAP2 POP PUSH2 0xDEE DUP3 PUSH2 0xD89 JUMP JUMPDEST PUSH1 0x40 DUP3 ADD SWAP1 POP SWAP2 SWAP1 POP JUMP JUMPDEST PUSH0 PUSH1 0x20 DUP3 ADD SWAP1 POP DUP2 DUP2 SUB PUSH0 DUP4 ADD MSTORE PUSH2 0xE10 DUP2 PUSH2 0xDD7 JUMP JUMPDEST SWAP1 POP SWAP2 SWAP1 POP JUMP JUMPDEST PUSH32 0x5468697320726571756573742068617320616C7265616479206265656E206669 PUSH0 DUP3 ADD MSTORE PUSH32 0x6E616C697A656400000000000000000000000000000000000000000000000000 PUSH1 0x20 DUP3 ADD MSTORE POP JUMP JUMPDEST PUSH0 PUSH2 0xE71 PUSH1 0x27 DUP4 PUSH2 0x9A9 JUMP JUMPDEST SWAP2 POP PUSH2 0xE7C DUP3 PUSH2 0xE17 JUMP JUMPDEST PUSH1 0x40 DUP3 ADD SWAP1 POP SWAP2 SWAP1 POP JUMP JUMPDEST PUSH0 PUSH1 0x20 DUP3 ADD SWAP1 POP DUP2 DUP2 SUB PUSH0 DUP4 ADD MSTORE PUSH2 0xE9E DUP2 PUSH2 0xE65 JUMP JUMPDEST SWAP1 POP SWAP2 SWAP1 POP JUMP JUMPDEST PUSH32 0x4E487B7100000000000000000000000000000000000000000000000000000000 PUSH0 MSTORE PUSH1 0x22 PUSH1 0x4 MSTORE PUSH1 0x24 PUSH0 REVERT JUMPDEST PUSH0 PUSH1 0x2 DUP3 DIV SWAP1 POP PUSH1 0x1 DUP3 AND DUP1 PUSH2 0xEE9 JUMPI PUSH1 0x7F DUP3 AND SWAP2 POP JUMPDEST PUSH1 0x20 DUP3 LT DUP2 SUB PUSH2 0xEFC JUMPI PUSH2 0xEFB PUSH2 0xEA5 JUMP JUMPDEST JUMPDEST POP SWAP2 SWAP1 POP JUMP JUMPDEST PUSH0 PUSH2 0xF0C DUP3 PUSH2 0x861 JUMP JUMPDEST SWAP2 POP PUSH32 0xFFFFFFFFFFFFFFFFFFFFFFFFFFFFFFFFFFFFFFFFFFFFFFFFFFFFFFFFFFFFFFFF DUP3 SUB PUSH2 0xF3E JUMPI PUSH2 0xF3D PUSH2 0xD2C JUMP JUMPDEST JUMPDEST PUSH1 0x1 DUP3 ADD SWAP1 POP SWAP2 SWAP1 POP JUMP JUMPDEST PUSH0 DUP2 SWAP1 POP DUP2 PUSH0 MSTORE PUSH1 0x20 PUSH0 KECCAK256 SWAP1 POP SWAP2 SWAP1 POP JUMP JUMPDEST PUSH0 PUSH1 0x20 PUSH1 0x1F DUP4 ADD DIV SWAP1 POP SWAP2 SWAP1 POP JUMP JUMPDEST PUSH0 DUP3 DUP3 SHL SWAP1 POP SWAP3 SWAP2 POP POP JUMP JUMPDEST PUSH0 PUSH1 0x8 DUP4 MUL PUSH2 0xFA5 PUSH32 0xFFFFFFFFFFFFFFFFFFFFFFFFFFFFFFFFFFFFFFFFFFFFFFFFFFFFFFFFFFFFFFFF DUP3 PUSH2 0xF6A JUMP JUMPDEST PUSH2 0xFAF DUP7 DUP4 PUSH2 0xF6A JUMP JUMPDEST SWAP6 POP DUP1 NOT DUP5 AND SWAP4 POP DUP1 DUP7 AND DUP5 OR SWAP3 POP POP POP SWAP4 SWAP3 POP POP POP JUMP JUMPDEST PUSH0 DUP2 SWAP1 POP SWAP2 SWAP1 POP JUMP JUMPDEST PUSH0 PUSH2 0xFEA PUSH2 0xFE5 PUSH2 0xFE0 DUP5 PUSH2 0x861 JUMP JUMPDEST PUSH2 0xFC7 JUMP JUMPDEST PUSH2 0x861 JUMP JUMPDEST SWAP1 POP SWAP2 SWAP1 POP JUMP JUMPDEST PUSH0 DUP2 SWAP1 POP SWAP2 SWAP1 POP JUMP JUMPDEST PUSH2 0x1003 DUP4 PUSH2 0xFD0 JUMP JUMPDEST PUSH2 0x1017 PUSH2 0x100F DUP3 PUSH2 0xFF1 JUMP JUMPDEST DUP5 DUP5 SLOAD PUSH2 0xF76 JUMP JUMPDEST DUP3 SSTORE POP POP POP POP JUMP JUMPDEST PUSH0 PUSH0 SWAP1 POP SWAP1 JUMP JUMPDEST PUSH2 0x102E PUSH2 0x101F JUMP JUMPDEST PUSH2 0x1039 DUP2 DUP5 DUP5 PUSH2 0xFFA JUMP JUMPDEST POP POP POP JUMP JUMPDEST JUMPDEST DUP2 DUP2 LT ISZERO PUSH2 0x105C JUMPI PUSH2 0x1051 PUSH0 DUP3 PUSH2 0x1026 JUMP JUMPDEST PUSH1 0x1 DUP2 ADD SWAP1 POP PUSH2 0x103F JUMP JUMPDEST POP POP JUMP JUMPDEST PUSH1 0x1F DUP3 GT ISZERO PUSH2 0x10A1 JUMPI PUSH2 0x1072 DUP2 PUSH2 0xF49 JUMP JUMPDEST PUSH2 0x107B DUP5 PUSH2 0xF5B JUMP JUMPDEST DUP2 ADD PUSH1 0x20 DUP6 LT ISZERO PUSH2 0x108A JUMPI DUP2 SWAP1 POP JUMPDEST PUSH2 0x109E PUSH2 0x1096 DUP6 PUSH2 0xF5B JUMP JUMPDEST DUP4 ADD DUP3 PUSH2 0x103E JUMP JUMPDEST POP POP JUMPDEST POP POP POP JUMP JUMPDEST PUSH0 DUP3 DUP3 SHR SWAP1 POP SWAP3 SWAP2 POP POP JUMP JUMPDEST PUSH0 PUSH2 0x10C1 PUSH0 NOT DUP5 PUSH1 0x8 MUL PUSH2 0x10A6 JUMP JUMPDEST NOT DUP1 DUP4 AND SWAP2 POP POP SWAP3 SWAP2 POP POP JUMP JUMPDEST PUSH0 PUSH2 0x10D9 DUP4 DUP4 PUSH2 0x10B2 JUMP JUMPDEST SWAP2 POP DUP3 PUSH1 0x2 MUL DUP3 OR SWAP1 POP SWAP3 SWAP2 POP POP JUMP JUMPDEST PUSH2 0x10F2 DUP3 PUSH2 0x99F JUMP JUMPDEST PUSH8 0xFFFFFFFFFFFFFFFF DUP2 GT ISZERO PUSH2 0x110B JUMPI PUSH2 0x110A PUSH2 0xA9E JUMP JUMPDEST JUMPDEST PUSH2 0x1115 DUP3 SLOAD PUSH2 0xED2 JUMP JUMPDEST PUSH2 0x1120 DUP3 DUP3 DUP6 PUSH2 0x1060 JUMP JUMPDEST PUSH0 PUSH1 0x20 SWAP1 POP PUSH1 0x1F DUP4 GT PUSH1 0x1 DUP2 EQ PUSH2 0x1151 JUMPI PUSH0 DUP5 ISZERO PUSH2 0x113F JUMPI DUP3 DUP8 ADD MLOAD SWAP1 POP JUMPDEST PUSH2 0x1149 DUP6 DUP3 PUSH2 0x10CE JUMP JUMPDEST DUP7 SSTORE POP PUSH2 0x11B0 JUMP JUMPDEST PUSH1 0x1F NOT DUP5 AND PUSH2 0x115F DUP7 PUSH2 0xF49 JUMP JUMPDEST PUSH0 JUMPDEST DUP3 DUP2 LT ISZERO PUSH2 0x1186 JUMPI DUP5 DUP10 ADD MLOAD DUP3 SSTORE PUSH1 0x1 DUP3 ADD SWAP2 POP PUSH1 0x20 DUP6 ADD SWAP5 POP PUSH1 0x20 DUP2 ADD SWAP1 POP PUSH2 0x1161 JUMP JUMPDEST DUP7 DUP4 LT ISZERO PUSH2 0x11A3 JUMPI DUP5 DUP10 ADD MLOAD PUSH2 0x119F PUSH1 0x1F DUP10 AND DUP3 PUSH2 0x10B2 JUMP JUMPDEST DUP4 SSTORE POP JUMPDEST PUSH1 0x1 PUSH1 0x2 DUP9 MUL ADD DUP9 SSTORE POP POP POP JUMPDEST POP POP POP POP POP POP JUMP JUMPDEST PUSH32 0x41206D696E756D756D20636F6E747269627574696F6E20697320726571756972 PUSH0 DUP3 ADD MSTORE PUSH32 0x65642E0000000000000000000000000000000000000000000000000000000000 PUSH1 0x20 DUP3 ADD MSTORE POP JUMP JUMPDEST PUSH0 PUSH2 0x1212 PUSH1 0x23 DUP4 PUSH2 0x9A9 JUMP JUMPDEST SWAP2 POP PUSH2 0x121D DUP3 PUSH2 0x11B8 JUMP JUMPDEST PUSH1 0x40 DUP3 ADD SWAP1 POP SWAP2 SWAP1 POP JUMP JUMPDEST PUSH0 PUSH1 0x20 DUP3 ADD SWAP1 POP DUP2 DUP2 SUB PUSH0 DUP4 ADD MSTORE PUSH2 0x123F DUP2 PUSH2 0x1206 JUMP JUMPDEST SWAP1 POP SWAP2 SWAP1 POP JUMP JUMPDEST PUSH32 0x4F6E6C7920636F6E7472696275746F72732063616E20617070726F7665206120 PUSH0 DUP3 ADD MSTORE PUSH32 0x7370656369666963207061796D656E7420726571756573740000000000000000 PUSH1 0x20 DUP3 ADD MSTORE POP JUMP JUMPDEST PUSH0 PUSH2 0x12A0 PUSH1 0x38 DUP4 PUSH2 0x9A9 JUMP JUMPDEST SWAP2 POP PUSH2 0x12AB DUP3 PUSH2 0x1246 JUMP JUMPDEST PUSH1 0x40 DUP3 ADD SWAP1 POP SWAP2 SWAP1 POP JUMP JUMPDEST PUSH0 PUSH1 0x20 DUP3 ADD SWAP1 POP DUP2 DUP2 SUB PUSH0 DUP4 ADD MSTORE PUSH2 0x12CD DUP2 PUSH2 0x1294 JUMP JUMPDEST SWAP1 POP SWAP2 SWAP1 POP JUMP JUMPDEST PUSH32 0x596F75206861766520616C726561647920766F74656420746F20617070726F76 PUSH0 DUP3 ADD MSTORE PUSH32 0x6520746869732072657175657374000000000000000000000000000000000000 PUSH1 0x20 DUP3 ADD MSTORE POP JUMP JUMPDEST PUSH0 PUSH2 0x132E PUSH1 0x2E DUP4 PUSH2 0x9A9 JUMP JUMPDEST SWAP2 POP PUSH2 0x1339 DUP3 PUSH2 0x12D4 JUMP JUMPDEST PUSH1 0x40 DUP3 ADD SWAP1 POP SWAP2 SWAP1 POP JUMP JUMPDEST PUSH0 PUSH1 0x20 DUP3 ADD SWAP1 POP DUP2 DUP2 SUB PUSH0 DUP4 ADD MSTORE PUSH2 0x135B DUP2 PUSH2 0x1322 JUMP JUMPDEST SWAP1 POP SWAP2 SWAP1 POP JUMP INVALID LOG2 PUSH5 0x6970667358 0x22 SLT KECCAK256 PUSH23 0x524DE0060A210E17F173B8946C9903810F04932748EDC7 0xE5 0xE4 OR NOT 0xB8 0x4C BLOBHASH SELFDESTRUCT PUSH5 0x736F6C6343 STOP ADDMOD SHL STOP CALLER LOG2 PUSH5 0x6970667358 0x22 SLT KECCAK256 0x1E 0xEE LOG2 SWAP8 MLOAD 0xAA 0xAE MUL 0x1E STATICCALL 0xD PUSH13 0x59944D661035255F42C6C7F197 0xCD 0xCB 0xCF 0x4B CREATE NUMBER SWAP5 PUSH5 0x736F6C6343 STOP ADDMOD SHL STOP CALLER "},"gasEstimates":{"creation":{"codeDepositCost":"1299600","executionCost":"1354","totalCost":"1300954"},"external":{"createCampaign(uint256)":"infinite","deployedCampains(uint256)":"infinite","getDeployedCampaign()":"infinite"}},"methodIdentifiers":{"createCampaign(uint256)":"a3303a75","deployedCampains(uint256)":"4af9edfe","getDeployedCampaign()":"5eac0007"}},"storageLayout":{"storage":[{"astId":5,"contract":"Campaign.sol:CampaignFactory","label":"deployedCampains","offset":0,"slot":"0","type":"t_array(t_contract(Campaign)266)dyn_storage"}],"types":{"t_array(t_contract(Campaign)266)dyn_storage":{"base":"t_contract(Campaign)266","encoding":"dynamic_array","label":"contract Campaign[]","numberOfBytes":"32"},"t_contract(Campaign)266":{"encoding":"inplace","label":"contract Campaign","numberOfBytes":"20"}}},"transientStorageLayout":{"storage":[],"types":null},"userdoc":{"kind":"user","methods":{},"version":1}}